{
  "contractName": "Authentication",
  "abi": [
    {
      "inputs": [],
      "stateMutability": "nonpayable",
      "type": "constructor"
    },
    {
      "inputs": [
        {
          "internalType": "string",
          "name": "_firstName",
          "type": "string"
        },
        {
          "internalType": "string",
          "name": "_familyName",
          "type": "string"
        },
        {
          "internalType": "string",
          "name": "_typeUser",
          "type": "string"
        },
        {
          "internalType": "string",
          "name": "_password",
          "type": "string"
        }
      ],
      "name": "signUp",
      "outputs": [
        {
          "internalType": "bool",
          "name": "",
          "type": "bool"
        }
      ],
      "stateMutability": "nonpayable",
      "type": "function"
    },
    {
      "inputs": [],
      "name": "areYouAlreadySignUp",
      "outputs": [
        {
          "internalType": "bool",
          "name": "",
          "type": "bool"
        }
      ],
      "stateMutability": "view",
      "type": "function",
      "constant": true
    },
    {
      "inputs": [
        {
          "internalType": "string",
          "name": "_password",
          "type": "string"
        }
      ],
      "name": "doesPasswordCorrect",
      "outputs": [
        {
          "internalType": "bool",
          "name": "",
          "type": "bool"
        }
      ],
      "stateMutability": "view",
      "type": "function",
      "constant": true
    },
    {
      "inputs": [
        {
          "internalType": "string",
          "name": "_password",
          "type": "string"
        }
      ],
      "name": "logIn",
      "outputs": [
        {
          "internalType": "address",
          "name": "",
          "type": "address"
        },
        {
          "internalType": "string",
          "name": "",
          "type": "string"
        },
        {
          "internalType": "string",
          "name": "",
          "type": "string"
        },
        {
          "internalType": "string",
          "name": "",
          "type": "string"
        }
      ],
      "stateMutability": "view",
      "type": "function",
      "constant": true
    },
    {
      "inputs": [
        {
          "internalType": "address",
          "name": "_idStudent",
          "type": "address"
        }
      ],
      "name": "getCoursesOfStudent",
      "outputs": [
        {
          "components": [
            {
              "internalType": "uint256",
              "name": "idCourse",
              "type": "uint256"
            },
            {
              "internalType": "uint256",
              "name": "idQuestionAnswer",
              "type": "uint256"
            },
            {
              "internalType": "bool",
              "name": "answerFlag",
              "type": "bool"
            },
            {
              "internalType": "uint256",
              "name": "idAnswer",
              "type": "uint256"
            }
          ],
          "internalType": "struct Authentication.QuestionAnswer[]",
          "name": "",
          "type": "tuple[]"
        }
      ],
      "stateMutability": "view",
      "type": "function",
      "constant": true
    },
    {
      "inputs": [
        {
          "internalType": "address",
          "name": "_adrStudent",
          "type": "address"
        },
        {
          "internalType": "uint256",
          "name": "_idCourse",
          "type": "uint256"
        },
        {
          "internalType": "uint256",
          "name": "_idAnswerQuestion",
          "type": "uint256"
        },
        {
          "internalType": "bool",
          "name": "_answerFlag",
          "type": "bool"
        },
        {
          "internalType": "uint256",
          "name": "_idAnswer",
          "type": "uint256"
        }
      ],
      "name": "newCourseForStudent",
      "outputs": [
        {
          "internalType": "bool",
          "name": "",
          "type": "bool"
        }
      ],
      "stateMutability": "nonpayable",
      "type": "function"
    },
    {
      "inputs": [
        {
          "internalType": "address",
          "name": "_adrStudent",
          "type": "address"
        },
        {
          "internalType": "uint256",
          "name": "_idCourse",
          "type": "uint256"
        },
        {
          "internalType": "uint256",
          "name": "_answerQuestion",
          "type": "uint256"
        },
        {
          "internalType": "bool",
          "name": "_answerFlag",
          "type": "bool"
        },
        {
          "internalType": "uint256",
          "name": "_idAnswer",
          "type": "uint256"
        }
      ],
      "name": "addQuestionAnswerOfCourseForStudent",
      "outputs": [
        {
          "internalType": "bool",
          "name": "",
          "type": "bool"
        }
      ],
      "stateMutability": "nonpayable",
      "type": "function"
    }
  ],
  "bytecode": "0x608060405234801561001057600080fd5b506112f4806100206000396000f3fe608060405234801561001057600080fd5b506004361061007d5760003560e01c80636a9244f41161005b5780636a9244f41461011557806371236ab01461014557806380c614a614610163578063e452e722146101935761007d565b8063045bfeb114610082578063589218f1146100b25780635d61b73b146100e2575b600080fd5b61009c60048036038101906100979190610bcd565b6101c3565b6040516100a99190610d32565b60405180910390f35b6100cc60048036038101906100c79190610e9a565b61029a565b6040516100d99190610f80565b60405180910390f35b6100fc60048036038101906100f79190610f9b565b610480565b60405161010c949392919061107b565b60405180910390f35b61012f600480360381019061012a919061112d565b6107a1565b60405161013c9190610f80565b60405180910390f35b61014d610880565b60405161015a9190610f80565b60405180910390f35b61017d6004803603810190610178919061112d565b610927565b60405161018a9190610f80565b60405180910390f35b6101ad60048036038101906101a89190610f9b565b610a16565b6040516101ba9190610f80565b60405180910390f35b6060600160008373ffffffffffffffffffffffffffffffffffffffff1673ffffffffffffffffffffffffffffffffffffffff168152602001908152602001600020805480602002602001604051908101604052809291908181526020016000905b8282101561028f578382906000526020600020906004020160405180608001604052908160008201548152602001600182015481526020016002820160009054906101000a900460ff1615151515815260200160038201548152505081526020019060010190610224565b505050509050919050565b6000336000803373ffffffffffffffffffffffffffffffffffffffff1673ffffffffffffffffffffffffffffffffffffffff16815260200190815260200160002060000160006101000a81548173ffffffffffffffffffffffffffffffffffffffff021916908373ffffffffffffffffffffffffffffffffffffffff160217905550816000803373ffffffffffffffffffffffffffffffffffffffff1673ffffffffffffffffffffffffffffffffffffffff1681526020019081526020016000206001019080519060200190610371929190610a8e565b50846000803373ffffffffffffffffffffffffffffffffffffffff1673ffffffffffffffffffffffffffffffffffffffff16815260200190815260200160002060020190805190602001906103c7929190610a8e565b50836000803373ffffffffffffffffffffffffffffffffffffffff1673ffffffffffffffffffffffffffffffffffffffff168152602001908152602001600020600301908051906020019061041d929190610a8e565b50826000803373ffffffffffffffffffffffffffffffffffffffff1673ffffffffffffffffffffffffffffffffffffffff1681526020019081526020016000206004019080519060200190610473929190610a8e565b5060019050949350505050565b6000606080606084805190602001206000803373ffffffffffffffffffffffffffffffffffffffff1673ffffffffffffffffffffffffffffffffffffffff1681526020019081526020016000206001016040516104dd91906112a7565b60405180910390200361075f57336000803373ffffffffffffffffffffffffffffffffffffffff1673ffffffffffffffffffffffffffffffffffffffff1681526020019081526020016000206002016000803373ffffffffffffffffffffffffffffffffffffffff1673ffffffffffffffffffffffffffffffffffffffff1681526020019081526020016000206003016000803373ffffffffffffffffffffffffffffffffffffffff1673ffffffffffffffffffffffffffffffffffffffff1681526020019081526020016000206004018280546105ba906111d7565b80601f01602080910402602001604051908101604052809291908181526020018280546105e6906111d7565b80156106335780601f1061060857610100808354040283529160200191610633565b820191906000526020600020905b81548152906001019060200180831161061657829003601f168201915b50505050509250818054610646906111d7565b80601f0160208091040260200160405190810160405280929190818152602001828054610672906111d7565b80156106bf5780601f10610694576101008083540402835291602001916106bf565b820191906000526020600020905b8154815290600101906020018083116106a257829003601f168201915b505050505091508080546106d2906111d7565b80601f01602080910402602001604051908101604052809291908181526020018280546106fe906111d7565b801561074b5780601f106107205761010080835404028352916020019161074b565b820191906000526020600020905b81548152906001019060200180831161072e57829003601f168201915b50505050509050935093509350935061079a565b600060405180602001604052806000815250604051806020016040528060008152506040518060200160405280600081525093509350935093505b9193509193565b60008060405180608001604052808781526020018681526020018515158152602001848152509050600160008873ffffffffffffffffffffffffffffffffffffffff1673ffffffffffffffffffffffffffffffffffffffff168152602001908152602001600020819080600181540180825580915050600190039060005260206000209060040201600090919091909150600082015181600001556020820151816001015560408201518160020160006101000a81548160ff021916908315150217905550606082015181600301555050600191505095945050505050565b60003373ffffffffffffffffffffffffffffffffffffffff166000803373ffffffffffffffffffffffffffffffffffffffff1673ffffffffffffffffffffffffffffffffffffffff16815260200190815260200160002060000160009054906101000a900473ffffffffffffffffffffffffffffffffffffffff1673ffffffffffffffffffffffffffffffffffffffff160361091f5760019050610924565b600090505b90565b6000610931610b14565b84816020018181525050838160400190151590811515815250508281606001818152505085816000018181525050600160008873ffffffffffffffffffffffffffffffffffffffff1673ffffffffffffffffffffffffffffffffffffffff168152602001908152602001600020819080600181540180825580915050600190039060005260206000209060040201600090919091909150600082015181600001556020820151816001015560408201518160020160006101000a81548160ff021916908315150217905550606082015181600301555050600191505095945050505050565b600081805190602001206000803373ffffffffffffffffffffffffffffffffffffffff1673ffffffffffffffffffffffffffffffffffffffff168152602001908152602001600020600101604051610a6e91906112a7565b604051809103902003610a845760019050610a89565b600090505b919050565b828054610a9a906111d7565b90600052602060002090601f016020900481019282610abc5760008555610b03565b82601f10610ad557805160ff1916838001178555610b03565b82800160010185558215610b03579182015b82811115610b02578251825591602001919060010190610ae7565b5b509050610b109190610b3e565b5090565b60405180608001604052806000815260200160008152602001600015158152602001600081525090565b5b80821115610b57576000816000905550600101610b3f565b5090565b6000604051905090565b600080fd5b600080fd5b600073ffffffffffffffffffffffffffffffffffffffff82169050919050565b6000610b9a82610b6f565b9050919050565b610baa81610b8f565b8114610bb557600080fd5b50565b600081359050610bc781610ba1565b92915050565b600060208284031215610be357610be2610b65565b5b6000610bf184828501610bb8565b91505092915050565b600081519050919050565b600082825260208201905092915050565b6000819050602082019050919050565b6000819050919050565b610c3981610c26565b82525050565b60008115159050919050565b610c5481610c3f565b82525050565b608082016000820151610c706000850182610c30565b506020820151610c836020850182610c30565b506040820151610c966040850182610c4b565b506060820151610ca96060850182610c30565b50505050565b6000610cbb8383610c5a565b60808301905092915050565b6000602082019050919050565b6000610cdf82610bfa565b610ce98185610c05565b9350610cf483610c16565b8060005b83811015610d25578151610d0c8882610caf565b9750610d1783610cc7565b925050600181019050610cf8565b5085935050505092915050565b60006020820190508181036000830152610d4c8184610cd4565b905092915050565b600080fd5b600080fd5b6000601f19601f8301169050919050565b7f4e487b7100000000000000000000000000000000000000000000000000000000600052604160045260246000fd5b610da782610d5e565b810181811067ffffffffffffffff82111715610dc657610dc5610d6f565b5b80604052505050565b6000610dd9610b5b565b9050610de58282610d9e565b919050565b600067ffffffffffffffff821115610e0557610e04610d6f565b5b610e0e82610d5e565b9050602081019050919050565b82818337600083830152505050565b6000610e3d610e3884610dea565b610dcf565b905082815260208101848484011115610e5957610e58610d59565b5b610e64848285610e1b565b509392505050565b600082601f830112610e8157610e80610d54565b5b8135610e91848260208601610e2a565b91505092915050565b60008060008060808587031215610eb457610eb3610b65565b5b600085013567ffffffffffffffff811115610ed257610ed1610b6a565b5b610ede87828801610e6c565b945050602085013567ffffffffffffffff811115610eff57610efe610b6a565b5b610f0b87828801610e6c565b935050604085013567ffffffffffffffff811115610f2c57610f2b610b6a565b5b610f3887828801610e6c565b925050606085013567ffffffffffffffff811115610f5957610f58610b6a565b5b610f6587828801610e6c565b91505092959194509250565b610f7a81610c3f565b82525050565b6000602082019050610f956000830184610f71565b92915050565b600060208284031215610fb157610fb0610b65565b5b600082013567ffffffffffffffff811115610fcf57610fce610b6a565b5b610fdb84828501610e6c565b91505092915050565b610fed81610b8f565b82525050565b600081519050919050565b600082825260208201905092915050565b60005b8381101561102d578082015181840152602081019050611012565b8381111561103c576000848401525b50505050565b600061104d82610ff3565b6110578185610ffe565b935061106781856020860161100f565b61107081610d5e565b840191505092915050565b60006080820190506110906000830187610fe4565b81810360208301526110a28186611042565b905081810360408301526110b68185611042565b905081810360608301526110ca8184611042565b905095945050505050565b6110de81610c26565b81146110e957600080fd5b50565b6000813590506110fb816110d5565b92915050565b61110a81610c3f565b811461111557600080fd5b50565b60008135905061112781611101565b92915050565b600080600080600060a0868803121561114957611148610b65565b5b600061115788828901610bb8565b9550506020611168888289016110ec565b9450506040611179888289016110ec565b935050606061118a88828901611118565b925050608061119b888289016110ec565b9150509295509295909350565b7f4e487b7100000000000000000000000000000000000000000000000000000000600052602260045260246000fd5b600060028204905060018216806111ef57607f821691505b602082108103611202576112016111a8565b5b50919050565b600081905092915050565b60008190508160005260206000209050919050565b60008154611235816111d7565b61123f8186611208565b9450600182166000811461125a576001811461126b5761129e565b60ff1983168652818601935061129e565b61127485611213565b60005b8381101561129657815481890152600182019150602081019050611277565b838801955050505b50505092915050565b60006112b38284611228565b91508190509291505056fea2646970667358221220a48542b9424d38a110e18d711b9d86cdcc645feaa05955c812a45710b19fe2ef64736f6c634300080d0033",
  "immutableReferences": {},
  "source": "pragma solidity 0.8.13;\r\n\r\ncontract Authentication {\r\n\r\n    struct QuestionAnswer {\r\n        uint idCourse;\r\n        uint idQuestionAnswer;\r\n        bool answerFlag;\r\n        uint idAnswer;\r\n    }\r\n\r\n    struct User{\r\n        address addressAccount;\r\n        string password;\r\n        string firstName;\r\n        string familyName;\r\n        string typeUser;\r\n    }\r\n\r\n    mapping(address => User) private users;\r\n    mapping(address => QuestionAnswer[]) private questionsAnswers;\r\n\r\n    constructor () {\r\n\r\n    }\r\n\r\n    //    Users ---------------------------------------------------------\r\n\r\n    function signUp(string memory _firstName, string memory _familyName, string memory _typeUser, string memory _password)\r\n    public returns (bool) {\r\n        users[msg.sender].addressAccount = msg.sender;\r\n        users[msg.sender].password = _password;\r\n        users[msg.sender].firstName = _firstName;\r\n        users[msg.sender].familyName = _familyName;\r\n        users[msg.sender].typeUser = _typeUser;\r\n        return true;\r\n    }\r\n\r\n    function areYouAlreadySignUp() public view returns (bool) {\r\n        if(users[msg.sender].addressAccount == msg.sender) return true;\r\n        return false;\r\n    }\r\n\r\n    function doesPasswordCorrect(string memory _password) public view returns (bool) {\r\n        if(keccak256(bytes(users[msg.sender].password)) == keccak256(bytes(_password))) return true;\r\n        return false;\r\n    }\r\n\r\n    function logIn(string memory _password) public view returns(address, string memory, string memory, string memory) {\r\n        if(keccak256(bytes(users[msg.sender].password)) == keccak256(bytes(_password))) {\r\n            return (msg.sender, users[msg.sender].firstName, users[msg.sender].familyName, users[msg.sender].typeUser);\r\n        }\r\n        return (address(0), \"\", \"\", \"\");\r\n    }\r\n\r\n    //    Courses ---------------------------------------------------------\r\n\r\n    function getCoursesOfStudent(address _idStudent) public view returns(QuestionAnswer[] memory){\r\n        return questionsAnswers[_idStudent];\r\n    }\r\n\r\n    function newCourseForStudent(address _adrStudent, uint _idCourse, uint _idAnswerQuestion, bool _answerFlag, uint _idAnswer) public returns (bool) {\r\n        QuestionAnswer memory questionAnswer;\r\n        questionAnswer.idQuestionAnswer = _idAnswerQuestion;\r\n        questionAnswer.answerFlag = _answerFlag;\r\n        questionAnswer.idAnswer = _idAnswer;\r\n        questionAnswer.idCourse = _idCourse;\r\n        questionsAnswers[_adrStudent].push(questionAnswer);\r\n        return true;\r\n    }\r\n\r\n    function addQuestionAnswerOfCourseForStudent(address _adrStudent, uint _idCourse, uint _answerQuestion, bool _answerFlag, uint _idAnswer) public returns (bool) {\r\n        QuestionAnswer memory questionAnswer = QuestionAnswer(_idCourse, _answerQuestion, _answerFlag, _idAnswer);\r\n        questionsAnswers[_adrStudent].push(questionAnswer);\r\n        return true;\r\n    }\r\n}\r\n",
  "sourcePath": "C:\\Users\\Baghdad\\Desktop\\MyFutur\\walid-project\\contracts\\Authentication.sol",
  "compiler": {
    "name": "solc",
    "version": "0.8.13+commit.abaa5c0e.Emscripten.clang"
  },
  "schemaVersion": "3.4.7",
  "updatedAt": "2022-05-16T22:14:30.097Z",
  "networkType": "ethereum",
  "devdoc": {
    "kind": "dev",
    "methods": {},
    "version": 1
  },
  "userdoc": {
    "kind": "user",
    "methods": {},
    "version": 1
  }
}