{
  "contractName": "Authentication",
  "abi": [
    {
      "inputs": [],
      "stateMutability": "nonpayable",
      "type": "constructor"
    },
    {
      "inputs": [
        {
          "internalType": "string",
          "name": "_firstName",
          "type": "string"
        },
        {
          "internalType": "string",
          "name": "_familyName",
          "type": "string"
        },
        {
          "internalType": "string",
          "name": "_typeUser",
          "type": "string"
        },
        {
          "internalType": "string",
          "name": "_password",
          "type": "string"
        }
      ],
      "name": "signUp",
      "outputs": [
        {
          "internalType": "bool",
          "name": "",
          "type": "bool"
        }
      ],
      "stateMutability": "nonpayable",
      "type": "function"
    },
    {
      "inputs": [],
      "name": "areYouAlreadySignUp",
      "outputs": [
        {
          "internalType": "bool",
          "name": "",
          "type": "bool"
        }
      ],
      "stateMutability": "view",
      "type": "function",
      "constant": true
    },
    {
      "inputs": [
        {
          "internalType": "string",
          "name": "_password",
          "type": "string"
        }
      ],
      "name": "doesPasswordCorrect",
      "outputs": [
        {
          "internalType": "bool",
          "name": "",
          "type": "bool"
        }
      ],
      "stateMutability": "view",
      "type": "function",
      "constant": true
    },
    {
      "inputs": [
        {
          "internalType": "string",
          "name": "_password",
          "type": "string"
        }
      ],
      "name": "logIn",
      "outputs": [
        {
          "internalType": "address",
          "name": "",
          "type": "address"
        },
        {
          "internalType": "string",
          "name": "",
          "type": "string"
        },
        {
          "internalType": "string",
          "name": "",
          "type": "string"
        },
        {
          "internalType": "string",
          "name": "",
          "type": "string"
        }
      ],
      "stateMutability": "view",
      "type": "function",
      "constant": true
    },
    {
      "inputs": [
        {
          "internalType": "uint256",
          "name": "_idCourse",
          "type": "uint256"
        }
      ],
      "name": "ifCourseExistsForStudent",
      "outputs": [
        {
          "internalType": "bool",
          "name": "",
          "type": "bool"
        }
      ],
      "stateMutability": "view",
      "type": "function",
      "constant": true
    },
    {
      "inputs": [
        {
          "internalType": "uint256",
          "name": "_idCourse",
          "type": "uint256"
        },
        {
          "internalType": "uint256[]",
          "name": "_idQuestions",
          "type": "uint256[]"
        },
        {
          "internalType": "uint256[]",
          "name": "_idAnswers",
          "type": "uint256[]"
        }
      ],
      "name": "addNewCourseToStudent",
      "outputs": [
        {
          "internalType": "bool",
          "name": "_success",
          "type": "bool"
        }
      ],
      "stateMutability": "nonpayable",
      "type": "function"
    },
    {
      "inputs": [
        {
          "internalType": "uint256",
          "name": "_idCourse",
          "type": "uint256"
        }
      ],
      "name": "getQuestionsAnswersOfCourseForStudent",
      "outputs": [
        {
          "components": [
            {
              "internalType": "uint256",
              "name": "idQuestion",
              "type": "uint256"
            },
            {
              "internalType": "uint256",
              "name": "idAnswer",
              "type": "uint256"
            }
          ],
          "internalType": "struct Authentication.QuestionAnswer[]",
          "name": "",
          "type": "tuple[]"
        }
      ],
      "stateMutability": "view",
      "type": "function",
      "constant": true
    },
    {
      "inputs": [],
      "name": "getIdCoursesOfStudent",
      "outputs": [
        {
          "internalType": "uint256[]",
          "name": "",
          "type": "uint256[]"
        }
      ],
      "stateMutability": "view",
      "type": "function",
      "constant": true
    }
  ],
  "bytecode": "0x608060405234801561001057600080fd5b506115b5806100206000396000f3fe608060405234801561001057600080fd5b50600436106100885760003560e01c80636c62bfad1161005b5780636c62bfad1461013e57806371236ab01461016e578063e146de351461018c578063e452e722146101bc57610088565b806327b0c6fb1461008d578063589218f1146100bd5780635d61b73b146100ed57806362daa86d14610120575b600080fd5b6100a760048036038101906100a29190610ca4565b6101ec565b6040516100b49190610dbe565b60405180910390f35b6100d760048036038101906100d29190610f26565b6102af565b6040516100e49190611018565b60405180910390f35b61010760048036038101906101029190611033565b610495565b6040516101179493929190611145565b60405180910390f35b6101286107b6565b604051610135919061124e565b60405180910390f35b61015860048036038101906101539190610ca4565b61084b565b6040516101659190611018565b60405180910390f35b610176610927565b6040516101839190611018565b60405180910390f35b6101a660048036038101906101a19190611338565b6109ce565b6040516101b39190611018565b60405180910390f35b6101d660048036038101906101d19190611033565b610b3f565b6040516101e39190611018565b60405180910390f35b6060600260003373ffffffffffffffffffffffffffffffffffffffff1673ffffffffffffffffffffffffffffffffffffffff1681526020019081526020016000206000838152602001908152602001600020805480602002602001604051908101604052809291908181526020016000905b828210156102a45783829060005260206000209060020201604051806040016040529081600082015481526020016001820154815250508152602001906001019061025e565b505050509050919050565b6000336000803373ffffffffffffffffffffffffffffffffffffffff1673ffffffffffffffffffffffffffffffffffffffff16815260200190815260200160002060000160006101000a81548173ffffffffffffffffffffffffffffffffffffffff021916908373ffffffffffffffffffffffffffffffffffffffff160217905550816000803373ffffffffffffffffffffffffffffffffffffffff1673ffffffffffffffffffffffffffffffffffffffff1681526020019081526020016000206001019080519060200190610386929190610bb7565b50846000803373ffffffffffffffffffffffffffffffffffffffff1673ffffffffffffffffffffffffffffffffffffffff16815260200190815260200160002060020190805190602001906103dc929190610bb7565b50836000803373ffffffffffffffffffffffffffffffffffffffff1673ffffffffffffffffffffffffffffffffffffffff1681526020019081526020016000206003019080519060200190610432929190610bb7565b50826000803373ffffffffffffffffffffffffffffffffffffffff1673ffffffffffffffffffffffffffffffffffffffff1681526020019081526020016000206004019080519060200190610488929190610bb7565b5060019050949350505050565b6000606080606084805190602001206000803373ffffffffffffffffffffffffffffffffffffffff1673ffffffffffffffffffffffffffffffffffffffff1681526020019081526020016000206001016040516104f291906114c2565b60405180910390200361077457336000803373ffffffffffffffffffffffffffffffffffffffff1673ffffffffffffffffffffffffffffffffffffffff1681526020019081526020016000206002016000803373ffffffffffffffffffffffffffffffffffffffff1673ffffffffffffffffffffffffffffffffffffffff1681526020019081526020016000206003016000803373ffffffffffffffffffffffffffffffffffffffff1673ffffffffffffffffffffffffffffffffffffffff1681526020019081526020016000206004018280546105cf906113f2565b80601f01602080910402602001604051908101604052809291908181526020018280546105fb906113f2565b80156106485780601f1061061d57610100808354040283529160200191610648565b820191906000526020600020905b81548152906001019060200180831161062b57829003601f168201915b5050505050925081805461065b906113f2565b80601f0160208091040260200160405190810160405280929190818152602001828054610687906113f2565b80156106d45780601f106106a9576101008083540402835291602001916106d4565b820191906000526020600020905b8154815290600101906020018083116106b757829003601f168201915b505050505091508080546106e7906113f2565b80601f0160208091040260200160405190810160405280929190818152602001828054610713906113f2565b80156107605780601f1061073557610100808354040283529160200191610760565b820191906000526020600020905b81548152906001019060200180831161074357829003601f168201915b5050505050905093509350935093506107af565b600060405180602001604052806000815250604051806020016040528060008152506040518060200160405280600081525093509350935093505b9193509193565b6060600160003373ffffffffffffffffffffffffffffffffffffffff1673ffffffffffffffffffffffffffffffffffffffff16815260200190815260200160002080548060200260200160405190810160405280929190818152602001828054801561084157602002820191906000526020600020905b81548152602001906001019080831161082d575b5050505050905090565b600080600090505b600160003373ffffffffffffffffffffffffffffffffffffffff1673ffffffffffffffffffffffffffffffffffffffff1681526020019081526020016000208054905081101561091c5782600160003373ffffffffffffffffffffffffffffffffffffffff1673ffffffffffffffffffffffffffffffffffffffff16815260200190815260200160002082815481106108ef576108ee6114d9565b5b906000526020600020015403610909576001915050610922565b808061091490611537565b915050610853565b50600090505b919050565b60003373ffffffffffffffffffffffffffffffffffffffff166000803373ffffffffffffffffffffffffffffffffffffffff1673ffffffffffffffffffffffffffffffffffffffff16815260200190815260200160002060000160009054906101000a900473ffffffffffffffffffffffffffffffffffffffff1673ffffffffffffffffffffffffffffffffffffffff16036109c657600190506109cb565b600090505b90565b6000600160003373ffffffffffffffffffffffffffffffffffffffff1673ffffffffffffffffffffffffffffffffffffffff16815260200190815260200160002084908060018154018082558091505060019003906000526020600020016000909190919091505560005b8351811015610b335760006040518060400160405280868481518110610a6257610a616114d9565b5b60200260200101518152602001858481518110610a8257610a816114d9565b5b60200260200101518152509050600260003373ffffffffffffffffffffffffffffffffffffffff1673ffffffffffffffffffffffffffffffffffffffff168152602001908152602001600020600087815260200190815260200160002081908060018154018082558091505060019003906000526020600020906002020160009091909190915060008201518160000155602082015181600101555050508080610b2b90611537565b915050610a39565b50600190509392505050565b600081805190602001206000803373ffffffffffffffffffffffffffffffffffffffff1673ffffffffffffffffffffffffffffffffffffffff168152602001908152602001600020600101604051610b9791906114c2565b604051809103902003610bad5760019050610bb2565b600090505b919050565b828054610bc3906113f2565b90600052602060002090601f016020900481019282610be55760008555610c2c565b82601f10610bfe57805160ff1916838001178555610c2c565b82800160010185558215610c2c579182015b82811115610c2b578251825591602001919060010190610c10565b5b509050610c399190610c3d565b5090565b5b80821115610c56576000816000905550600101610c3e565b5090565b6000604051905090565b600080fd5b600080fd5b6000819050919050565b610c8181610c6e565b8114610c8c57600080fd5b50565b600081359050610c9e81610c78565b92915050565b600060208284031215610cba57610cb9610c64565b5b6000610cc884828501610c8f565b91505092915050565b600081519050919050565b600082825260208201905092915050565b6000819050602082019050919050565b610d0681610c6e565b82525050565b604082016000820151610d226000850182610cfd565b506020820151610d356020850182610cfd565b50505050565b6000610d478383610d0c565b60408301905092915050565b6000602082019050919050565b6000610d6b82610cd1565b610d758185610cdc565b9350610d8083610ced565b8060005b83811015610db1578151610d988882610d3b565b9750610da383610d53565b925050600181019050610d84565b5085935050505092915050565b60006020820190508181036000830152610dd88184610d60565b905092915050565b600080fd5b600080fd5b6000601f19601f8301169050919050565b7f4e487b7100000000000000000000000000000000000000000000000000000000600052604160045260246000fd5b610e3382610dea565b810181811067ffffffffffffffff82111715610e5257610e51610dfb565b5b80604052505050565b6000610e65610c5a565b9050610e718282610e2a565b919050565b600067ffffffffffffffff821115610e9157610e90610dfb565b5b610e9a82610dea565b9050602081019050919050565b82818337600083830152505050565b6000610ec9610ec484610e76565b610e5b565b905082815260208101848484011115610ee557610ee4610de5565b5b610ef0848285610ea7565b509392505050565b600082601f830112610f0d57610f0c610de0565b5b8135610f1d848260208601610eb6565b91505092915050565b60008060008060808587031215610f4057610f3f610c64565b5b600085013567ffffffffffffffff811115610f5e57610f5d610c69565b5b610f6a87828801610ef8565b945050602085013567ffffffffffffffff811115610f8b57610f8a610c69565b5b610f9787828801610ef8565b935050604085013567ffffffffffffffff811115610fb857610fb7610c69565b5b610fc487828801610ef8565b925050606085013567ffffffffffffffff811115610fe557610fe4610c69565b5b610ff187828801610ef8565b91505092959194509250565b60008115159050919050565b61101281610ffd565b82525050565b600060208201905061102d6000830184611009565b92915050565b60006020828403121561104957611048610c64565b5b600082013567ffffffffffffffff81111561106757611066610c69565b5b61107384828501610ef8565b91505092915050565b600073ffffffffffffffffffffffffffffffffffffffff82169050919050565b60006110a78261107c565b9050919050565b6110b78161109c565b82525050565b600081519050919050565b600082825260208201905092915050565b60005b838110156110f75780820151818401526020810190506110dc565b83811115611106576000848401525b50505050565b6000611117826110bd565b61112181856110c8565b93506111318185602086016110d9565b61113a81610dea565b840191505092915050565b600060808201905061115a60008301876110ae565b818103602083015261116c818661110c565b90508181036040830152611180818561110c565b90508181036060830152611194818461110c565b905095945050505050565b600081519050919050565b600082825260208201905092915050565b6000819050602082019050919050565b60006111d78383610cfd565b60208301905092915050565b6000602082019050919050565b60006111fb8261119f565b61120581856111aa565b9350611210836111bb565b8060005b8381101561124157815161122888826111cb565b9750611233836111e3565b925050600181019050611214565b5085935050505092915050565b6000602082019050818103600083015261126881846111f0565b905092915050565b600067ffffffffffffffff82111561128b5761128a610dfb565b5b602082029050602081019050919050565b600080fd5b60006112b46112af84611270565b610e5b565b905080838252602082019050602084028301858111156112d7576112d661129c565b5b835b8181101561130057806112ec8882610c8f565b8452602084019350506020810190506112d9565b5050509392505050565b600082601f83011261131f5761131e610de0565b5b813561132f8482602086016112a1565b91505092915050565b60008060006060848603121561135157611350610c64565b5b600061135f86828701610c8f565b935050602084013567ffffffffffffffff8111156113805761137f610c69565b5b61138c8682870161130a565b925050604084013567ffffffffffffffff8111156113ad576113ac610c69565b5b6113b98682870161130a565b9150509250925092565b7f4e487b7100000000000000000000000000000000000000000000000000000000600052602260045260246000fd5b6000600282049050600182168061140a57607f821691505b60208210810361141d5761141c6113c3565b5b50919050565b600081905092915050565b60008190508160005260206000209050919050565b60008154611450816113f2565b61145a8186611423565b945060018216600081146114755760018114611486576114b9565b60ff198316865281860193506114b9565b61148f8561142e565b60005b838110156114b157815481890152600182019150602081019050611492565b838801955050505b50505092915050565b60006114ce8284611443565b915081905092915050565b7f4e487b7100000000000000000000000000000000000000000000000000000000600052603260045260246000fd5b7f4e487b7100000000000000000000000000000000000000000000000000000000600052601160045260246000fd5b600061154282610c6e565b91507fffffffffffffffffffffffffffffffffffffffffffffffffffffffffffffffff820361157457611573611508565b5b60018201905091905056fea2646970667358221220012a776a8726523ed956f4dac094ee6043a62d5b2e84f539c15c8851d90dfc0064736f6c634300080d0033",
  "immutableReferences": {},
  "source": "pragma solidity 0.8.13;\r\n\r\ncontract Authentication {\r\n\r\n    struct QuestionAnswer {\r\n        uint idQuestion;\r\n        uint idAnswer;\r\n    }\r\n\r\n    struct User{\r\n        address addressAccount;\r\n        string password;\r\n        string firstName;\r\n        string familyName;\r\n        string typeUser;\r\n    }\r\n\r\n    mapping (address => User) private users;\r\n    mapping (address => uint[]) private keysCourses;\r\n    mapping (address => mapping (uint => QuestionAnswer[])) private questionsAnswers;\r\n\r\n    constructor () {\r\n\r\n    }\r\n\r\n    //    Users ---------------------------------------------------------\r\n\r\n    function signUp(string memory _firstName, string memory _familyName, string memory _typeUser, string memory _password)\r\n    public returns (bool) {\r\n        users[msg.sender].addressAccount = msg.sender;\r\n        users[msg.sender].password = _password;\r\n        users[msg.sender].firstName = _firstName;\r\n        users[msg.sender].familyName = _familyName;\r\n        users[msg.sender].typeUser = _typeUser;\r\n        return true;\r\n    }\r\n\r\n    function areYouAlreadySignUp() public view returns (bool) {\r\n        if(users[msg.sender].addressAccount == msg.sender) return true;\r\n        return false;\r\n    }\r\n\r\n    function doesPasswordCorrect(string memory _password) public view returns (bool) {\r\n        if(keccak256(bytes(users[msg.sender].password)) == keccak256(bytes(_password))) return true;\r\n        return false;\r\n    }\r\n\r\n    function logIn(string memory _password) public view returns(address, string memory, string memory, string memory) {\r\n        if(keccak256(bytes(users[msg.sender].password)) == keccak256(bytes(_password))) {\r\n            return (msg.sender, users[msg.sender].firstName, users[msg.sender].familyName, users[msg.sender].typeUser);\r\n        }\r\n        return (address(0), \"\", \"\", \"\");\r\n    }\r\n\r\n    //    Courses ---------------------------------------------------------\r\n\r\n    function ifCourseExistsForStudent(uint _idCourse) public view returns(bool){\r\n        for(uint i = 0; i < keysCourses[msg.sender].length; i++){\r\n            if(keysCourses[msg.sender][i] == _idCourse) return true;\r\n        }\r\n        return false;\r\n    }\r\n\r\n    function addNewCourseToStudent(uint _idCourse, uint[] memory _idQuestions, uint[] memory _idAnswers) public returns(bool _success){\r\n        keysCourses[msg.sender].push(_idCourse);\r\n        for(uint i = 0; i < _idQuestions.length; i++){\r\n            QuestionAnswer memory questionAnswer = QuestionAnswer({idQuestion: _idQuestions[i], idAnswer: _idAnswers[i]});\r\n            questionsAnswers[msg.sender][_idCourse].push(questionAnswer);\r\n        }\r\n        return true;\r\n    }\r\n\r\n    function getQuestionsAnswersOfCourseForStudent(uint _idCourse) public view returns(QuestionAnswer[] memory){\r\n        return questionsAnswers[msg.sender][_idCourse];\r\n    }\r\n\r\n    function getIdCoursesOfStudent() public view returns(uint[] memory){\r\n        return keysCourses[msg.sender];\r\n    }\r\n}\r\n",
  "sourcePath": "C:\\Users\\Baghdad\\Desktop\\MyFutur\\walid-project\\contracts\\Authentication.sol",
  "compiler": {
    "name": "solc",
    "version": "0.8.13+commit.abaa5c0e.Emscripten.clang"
  },
  "schemaVersion": "3.4.7",
  "updatedAt": "2022-05-26T15:31:01.190Z",
  "networkType": "ethereum",
  "devdoc": {
    "kind": "dev",
    "methods": {},
    "version": 1
  },
  "userdoc": {
    "kind": "user",
    "methods": {},
    "version": 1
  }
}