{
  "contractName": "Authentication",
  "abi": [
    {
      "inputs": [],
      "stateMutability": "nonpayable",
      "type": "constructor"
    },
    {
      "anonymous": false,
      "inputs": [
        {
          "indexed": false,
          "internalType": "string",
          "name": "firstName",
          "type": "string"
        },
        {
          "indexed": false,
          "internalType": "string",
          "name": "familyName",
          "type": "string"
        },
        {
          "indexed": false,
          "internalType": "string",
          "name": "typeUser",
          "type": "string"
        }
      ],
      "name": "EventSignUp",
      "type": "event"
    },
    {
      "inputs": [
        {
          "internalType": "string",
          "name": "_firstName",
          "type": "string"
        },
        {
          "internalType": "string",
          "name": "_familyName",
          "type": "string"
        },
        {
          "internalType": "string",
          "name": "_typeUser",
          "type": "string"
        },
        {
          "internalType": "string",
          "name": "_password",
          "type": "string"
        }
      ],
      "name": "signUp",
      "outputs": [
        {
          "internalType": "bool",
          "name": "",
          "type": "bool"
        }
      ],
      "stateMutability": "nonpayable",
      "type": "function"
    },
    {
      "inputs": [
        {
          "internalType": "string",
          "name": "_password",
          "type": "string"
        }
      ],
      "name": "logIn",
      "outputs": [
        {
          "internalType": "string",
          "name": "",
          "type": "string"
        },
        {
          "internalType": "address",
          "name": "",
          "type": "address"
        },
        {
          "internalType": "string",
          "name": "",
          "type": "string"
        },
        {
          "internalType": "string",
          "name": "",
          "type": "string"
        },
        {
          "internalType": "string",
          "name": "",
          "type": "string"
        }
      ],
      "stateMutability": "view",
      "type": "function",
      "constant": true
    },
    {
      "inputs": [],
      "name": "test",
      "outputs": [
        {
          "internalType": "string",
          "name": "",
          "type": "string"
        }
      ],
      "stateMutability": "view",
      "type": "function",
      "constant": true
    }
  ],
  "bytecode": "0x608060405234801561001057600080fd5b50610c28806100206000396000f3fe608060405234801561001057600080fd5b50600436106100415760003560e01c8063589218f1146100465780635d61b73b14610076578063f8a8fd6d146100aa575b600080fd5b610060600480360381019061005b9190610875565b6100c8565b60405161006d9190610967565b60405180910390f35b610090600480360381019061008b9190610982565b6102ae565b6040516100a1959493929190610a94565b60405180910390f35b6100b261063b565b6040516100bf9190610b03565b60405180910390f35b6000336000803373ffffffffffffffffffffffffffffffffffffffff1673ffffffffffffffffffffffffffffffffffffffff16815260200190815260200160002060000160006101000a81548173ffffffffffffffffffffffffffffffffffffffff021916908373ffffffffffffffffffffffffffffffffffffffff160217905550816000803373ffffffffffffffffffffffffffffffffffffffff1673ffffffffffffffffffffffffffffffffffffffff168152602001908152602001600020600101908051906020019061019f929190610678565b50846000803373ffffffffffffffffffffffffffffffffffffffff1673ffffffffffffffffffffffffffffffffffffffff16815260200190815260200160002060020190805190602001906101f5929190610678565b50836000803373ffffffffffffffffffffffffffffffffffffffff1673ffffffffffffffffffffffffffffffffffffffff168152602001908152602001600020600301908051906020019061024b929190610678565b50826000803373ffffffffffffffffffffffffffffffffffffffff1673ffffffffffffffffffffffffffffffffffffffff16815260200190815260200160002060040190805190602001906102a1929190610678565b5060019050949350505050565b6060600060608060603373ffffffffffffffffffffffffffffffffffffffff166000803373ffffffffffffffffffffffffffffffffffffffff1673ffffffffffffffffffffffffffffffffffffffff16815260200190815260200160002060000160009054906101000a900473ffffffffffffffffffffffffffffffffffffffff1673ffffffffffffffffffffffffffffffffffffffff1614610386576040517f08c379a000000000000000000000000000000000000000000000000000000000815260040161037d90610b71565b60405180910390fd5b336000803373ffffffffffffffffffffffffffffffffffffffff1673ffffffffffffffffffffffffffffffffffffffff1681526020019081526020016000206002016000803373ffffffffffffffffffffffffffffffffffffffff1673ffffffffffffffffffffffffffffffffffffffff1681526020019081526020016000206003016000803373ffffffffffffffffffffffffffffffffffffffff1673ffffffffffffffffffffffffffffffffffffffff1681526020019081526020016000206004016040518060400160405280600481526020017f74727565000000000000000000000000000000000000000000000000000000008152509392919082805461049090610bc0565b80601f01602080910402602001604051908101604052809291908181526020018280546104bc90610bc0565b80156105095780601f106104de57610100808354040283529160200191610509565b820191906000526020600020905b8154815290600101906020018083116104ec57829003601f168201915b5050505050925081805461051c90610bc0565b80601f016020809104026020016040519081016040528092919081815260200182805461054890610bc0565b80156105955780601f1061056a57610100808354040283529160200191610595565b820191906000526020600020905b81548152906001019060200180831161057857829003601f168201915b505050505091508080546105a890610bc0565b80601f01602080910402602001604051908101604052809291908181526020018280546105d490610bc0565b80156106215780601f106105f657610100808354040283529160200191610621565b820191906000526020600020905b81548152906001019060200180831161060457829003601f168201915b505050505090509450945094509450945091939590929450565b60606040518060400160405280600f81526020017f42616768646164206361207661203f0000000000000000000000000000000000815250905090565b82805461068490610bc0565b90600052602060002090601f0160209004810192826106a657600085556106ed565b82601f106106bf57805160ff19168380011785556106ed565b828001600101855582156106ed579182015b828111156106ec5782518255916020019190600101906106d1565b5b5090506106fa91906106fe565b5090565b5b808211156107175760008160009055506001016106ff565b5090565b6000604051905090565b600080fd5b600080fd5b600080fd5b600080fd5b6000601f19601f8301169050919050565b7f4e487b7100000000000000000000000000000000000000000000000000000000600052604160045260246000fd5b61078282610739565b810181811067ffffffffffffffff821117156107a1576107a061074a565b5b80604052505050565b60006107b461071b565b90506107c08282610779565b919050565b600067ffffffffffffffff8211156107e0576107df61074a565b5b6107e982610739565b9050602081019050919050565b82818337600083830152505050565b6000610818610813846107c5565b6107aa565b90508281526020810184848401111561083457610833610734565b5b61083f8482856107f6565b509392505050565b600082601f83011261085c5761085b61072f565b5b813561086c848260208601610805565b91505092915050565b6000806000806080858703121561088f5761088e610725565b5b600085013567ffffffffffffffff8111156108ad576108ac61072a565b5b6108b987828801610847565b945050602085013567ffffffffffffffff8111156108da576108d961072a565b5b6108e687828801610847565b935050604085013567ffffffffffffffff8111156109075761090661072a565b5b61091387828801610847565b925050606085013567ffffffffffffffff8111156109345761093361072a565b5b61094087828801610847565b91505092959194509250565b60008115159050919050565b6109618161094c565b82525050565b600060208201905061097c6000830184610958565b92915050565b60006020828403121561099857610997610725565b5b600082013567ffffffffffffffff8111156109b6576109b561072a565b5b6109c284828501610847565b91505092915050565b600081519050919050565b600082825260208201905092915050565b60005b83811015610a055780820151818401526020810190506109ea565b83811115610a14576000848401525b50505050565b6000610a25826109cb565b610a2f81856109d6565b9350610a3f8185602086016109e7565b610a4881610739565b840191505092915050565b600073ffffffffffffffffffffffffffffffffffffffff82169050919050565b6000610a7e82610a53565b9050919050565b610a8e81610a73565b82525050565b600060a0820190508181036000830152610aae8188610a1a565b9050610abd6020830187610a85565b8181036040830152610acf8186610a1a565b90508181036060830152610ae38185610a1a565b90508181036080830152610af78184610a1a565b90509695505050505050565b60006020820190508181036000830152610b1d8184610a1a565b905092915050565b7f596f752068617665206465207369676e20757020666972737400000000000000600082015250565b6000610b5b6019836109d6565b9150610b6682610b25565b602082019050919050565b60006020820190508181036000830152610b8a81610b4e565b9050919050565b7f4e487b7100000000000000000000000000000000000000000000000000000000600052602260045260246000fd5b60006002820490506001821680610bd857607f821691505b60208210811415610bec57610beb610b91565b5b5091905056fea2646970667358221220fa6c87a189b8bafd5ea7515501e6f7dda280483435c28b16a288cf1f7ae1101364736f6c63430008090033",
  "immutableReferences": {},
  "source": "pragma solidity 0.8.9;\r\n\r\n//library StringUtils {\r\n//    /// @dev Does a byte-by-byte lexicographical comparison of two strings.\r\n//    /// @return a negative number if `_a` is smaller, zero if they are equal\r\n//    /// and a positive numbe if `_b` is smaller.\r\n//    function compare(string _a, string _b) returns (int) {\r\n//        bytes memory a = bytes(_a);\r\n//        bytes memory b = bytes(_b);\r\n//        uint minLength = a.length;\r\n//        if (b.length < minLength) minLength = b.length;\r\n//        //@todo unroll the loop into increments of 32 and do full 32 byte comparisons\r\n//        for (uint i = 0; i < minLength; i ++)\r\n//            if (a[i] < b[i])\r\n//                return -1;\r\n//            else if (a[i] > b[i])\r\n//                return 1;\r\n//        if (a.length < b.length)\r\n//            return -1;\r\n//        else if (a.length > b.length)\r\n//            return 1;\r\n//        else\r\n//            return 0;\r\n//    }\r\n//    /// @dev Compares two strings and returns true iff they are equal.\r\n//    function equal(string _a, string _b) returns (bool) {\r\n//        return compare(_a, _b) == 0;\r\n//    }\r\n//    /// @dev Finds the index of the first occurrence of _needle in _haystack\r\n//    function indexOf(string _haystack, string _needle) returns (int)\r\n//    {\r\n//        bytes memory h = bytes(_haystack);\r\n//        bytes memory n = bytes(_needle);\r\n//        if(h.length < 1 || n.length < 1 || (n.length > h.length))\r\n//            return -1;\r\n//        else if(h.length > (2**128 -1)) // since we have to be able to return -1 (if the char isn't found or input error), this function must return an \"int\" type with a max length of (2^128 - 1)\r\n//            return -1;\r\n//        else\r\n//        {\r\n//            uint subindex = 0;\r\n//            for (uint i = 0; i < h.length; i ++)\r\n//            {\r\n//                if (h[i] == n[0]) // found the first char of b\r\n//                {\r\n//                    subindex = 1;\r\n//                    while(subindex < n.length && (i + subindex) < h.length && h[i + subindex] == n[subindex]) // search until the chars don't match or until we reach the end of a or b\r\n//                    {\r\n//                        subindex++;\r\n//                    }\r\n//                    if(subindex == n.length)\r\n//                        return int(i);\r\n//                }\r\n//            }\r\n//            return -1;\r\n//        }\r\n//    }\r\n//}\r\n\r\ncontract Authentication {\r\n\r\n    struct User{\r\n        address addressAccount;\r\n        string password;\r\n        string firstName;\r\n        string familyName;\r\n        string typeUser;\r\n    }\r\n\r\n    mapping(address => User) private users;\r\n\r\n    modifier youCanSignUp() {\r\n        require(users[msg.sender].addressAccount != msg.sender, \"You're already signed up\");\r\n        _;\r\n    }\r\n    modifier youCanLogIn() {\r\n        require(users[msg.sender].addressAccount == msg.sender, \"You have de sign up first\");\r\n        _;\r\n    }\r\n\r\n    event EventSignUp(\r\n        string firstName,\r\n        string familyName,\r\n        string typeUser\r\n    );\r\n\r\n    constructor () {\r\n\r\n    }\r\n\r\n    function signUp(string memory _firstName, string memory _familyName, string memory _typeUser, string memory _password)\r\n    public returns (bool) {\r\n        users[msg.sender].addressAccount = msg.sender;\r\n        users[msg.sender].password = _password;\r\n        users[msg.sender].firstName = _firstName;\r\n        users[msg.sender].familyName = _familyName;\r\n        users[msg.sender].typeUser = _typeUser;\r\n        return true;\r\n    }\r\n\r\n    function logIn(string memory _password) public view youCanLogIn() returns(string memory, address, string memory, string memory, string memory) {\r\n//        if(StringUtils.equal(users[msg.sender].password, _password)) return (\"\", msg.sender, users[msg.sender].firstName, users[msg.sender].familyName, users[msg.sender].typeUser);\r\n//        return (\"Incorrect password\", msg.sender, \"\", \"\", \"\");\r\n        return (\"true\", msg.sender, users[msg.sender].firstName, users[msg.sender].familyName, users[msg.sender].typeUser);\r\n    }\r\n\r\n    function test() public view returns(string memory) {\r\n        return (\"Baghdad ca va ?\");\r\n    }\r\n}\r\n",
  "sourcePath": "C:\\Users\\Baghdad\\Desktop\\MyFutur\\walid-project\\contracts\\Authentication.sol",
  "compiler": {
    "name": "solc",
    "version": "0.8.9+commit.e5eed63a.Emscripten.clang"
  },
  "schemaVersion": "3.4.7",
  "updatedAt": "2022-05-11T22:44:46.368Z",
  "networkType": "ethereum",
  "devdoc": {
    "kind": "dev",
    "methods": {},
    "version": 1
  },
  "userdoc": {
    "kind": "user",
    "methods": {},
    "version": 1
  }
}