{
  "contractName": "Authentication",
  "abi": [
    {
      "inputs": [],
      "stateMutability": "nonpayable",
      "type": "constructor"
    },
    {
      "inputs": [
        {
          "internalType": "string",
          "name": "_firstName",
          "type": "string"
        },
        {
          "internalType": "string",
          "name": "_familyName",
          "type": "string"
        },
        {
          "internalType": "string",
          "name": "_typeUser",
          "type": "string"
        },
        {
          "internalType": "string",
          "name": "_password",
          "type": "string"
        }
      ],
      "name": "signUp",
      "outputs": [
        {
          "internalType": "bool",
          "name": "",
          "type": "bool"
        }
      ],
      "stateMutability": "nonpayable",
      "type": "function"
    },
    {
      "inputs": [],
      "name": "areYouAlreadySignUp",
      "outputs": [
        {
          "internalType": "bool",
          "name": "",
          "type": "bool"
        }
      ],
      "stateMutability": "view",
      "type": "function",
      "constant": true
    },
    {
      "inputs": [
        {
          "internalType": "string",
          "name": "_password",
          "type": "string"
        }
      ],
      "name": "doesPasswordCorrect",
      "outputs": [
        {
          "internalType": "bool",
          "name": "",
          "type": "bool"
        }
      ],
      "stateMutability": "view",
      "type": "function",
      "constant": true
    },
    {
      "inputs": [
        {
          "internalType": "string",
          "name": "_password",
          "type": "string"
        }
      ],
      "name": "logIn",
      "outputs": [
        {
          "internalType": "string",
          "name": "",
          "type": "string"
        },
        {
          "internalType": "string",
          "name": "",
          "type": "string"
        },
        {
          "internalType": "string",
          "name": "",
          "type": "string"
        }
      ],
      "stateMutability": "view",
      "type": "function",
      "constant": true
    },
    {
      "inputs": [
        {
          "internalType": "address",
          "name": "_addressStudent",
          "type": "address"
        }
      ],
      "name": "getStudentByAddress",
      "outputs": [
        {
          "internalType": "address",
          "name": "",
          "type": "address"
        },
        {
          "internalType": "string",
          "name": "",
          "type": "string"
        },
        {
          "internalType": "string",
          "name": "",
          "type": "string"
        }
      ],
      "stateMutability": "view",
      "type": "function",
      "constant": true
    },
    {
      "inputs": [
        {
          "internalType": "uint256",
          "name": "_idCourse",
          "type": "uint256"
        }
      ],
      "name": "ifCourseExistsForStudent",
      "outputs": [
        {
          "internalType": "bool",
          "name": "",
          "type": "bool"
        }
      ],
      "stateMutability": "view",
      "type": "function",
      "constant": true
    },
    {
      "inputs": [
        {
          "internalType": "uint256",
          "name": "_idCourse",
          "type": "uint256"
        },
        {
          "internalType": "uint256[]",
          "name": "_idQuestions",
          "type": "uint256[]"
        },
        {
          "internalType": "uint256[]",
          "name": "_idAnswers",
          "type": "uint256[]"
        }
      ],
      "name": "addNewCourseToStudent",
      "outputs": [
        {
          "internalType": "bool",
          "name": "_success",
          "type": "bool"
        }
      ],
      "stateMutability": "nonpayable",
      "type": "function"
    },
    {
      "inputs": [
        {
          "internalType": "uint256",
          "name": "_idCourse",
          "type": "uint256"
        }
      ],
      "name": "getQuestionsAnswersOfCourseForStudent",
      "outputs": [
        {
          "components": [
            {
              "internalType": "uint256",
              "name": "idQuestion",
              "type": "uint256"
            },
            {
              "internalType": "uint256",
              "name": "idAnswer",
              "type": "uint256"
            }
          ],
          "internalType": "struct Authentication.QuestionAnswer[]",
          "name": "",
          "type": "tuple[]"
        }
      ],
      "stateMutability": "view",
      "type": "function",
      "constant": true
    },
    {
      "inputs": [],
      "name": "getIdCoursesOfStudent",
      "outputs": [
        {
          "internalType": "uint256[]",
          "name": "",
          "type": "uint256[]"
        }
      ],
      "stateMutability": "view",
      "type": "function",
      "constant": true
    }
  ],
  "bytecode": "0x608060405234801561001057600080fd5b50611894806100206000396000f3fe608060405234801561001057600080fd5b50600436106100935760003560e01c80636c62bfad116100665780636c62bfad1461014857806371236ab0146101785780639f3da5cc14610196578063e146de35146101c8578063e452e722146101f857610093565b806327b0c6fb14610098578063589218f1146100c85780635d61b73b146100f857806362daa86d1461012a575b600080fd5b6100b260048036038101906100ad9190610ef3565b610228565b6040516100bf919061100d565b60405180910390f35b6100e260048036038101906100dd9190611175565b6102eb565b6040516100ef9190611267565b60405180910390f35b610112600480360381019061010d9190611282565b6104d1565b60405161012193929190611353565b60405180910390f35b6101326107e9565b60405161013f919061144e565b60405180910390f35b610162600480360381019061015d9190610ef3565b61087e565b60405161016f9190611267565b60405180910390f35b61018061095a565b60405161018d9190611267565b60405180910390f35b6101b060048036038101906101ab91906114ce565b610a01565b6040516101bf9392919061150a565b60405180910390f35b6101e260048036038101906101dd9190611617565b610c0f565b6040516101ef9190611267565b60405180910390f35b610212600480360381019061020d9190611282565b610d8e565b60405161021f9190611267565b60405180910390f35b6060600260003373ffffffffffffffffffffffffffffffffffffffff1673ffffffffffffffffffffffffffffffffffffffff1681526020019081526020016000206000838152602001908152602001600020805480602002602001604051908101604052809291908181526020016000905b828210156102e05783829060005260206000209060020201604051806040016040529081600082015481526020016001820154815250508152602001906001019061029a565b505050509050919050565b6000336000803373ffffffffffffffffffffffffffffffffffffffff1673ffffffffffffffffffffffffffffffffffffffff16815260200190815260200160002060000160006101000a81548173ffffffffffffffffffffffffffffffffffffffff021916908373ffffffffffffffffffffffffffffffffffffffff160217905550816000803373ffffffffffffffffffffffffffffffffffffffff1673ffffffffffffffffffffffffffffffffffffffff16815260200190815260200160002060010190805190602001906103c2929190610e06565b50846000803373ffffffffffffffffffffffffffffffffffffffff1673ffffffffffffffffffffffffffffffffffffffff1681526020019081526020016000206002019080519060200190610418929190610e06565b50836000803373ffffffffffffffffffffffffffffffffffffffff1673ffffffffffffffffffffffffffffffffffffffff168152602001908152602001600020600301908051906020019061046e929190610e06565b50826000803373ffffffffffffffffffffffffffffffffffffffff1673ffffffffffffffffffffffffffffffffffffffff16815260200190815260200160002060040190805190602001906104c4929190610e06565b5060019050949350505050565b606080606083805190602001206000803373ffffffffffffffffffffffffffffffffffffffff1673ffffffffffffffffffffffffffffffffffffffff16815260200190815260200160002060010160405161052c91906117a1565b6040518091039020036107ab576000803373ffffffffffffffffffffffffffffffffffffffff1673ffffffffffffffffffffffffffffffffffffffff1681526020019081526020016000206002016000803373ffffffffffffffffffffffffffffffffffffffff1673ffffffffffffffffffffffffffffffffffffffff1681526020019081526020016000206003016000803373ffffffffffffffffffffffffffffffffffffffff1673ffffffffffffffffffffffffffffffffffffffff168152602001908152602001600020600401828054610608906116d1565b80601f0160208091040260200160405190810160405280929190818152602001828054610634906116d1565b80156106815780601f1061065657610100808354040283529160200191610681565b820191906000526020600020905b81548152906001019060200180831161066457829003601f168201915b50505050509250818054610694906116d1565b80601f01602080910402602001604051908101604052809291908181526020018280546106c0906116d1565b801561070d5780601f106106e25761010080835404028352916020019161070d565b820191906000526020600020905b8154815290600101906020018083116106f057829003601f168201915b50505050509150808054610720906116d1565b80601f016020809104026020016040519081016040528092919081815260200182805461074c906116d1565b80156107995780601f1061076e57610100808354040283529160200191610799565b820191906000526020600020905b81548152906001019060200180831161077c57829003601f168201915b505050505090509250925092506107e2565b6040518060200160405280600081525060405180602001604052806000815250604051806020016040528060008152509250925092505b9193909250565b6060600160003373ffffffffffffffffffffffffffffffffffffffff1673ffffffffffffffffffffffffffffffffffffffff16815260200190815260200160002080548060200260200160405190810160405280929190818152602001828054801561087457602002820191906000526020600020905b815481526020019060010190808311610860575b5050505050905090565b600080600090505b600160003373ffffffffffffffffffffffffffffffffffffffff1673ffffffffffffffffffffffffffffffffffffffff1681526020019081526020016000208054905081101561094f5782600160003373ffffffffffffffffffffffffffffffffffffffff1673ffffffffffffffffffffffffffffffffffffffff1681526020019081526020016000208281548110610922576109216117b8565b5b90600052602060002001540361093c576001915050610955565b808061094790611816565b915050610886565b50600090505b919050565b60003373ffffffffffffffffffffffffffffffffffffffff166000803373ffffffffffffffffffffffffffffffffffffffff1673ffffffffffffffffffffffffffffffffffffffff16815260200190815260200160002060000160009054906101000a900473ffffffffffffffffffffffffffffffffffffffff1673ffffffffffffffffffffffffffffffffffffffff16036109f957600190506109fe565b600090505b90565b60006060806000808573ffffffffffffffffffffffffffffffffffffffff1673ffffffffffffffffffffffffffffffffffffffff16815260200190815260200160002060000160009054906101000a900473ffffffffffffffffffffffffffffffffffffffff166000808673ffffffffffffffffffffffffffffffffffffffff1673ffffffffffffffffffffffffffffffffffffffff1681526020019081526020016000206002016000808773ffffffffffffffffffffffffffffffffffffffff1673ffffffffffffffffffffffffffffffffffffffff168152602001908152602001600020600301818054610af6906116d1565b80601f0160208091040260200160405190810160405280929190818152602001828054610b22906116d1565b8015610b6f5780601f10610b4457610100808354040283529160200191610b6f565b820191906000526020600020905b815481529060010190602001808311610b5257829003601f168201915b50505050509150808054610b82906116d1565b80601f0160208091040260200160405190810160405280929190818152602001828054610bae906116d1565b8015610bfb5780601f10610bd057610100808354040283529160200191610bfb565b820191906000526020600020905b815481529060010190602001808311610bde57829003601f168201915b505050505090509250925092509193909250565b6000610c1a8461087e565b610c8557600160003373ffffffffffffffffffffffffffffffffffffffff1673ffffffffffffffffffffffffffffffffffffffff1681526020019081526020016000208490806001815401808255809150506001900390600052602060002001600090919091909150555b60005b8351811015610d825760006040518060400160405280868481518110610cb157610cb06117b8565b5b60200260200101518152602001858481518110610cd157610cd06117b8565b5b60200260200101518152509050600260003373ffffffffffffffffffffffffffffffffffffffff1673ffffffffffffffffffffffffffffffffffffffff168152602001908152602001600020600087815260200190815260200160002081908060018154018082558091505060019003906000526020600020906002020160009091909190915060008201518160000155602082015181600101555050508080610d7a90611816565b915050610c88565b50600190509392505050565b600081805190602001206000803373ffffffffffffffffffffffffffffffffffffffff1673ffffffffffffffffffffffffffffffffffffffff168152602001908152602001600020600101604051610de691906117a1565b604051809103902003610dfc5760019050610e01565b600090505b919050565b828054610e12906116d1565b90600052602060002090601f016020900481019282610e345760008555610e7b565b82601f10610e4d57805160ff1916838001178555610e7b565b82800160010185558215610e7b579182015b82811115610e7a578251825591602001919060010190610e5f565b5b509050610e889190610e8c565b5090565b5b80821115610ea5576000816000905550600101610e8d565b5090565b6000604051905090565b600080fd5b600080fd5b6000819050919050565b610ed081610ebd565b8114610edb57600080fd5b50565b600081359050610eed81610ec7565b92915050565b600060208284031215610f0957610f08610eb3565b5b6000610f1784828501610ede565b91505092915050565b600081519050919050565b600082825260208201905092915050565b6000819050602082019050919050565b610f5581610ebd565b82525050565b604082016000820151610f716000850182610f4c565b506020820151610f846020850182610f4c565b50505050565b6000610f968383610f5b565b60408301905092915050565b6000602082019050919050565b6000610fba82610f20565b610fc48185610f2b565b9350610fcf83610f3c565b8060005b83811015611000578151610fe78882610f8a565b9750610ff283610fa2565b925050600181019050610fd3565b5085935050505092915050565b600060208201905081810360008301526110278184610faf565b905092915050565b600080fd5b600080fd5b6000601f19601f8301169050919050565b7f4e487b7100000000000000000000000000000000000000000000000000000000600052604160045260246000fd5b61108282611039565b810181811067ffffffffffffffff821117156110a1576110a061104a565b5b80604052505050565b60006110b4610ea9565b90506110c08282611079565b919050565b600067ffffffffffffffff8211156110e0576110df61104a565b5b6110e982611039565b9050602081019050919050565b82818337600083830152505050565b6000611118611113846110c5565b6110aa565b90508281526020810184848401111561113457611133611034565b5b61113f8482856110f6565b509392505050565b600082601f83011261115c5761115b61102f565b5b813561116c848260208601611105565b91505092915050565b6000806000806080858703121561118f5761118e610eb3565b5b600085013567ffffffffffffffff8111156111ad576111ac610eb8565b5b6111b987828801611147565b945050602085013567ffffffffffffffff8111156111da576111d9610eb8565b5b6111e687828801611147565b935050604085013567ffffffffffffffff81111561120757611206610eb8565b5b61121387828801611147565b925050606085013567ffffffffffffffff81111561123457611233610eb8565b5b61124087828801611147565b91505092959194509250565b60008115159050919050565b6112618161124c565b82525050565b600060208201905061127c6000830184611258565b92915050565b60006020828403121561129857611297610eb3565b5b600082013567ffffffffffffffff8111156112b6576112b5610eb8565b5b6112c284828501611147565b91505092915050565b600081519050919050565b600082825260208201905092915050565b60005b838110156113055780820151818401526020810190506112ea565b83811115611314576000848401525b50505050565b6000611325826112cb565b61132f81856112d6565b935061133f8185602086016112e7565b61134881611039565b840191505092915050565b6000606082019050818103600083015261136d818661131a565b90508181036020830152611381818561131a565b90508181036040830152611395818461131a565b9050949350505050565b600081519050919050565b600082825260208201905092915050565b6000819050602082019050919050565b60006113d78383610f4c565b60208301905092915050565b6000602082019050919050565b60006113fb8261139f565b61140581856113aa565b9350611410836113bb565b8060005b8381101561144157815161142888826113cb565b9750611433836113e3565b925050600181019050611414565b5085935050505092915050565b6000602082019050818103600083015261146881846113f0565b905092915050565b600073ffffffffffffffffffffffffffffffffffffffff82169050919050565b600061149b82611470565b9050919050565b6114ab81611490565b81146114b657600080fd5b50565b6000813590506114c8816114a2565b92915050565b6000602082840312156114e4576114e3610eb3565b5b60006114f2848285016114b9565b91505092915050565b61150481611490565b82525050565b600060608201905061151f60008301866114fb565b8181036020830152611531818561131a565b90508181036040830152611545818461131a565b9050949350505050565b600067ffffffffffffffff82111561156a5761156961104a565b5b602082029050602081019050919050565b600080fd5b600061159361158e8461154f565b6110aa565b905080838252602082019050602084028301858111156115b6576115b561157b565b5b835b818110156115df57806115cb8882610ede565b8452602084019350506020810190506115b8565b5050509392505050565b600082601f8301126115fe576115fd61102f565b5b813561160e848260208601611580565b91505092915050565b6000806000606084860312156116305761162f610eb3565b5b600061163e86828701610ede565b935050602084013567ffffffffffffffff81111561165f5761165e610eb8565b5b61166b868287016115e9565b925050604084013567ffffffffffffffff81111561168c5761168b610eb8565b5b611698868287016115e9565b9150509250925092565b7f4e487b7100000000000000000000000000000000000000000000000000000000600052602260045260246000fd5b600060028204905060018216806116e957607f821691505b6020821081036116fc576116fb6116a2565b5b50919050565b600081905092915050565b60008190508160005260206000209050919050565b6000815461172f816116d1565b6117398186611702565b94506001821660008114611754576001811461176557611798565b60ff19831686528186019350611798565b61176e8561170d565b60005b8381101561179057815481890152600182019150602081019050611771565b838801955050505b50505092915050565b60006117ad8284611722565b915081905092915050565b7f4e487b7100000000000000000000000000000000000000000000000000000000600052603260045260246000fd5b7f4e487b7100000000000000000000000000000000000000000000000000000000600052601160045260246000fd5b600061182182610ebd565b91507fffffffffffffffffffffffffffffffffffffffffffffffffffffffffffffffff8203611853576118526117e7565b5b60018201905091905056fea264697066735822122063189fa7b89b819bd78344b18b39dfee93134aded466ee34ca6c3885c678571364736f6c634300080d0033",
  "immutableReferences": {},
  "source": "pragma solidity 0.8.13;\r\n\r\ncontract Authentication {\r\n\r\n    struct QuestionAnswer {\r\n        uint idQuestion;\r\n        uint idAnswer;\r\n    }\r\n\r\n    struct User{\r\n        address addressAccount;\r\n        string password;\r\n        string firstName;\r\n        string familyName;\r\n        string typeUser;\r\n    }\r\n\r\n    mapping (address => User) private users;\r\n    mapping (address => uint[]) private keysCourses;\r\n    mapping (address => mapping (uint => QuestionAnswer[])) private questionsAnswers;\r\n\r\n    constructor () {\r\n\r\n    }\r\n\r\n    //    Users ---------------------------------------------------------\r\n\r\n    function signUp(string memory _firstName, string memory _familyName, string memory _typeUser, string memory _password)\r\n    public returns (bool) {\r\n        users[msg.sender].addressAccount = msg.sender;\r\n        users[msg.sender].password = _password;\r\n        users[msg.sender].firstName = _firstName;\r\n        users[msg.sender].familyName = _familyName;\r\n        users[msg.sender].typeUser = _typeUser;\r\n        return true;\r\n    }\r\n\r\n    function areYouAlreadySignUp() public view returns (bool) {\r\n        if(users[msg.sender].addressAccount == msg.sender) return true;\r\n        return false;\r\n    }\r\n\r\n    function doesPasswordCorrect(string memory _password) public view returns (bool) {\r\n        if(keccak256(bytes(users[msg.sender].password)) == keccak256(bytes(_password))) return true;\r\n        return false;\r\n    }\r\n\r\n    function logIn(string memory _password) public view returns(string memory, string memory, string memory) {\r\n        if(keccak256(bytes(users[msg.sender].password)) == keccak256(bytes(_password))) {\r\n            return (users[msg.sender].firstName, users[msg.sender].familyName, users[msg.sender].typeUser);\r\n        }\r\n        return (\"\", \"\", \"\");\r\n    }\r\n\r\n    function getStudentByAddress(address _addressStudent) public view returns(address, string memory, string memory){\r\n        return (users[_addressStudent].addressAccount, users[_addressStudent].firstName, users[_addressStudent].familyName);\r\n    }\r\n\r\n    //    Courses ---------------------------------------------------------\r\n\r\n    function ifCourseExistsForStudent(uint _idCourse) public view returns(bool){\r\n        for(uint i = 0; i < keysCourses[msg.sender].length; i++){\r\n            if(keysCourses[msg.sender][i] == _idCourse) return true;\r\n        }\r\n        return false;\r\n    }\r\n\r\n    function addNewCourseToStudent(uint _idCourse, uint[] memory _idQuestions, uint[] memory _idAnswers) public returns(bool _success){\r\n        if(!ifCourseExistsForStudent(_idCourse)) keysCourses[msg.sender].push(_idCourse);\r\n        for(uint i = 0; i < _idQuestions.length; i++){\r\n            QuestionAnswer memory questionAnswer = QuestionAnswer({idQuestion: _idQuestions[i], idAnswer: _idAnswers[i]});\r\n            questionsAnswers[msg.sender][_idCourse].push(questionAnswer);\r\n        }\r\n        return true;\r\n    }\r\n\r\n    function getQuestionsAnswersOfCourseForStudent(uint _idCourse) public view returns(QuestionAnswer[] memory){\r\n        return questionsAnswers[msg.sender][_idCourse];\r\n    }\r\n\r\n    function getIdCoursesOfStudent() public view returns(uint[] memory){\r\n        return keysCourses[msg.sender];\r\n    }\r\n}\r\n",
  "sourcePath": "C:\\Users\\Baghdad\\Desktop\\MyFutur\\walid-project\\contracts\\Authentication.sol",
  "compiler": {
    "name": "solc",
    "version": "0.8.13+commit.abaa5c0e.Emscripten.clang"
  },
  "schemaVersion": "3.4.7",
  "updatedAt": "2022-06-01T20:12:59.384Z",
  "networkType": "ethereum",
  "devdoc": {
    "kind": "dev",
    "methods": {},
    "version": 1
  },
  "userdoc": {
    "kind": "user",
    "methods": {},
    "version": 1
  }
}