{
  "contractName": "Authentication",
  "abi": [
    {
      "inputs": [],
      "stateMutability": "nonpayable",
      "type": "constructor"
    },
    {
      "inputs": [
        {
          "internalType": "string",
          "name": "_firstName",
          "type": "string"
        },
        {
          "internalType": "string",
          "name": "_familyName",
          "type": "string"
        },
        {
          "internalType": "string",
          "name": "_typeUser",
          "type": "string"
        },
        {
          "internalType": "string",
          "name": "_password",
          "type": "string"
        }
      ],
      "name": "signUp",
      "outputs": [
        {
          "internalType": "bool",
          "name": "",
          "type": "bool"
        }
      ],
      "stateMutability": "nonpayable",
      "type": "function"
    },
    {
      "inputs": [],
      "name": "areYouAlreadySignUp",
      "outputs": [
        {
          "internalType": "bool",
          "name": "",
          "type": "bool"
        }
      ],
      "stateMutability": "view",
      "type": "function",
      "constant": true
    },
    {
      "inputs": [
        {
          "internalType": "string",
          "name": "_password",
          "type": "string"
        }
      ],
      "name": "doesPasswordCorrect",
      "outputs": [
        {
          "internalType": "bool",
          "name": "",
          "type": "bool"
        }
      ],
      "stateMutability": "view",
      "type": "function",
      "constant": true
    },
    {
      "inputs": [
        {
          "internalType": "string",
          "name": "_password",
          "type": "string"
        }
      ],
      "name": "logIn",
      "outputs": [
        {
          "internalType": "string",
          "name": "",
          "type": "string"
        },
        {
          "internalType": "string",
          "name": "",
          "type": "string"
        },
        {
          "internalType": "string",
          "name": "",
          "type": "string"
        },
        {
          "internalType": "string",
          "name": "",
          "type": "string"
        }
      ],
      "stateMutability": "view",
      "type": "function",
      "constant": true
    },
    {
      "inputs": [
        {
          "internalType": "address",
          "name": "_addressStudent",
          "type": "address"
        }
      ],
      "name": "getStudentByAddress",
      "outputs": [
        {
          "internalType": "address",
          "name": "",
          "type": "address"
        },
        {
          "internalType": "string",
          "name": "",
          "type": "string"
        },
        {
          "internalType": "string",
          "name": "",
          "type": "string"
        }
      ],
      "stateMutability": "view",
      "type": "function",
      "constant": true
    },
    {
      "inputs": [
        {
          "internalType": "uint256",
          "name": "_idCourse",
          "type": "uint256"
        }
      ],
      "name": "ifCourseExistsForStudent",
      "outputs": [
        {
          "internalType": "bool",
          "name": "",
          "type": "bool"
        }
      ],
      "stateMutability": "view",
      "type": "function",
      "constant": true
    },
    {
      "inputs": [
        {
          "internalType": "uint256",
          "name": "_idCourse",
          "type": "uint256"
        },
        {
          "internalType": "uint256[]",
          "name": "_idQuestions",
          "type": "uint256[]"
        },
        {
          "internalType": "uint256[]",
          "name": "_idAnswers",
          "type": "uint256[]"
        }
      ],
      "name": "addNewCourseToStudent",
      "outputs": [
        {
          "internalType": "bool",
          "name": "_success",
          "type": "bool"
        }
      ],
      "stateMutability": "nonpayable",
      "type": "function"
    },
    {
      "inputs": [
        {
          "internalType": "uint256",
          "name": "_idCourse",
          "type": "uint256"
        }
      ],
      "name": "getQuestionsAnswersOfCourseForStudent",
      "outputs": [
        {
          "components": [
            {
              "internalType": "uint256",
              "name": "idQuestion",
              "type": "uint256"
            },
            {
              "internalType": "uint256",
              "name": "idAnswer",
              "type": "uint256"
            }
          ],
          "internalType": "struct Authentication.QuestionAnswer[]",
          "name": "",
          "type": "tuple[]"
        }
      ],
      "stateMutability": "view",
      "type": "function",
      "constant": true
    },
    {
      "inputs": [],
      "name": "getIdCoursesOfStudent",
      "outputs": [
        {
          "internalType": "uint256[]",
          "name": "",
          "type": "uint256[]"
        }
      ],
      "stateMutability": "view",
      "type": "function",
      "constant": true
    }
  ],
  "bytecode": "0x60806040523480156200001157600080fd5b50336000803373ffffffffffffffffffffffffffffffffffffffff1673ffffffffffffffffffffffffffffffffffffffff16815260200190815260200160002060000160006101000a81548173ffffffffffffffffffffffffffffffffffffffff021916908373ffffffffffffffffffffffffffffffffffffffff1602179055506040518060400160405280600581526020017f61646d696e0000000000000000000000000000000000000000000000000000008152506000803373ffffffffffffffffffffffffffffffffffffffff1673ffffffffffffffffffffffffffffffffffffffff16815260200190815260200160002060010190805190602001906200011e9291906200030d565b50604051806020016040528060008152506000803373ffffffffffffffffffffffffffffffffffffffff1673ffffffffffffffffffffffffffffffffffffffff1681526020019081526020016000206002019080519060200190620001859291906200030d565b506040518060400160405280600581526020017f61646d696e0000000000000000000000000000000000000000000000000000008152506000803373ffffffffffffffffffffffffffffffffffffffff1673ffffffffffffffffffffffffffffffffffffffff1681526020019081526020016000206003019080519060200190620002129291906200030d565b50604051806020016040528060008152506000803373ffffffffffffffffffffffffffffffffffffffff1673ffffffffffffffffffffffffffffffffffffffff1681526020019081526020016000206004019080519060200190620002799291906200030d565b506040518060400160405280600581526020017f61646d696e0000000000000000000000000000000000000000000000000000008152506000803373ffffffffffffffffffffffffffffffffffffffff1673ffffffffffffffffffffffffffffffffffffffff1681526020019081526020016000206005019080519060200190620003069291906200030d565b5062000421565b8280546200031b90620003ec565b90600052602060002090601f0160209004810192826200033f57600085556200038b565b82601f106200035a57805160ff19168380011785556200038b565b828001600101855582156200038b579182015b828111156200038a5782518255916020019190600101906200036d565b5b5090506200039a91906200039e565b5090565b5b80821115620003b95760008160009055506001016200039f565b5090565b7f4e487b7100000000000000000000000000000000000000000000000000000000600052602260045260246000fd5b600060028204905060018216806200040557607f821691505b6020821081036200041b576200041a620003bd565b5b50919050565b611a1780620004316000396000f3fe608060405234801561001057600080fd5b50600436106100935760003560e01c80636c62bfad116100665780636c62bfad1461014957806371236ab0146101795780639f3da5cc14610197578063e146de35146101c9578063e452e722146101f957610093565b806327b0c6fb14610098578063589218f1146100c85780635d61b73b146100f857806362daa86d1461012b575b600080fd5b6100b260048036038101906100ad9190611061565b610229565b6040516100bf919061117b565b60405180910390f35b6100e260048036038101906100dd91906112e3565b6102ec565b6040516100ef91906113d5565b60405180910390f35b610112600480360381019061010d91906113f0565b61055d565b60405161012294939291906114c1565b60405180910390f35b610133610957565b60405161014091906115d1565b60405180910390f35b610163600480360381019061015e9190611061565b6109ec565b60405161017091906113d5565b60405180910390f35b610181610ac8565b60405161018e91906113d5565b60405180910390f35b6101b160048036038101906101ac9190611651565b610b6f565b6040516101c09392919061168d565b60405180910390f35b6101e360048036038101906101de919061179a565b610d7d565b6040516101f091906113d5565b60405180910390f35b610213600480360381019061020e91906113f0565b610efc565b60405161022091906113d5565b60405180910390f35b6060600260003373ffffffffffffffffffffffffffffffffffffffff1673ffffffffffffffffffffffffffffffffffffffff1681526020019081526020016000206000838152602001908152602001600020805480602002602001604051908101604052809291908181526020016000905b828210156102e15783829060005260206000209060020201604051806040016040529081600082015481526020016001820154815250508152602001906001019061029b565b505050509050919050565b6000336000803373ffffffffffffffffffffffffffffffffffffffff1673ffffffffffffffffffffffffffffffffffffffff16815260200190815260200160002060000160006101000a81548173ffffffffffffffffffffffffffffffffffffffff021916908373ffffffffffffffffffffffffffffffffffffffff160217905550816000803373ffffffffffffffffffffffffffffffffffffffff1673ffffffffffffffffffffffffffffffffffffffff16815260200190815260200160002060010190805190602001906103c3929190610f74565b50846000803373ffffffffffffffffffffffffffffffffffffffff1673ffffffffffffffffffffffffffffffffffffffff1681526020019081526020016000206002019080519060200190610419929190610f74565b50836000803373ffffffffffffffffffffffffffffffffffffffff1673ffffffffffffffffffffffffffffffffffffffff168152602001908152602001600020600301908051906020019061046f929190610f74565b50826000803373ffffffffffffffffffffffffffffffffffffffff1673ffffffffffffffffffffffffffffffffffffffff16815260200190815260200160002060040190805190602001906104c5929190610f74565b506040518060400160405280600681526020017f73696d706c6500000000000000000000000000000000000000000000000000008152506000803373ffffffffffffffffffffffffffffffffffffffff1673ffffffffffffffffffffffffffffffffffffffff1681526020019081526020016000206005019080519060200190610550929190610f74565b5060019050949350505050565b60608060608084805190602001206000803373ffffffffffffffffffffffffffffffffffffffff1673ffffffffffffffffffffffffffffffffffffffff1681526020019081526020016000206001016040516105b99190611924565b604051809103902003610907576000803373ffffffffffffffffffffffffffffffffffffffff1673ffffffffffffffffffffffffffffffffffffffff1681526020019081526020016000206002016000803373ffffffffffffffffffffffffffffffffffffffff1673ffffffffffffffffffffffffffffffffffffffff1681526020019081526020016000206003016000803373ffffffffffffffffffffffffffffffffffffffff1673ffffffffffffffffffffffffffffffffffffffff1681526020019081526020016000206004016000803373ffffffffffffffffffffffffffffffffffffffff1673ffffffffffffffffffffffffffffffffffffffff1681526020019081526020016000206005018380546106d690611854565b80601f016020809104026020016040519081016040528092919081815260200182805461070290611854565b801561074f5780601f106107245761010080835404028352916020019161074f565b820191906000526020600020905b81548152906001019060200180831161073257829003601f168201915b5050505050935082805461076290611854565b80601f016020809104026020016040519081016040528092919081815260200182805461078e90611854565b80156107db5780601f106107b0576101008083540402835291602001916107db565b820191906000526020600020905b8154815290600101906020018083116107be57829003601f168201915b505050505092508180546107ee90611854565b80601f016020809104026020016040519081016040528092919081815260200182805461081a90611854565b80156108675780601f1061083c57610100808354040283529160200191610867565b820191906000526020600020905b81548152906001019060200180831161084a57829003601f168201915b5050505050915080805461087a90611854565b80601f01602080910402602001604051908101604052809291908181526020018280546108a690611854565b80156108f35780601f106108c8576101008083540402835291602001916108f3565b820191906000526020600020905b8154815290600101906020018083116108d657829003601f168201915b505050505090509350935093509350610950565b6040518060200160405280600081525060405180602001604052806000815250604051806020016040528060008152506040518060200160405280600081525093509350935093505b9193509193565b6060600160003373ffffffffffffffffffffffffffffffffffffffff1673ffffffffffffffffffffffffffffffffffffffff1681526020019081526020016000208054806020026020016040519081016040528092919081815260200182805480156109e257602002820191906000526020600020905b8154815260200190600101908083116109ce575b5050505050905090565b600080600090505b600160003373ffffffffffffffffffffffffffffffffffffffff1673ffffffffffffffffffffffffffffffffffffffff16815260200190815260200160002080549050811015610abd5782600160003373ffffffffffffffffffffffffffffffffffffffff1673ffffffffffffffffffffffffffffffffffffffff1681526020019081526020016000208281548110610a9057610a8f61193b565b5b906000526020600020015403610aaa576001915050610ac3565b8080610ab590611999565b9150506109f4565b50600090505b919050565b60003373ffffffffffffffffffffffffffffffffffffffff166000803373ffffffffffffffffffffffffffffffffffffffff1673ffffffffffffffffffffffffffffffffffffffff16815260200190815260200160002060000160009054906101000a900473ffffffffffffffffffffffffffffffffffffffff1673ffffffffffffffffffffffffffffffffffffffff1603610b675760019050610b6c565b600090505b90565b60006060806000808573ffffffffffffffffffffffffffffffffffffffff1673ffffffffffffffffffffffffffffffffffffffff16815260200190815260200160002060000160009054906101000a900473ffffffffffffffffffffffffffffffffffffffff166000808673ffffffffffffffffffffffffffffffffffffffff1673ffffffffffffffffffffffffffffffffffffffff1681526020019081526020016000206002016000808773ffffffffffffffffffffffffffffffffffffffff1673ffffffffffffffffffffffffffffffffffffffff168152602001908152602001600020600301818054610c6490611854565b80601f0160208091040260200160405190810160405280929190818152602001828054610c9090611854565b8015610cdd5780601f10610cb257610100808354040283529160200191610cdd565b820191906000526020600020905b815481529060010190602001808311610cc057829003601f168201915b50505050509150808054610cf090611854565b80601f0160208091040260200160405190810160405280929190818152602001828054610d1c90611854565b8015610d695780601f10610d3e57610100808354040283529160200191610d69565b820191906000526020600020905b815481529060010190602001808311610d4c57829003601f168201915b505050505090509250925092509193909250565b6000610d88846109ec565b610df357600160003373ffffffffffffffffffffffffffffffffffffffff1673ffffffffffffffffffffffffffffffffffffffff1681526020019081526020016000208490806001815401808255809150506001900390600052602060002001600090919091909150555b60005b8351811015610ef05760006040518060400160405280868481518110610e1f57610e1e61193b565b5b60200260200101518152602001858481518110610e3f57610e3e61193b565b5b60200260200101518152509050600260003373ffffffffffffffffffffffffffffffffffffffff1673ffffffffffffffffffffffffffffffffffffffff168152602001908152602001600020600087815260200190815260200160002081908060018154018082558091505060019003906000526020600020906002020160009091909190915060008201518160000155602082015181600101555050508080610ee890611999565b915050610df6565b50600190509392505050565b600081805190602001206000803373ffffffffffffffffffffffffffffffffffffffff1673ffffffffffffffffffffffffffffffffffffffff168152602001908152602001600020600101604051610f549190611924565b604051809103902003610f6a5760019050610f6f565b600090505b919050565b828054610f8090611854565b90600052602060002090601f016020900481019282610fa25760008555610fe9565b82601f10610fbb57805160ff1916838001178555610fe9565b82800160010185558215610fe9579182015b82811115610fe8578251825591602001919060010190610fcd565b5b509050610ff69190610ffa565b5090565b5b80821115611013576000816000905550600101610ffb565b5090565b6000604051905090565b600080fd5b600080fd5b6000819050919050565b61103e8161102b565b811461104957600080fd5b50565b60008135905061105b81611035565b92915050565b60006020828403121561107757611076611021565b5b60006110858482850161104c565b91505092915050565b600081519050919050565b600082825260208201905092915050565b6000819050602082019050919050565b6110c38161102b565b82525050565b6040820160008201516110df60008501826110ba565b5060208201516110f260208501826110ba565b50505050565b600061110483836110c9565b60408301905092915050565b6000602082019050919050565b60006111288261108e565b6111328185611099565b935061113d836110aa565b8060005b8381101561116e57815161115588826110f8565b975061116083611110565b925050600181019050611141565b5085935050505092915050565b60006020820190508181036000830152611195818461111d565b905092915050565b600080fd5b600080fd5b6000601f19601f8301169050919050565b7f4e487b7100000000000000000000000000000000000000000000000000000000600052604160045260246000fd5b6111f0826111a7565b810181811067ffffffffffffffff8211171561120f5761120e6111b8565b5b80604052505050565b6000611222611017565b905061122e82826111e7565b919050565b600067ffffffffffffffff82111561124e5761124d6111b8565b5b611257826111a7565b9050602081019050919050565b82818337600083830152505050565b600061128661128184611233565b611218565b9050828152602081018484840111156112a2576112a16111a2565b5b6112ad848285611264565b509392505050565b600082601f8301126112ca576112c961119d565b5b81356112da848260208601611273565b91505092915050565b600080600080608085870312156112fd576112fc611021565b5b600085013567ffffffffffffffff81111561131b5761131a611026565b5b611327878288016112b5565b945050602085013567ffffffffffffffff81111561134857611347611026565b5b611354878288016112b5565b935050604085013567ffffffffffffffff81111561137557611374611026565b5b611381878288016112b5565b925050606085013567ffffffffffffffff8111156113a2576113a1611026565b5b6113ae878288016112b5565b91505092959194509250565b60008115159050919050565b6113cf816113ba565b82525050565b60006020820190506113ea60008301846113c6565b92915050565b60006020828403121561140657611405611021565b5b600082013567ffffffffffffffff81111561142457611423611026565b5b611430848285016112b5565b91505092915050565b600081519050919050565b600082825260208201905092915050565b60005b83811015611473578082015181840152602081019050611458565b83811115611482576000848401525b50505050565b600061149382611439565b61149d8185611444565b93506114ad818560208601611455565b6114b6816111a7565b840191505092915050565b600060808201905081810360008301526114db8187611488565b905081810360208301526114ef8186611488565b905081810360408301526115038185611488565b905081810360608301526115178184611488565b905095945050505050565b600081519050919050565b600082825260208201905092915050565b6000819050602082019050919050565b600061155a83836110ba565b60208301905092915050565b6000602082019050919050565b600061157e82611522565b611588818561152d565b93506115938361153e565b8060005b838110156115c45781516115ab888261154e565b97506115b683611566565b925050600181019050611597565b5085935050505092915050565b600060208201905081810360008301526115eb8184611573565b905092915050565b600073ffffffffffffffffffffffffffffffffffffffff82169050919050565b600061161e826115f3565b9050919050565b61162e81611613565b811461163957600080fd5b50565b60008135905061164b81611625565b92915050565b60006020828403121561166757611666611021565b5b60006116758482850161163c565b91505092915050565b61168781611613565b82525050565b60006060820190506116a2600083018661167e565b81810360208301526116b48185611488565b905081810360408301526116c88184611488565b9050949350505050565b600067ffffffffffffffff8211156116ed576116ec6111b8565b5b602082029050602081019050919050565b600080fd5b6000611716611711846116d2565b611218565b90508083825260208201905060208402830185811115611739576117386116fe565b5b835b81811015611762578061174e888261104c565b84526020840193505060208101905061173b565b5050509392505050565b600082601f8301126117815761178061119d565b5b8135611791848260208601611703565b91505092915050565b6000806000606084860312156117b3576117b2611021565b5b60006117c18682870161104c565b935050602084013567ffffffffffffffff8111156117e2576117e1611026565b5b6117ee8682870161176c565b925050604084013567ffffffffffffffff81111561180f5761180e611026565b5b61181b8682870161176c565b9150509250925092565b7f4e487b7100000000000000000000000000000000000000000000000000000000600052602260045260246000fd5b6000600282049050600182168061186c57607f821691505b60208210810361187f5761187e611825565b5b50919050565b600081905092915050565b60008190508160005260206000209050919050565b600081546118b281611854565b6118bc8186611885565b945060018216600081146118d757600181146118e85761191b565b60ff1983168652818601935061191b565b6118f185611890565b60005b83811015611913578154818901526001820191506020810190506118f4565b838801955050505b50505092915050565b600061193082846118a5565b915081905092915050565b7f4e487b7100000000000000000000000000000000000000000000000000000000600052603260045260246000fd5b7f4e487b7100000000000000000000000000000000000000000000000000000000600052601160045260246000fd5b60006119a48261102b565b91507fffffffffffffffffffffffffffffffffffffffffffffffffffffffffffffffff82036119d6576119d561196a565b5b60018201905091905056fea2646970667358221220dbb277ca35b6aa1c18d24edd0c7198f85f605ca020a23dd049331df6b8f375d964736f6c634300080d0033",
  "immutableReferences": {},
  "source": "pragma solidity 0.8.13;\r\n\r\ncontract Authentication {\r\n\r\n    struct QuestionAnswer {\r\n        uint idQuestion;\r\n        uint idAnswer;\r\n    }\r\n\r\n    struct User{\r\n        address addressAccount;\r\n        string password;\r\n        string firstName;\r\n        string familyName;\r\n        string typeUser;\r\n        string role;\r\n    }\r\n\r\n    mapping (address => User) private users;\r\n    mapping (address => uint[]) private keysCourses;\r\n    mapping (address => mapping (uint => QuestionAnswer[])) private questionsAnswers;\r\n\r\n    constructor () {\r\n        users[msg.sender].addressAccount = msg.sender;\r\n        users[msg.sender].password = \"admin\";\r\n        users[msg.sender].firstName = \"\";\r\n        users[msg.sender].familyName = \"admin\";\r\n        users[msg.sender].typeUser = \"\";\r\n        users[msg.sender].role = \"admin\";\r\n    }\r\n\r\n    //    Users ---------------------------------------------------------\r\n\r\n    function signUp(string memory _firstName, string memory _familyName, string memory _typeUser, string memory _password)\r\n    public returns (bool) {\r\n        users[msg.sender].addressAccount = msg.sender;\r\n        users[msg.sender].password = _password;\r\n        users[msg.sender].firstName = _firstName;\r\n        users[msg.sender].familyName = _familyName;\r\n        users[msg.sender].typeUser = _typeUser;\r\n        users[msg.sender].role = \"simple\";\r\n        return true;\r\n    }\r\n\r\n    function areYouAlreadySignUp() public view returns (bool) {\r\n        if(users[msg.sender].addressAccount == msg.sender) return true;\r\n        return false;\r\n    }\r\n\r\n    function doesPasswordCorrect(string memory _password) public view returns (bool) {\r\n        if(keccak256(bytes(users[msg.sender].password)) == keccak256(bytes(_password))) return true;\r\n        return false;\r\n    }\r\n\r\n    function logIn(string memory _password) public view returns(string memory, string memory, string memory, string memory) {\r\n        if(keccak256(bytes(users[msg.sender].password)) == keccak256(bytes(_password))) {\r\n            return (users[msg.sender].firstName, users[msg.sender].familyName, users[msg.sender].typeUser, users[msg.sender].role);\r\n        }\r\n        return (\"\", \"\", \"\", \"\");\r\n    }\r\n\r\n    function getStudentByAddress(address _addressStudent) public view returns(address, string memory, string memory){\r\n        return (users[_addressStudent].addressAccount, users[_addressStudent].firstName, users[_addressStudent].familyName);\r\n    }\r\n\r\n    //    Courses ---------------------------------------------------------\r\n\r\n    function ifCourseExistsForStudent(uint _idCourse) public view returns(bool){\r\n        for(uint i = 0; i < keysCourses[msg.sender].length; i++){\r\n            if(keysCourses[msg.sender][i] == _idCourse) return true;\r\n        }\r\n        return false;\r\n    }\r\n\r\n    function addNewCourseToStudent(uint _idCourse, uint[] memory _idQuestions, uint[] memory _idAnswers) public returns(bool _success){\r\n        if(!ifCourseExistsForStudent(_idCourse)) keysCourses[msg.sender].push(_idCourse);\r\n        for(uint i = 0; i < _idQuestions.length; i++){\r\n            QuestionAnswer memory questionAnswer = QuestionAnswer({idQuestion: _idQuestions[i], idAnswer: _idAnswers[i]});\r\n            questionsAnswers[msg.sender][_idCourse].push(questionAnswer);\r\n        }\r\n        return true;\r\n    }\r\n\r\n    function getQuestionsAnswersOfCourseForStudent(uint _idCourse) public view returns(QuestionAnswer[] memory){\r\n        return questionsAnswers[msg.sender][_idCourse];\r\n    }\r\n\r\n    function getIdCoursesOfStudent() public view returns(uint[] memory){\r\n        return keysCourses[msg.sender];\r\n    }\r\n}\r\n",
  "sourcePath": "C:\\Users\\Baghdad\\Desktop\\MyFutur\\walid-project\\contracts\\Authentication.sol",
  "compiler": {
    "name": "solc",
    "version": "0.8.13+commit.abaa5c0e.Emscripten.clang"
  },
  "schemaVersion": "3.4.7",
  "updatedAt": "2022-06-17T17:09:17.769Z",
  "networkType": "ethereum",
  "devdoc": {
    "kind": "dev",
    "methods": {},
    "version": 1
  },
  "userdoc": {
    "kind": "user",
    "methods": {},
    "version": 1
  }
}