{
  "contractName": "Authentication",
  "abi": [
    {
      "inputs": [],
      "stateMutability": "nonpayable",
      "type": "constructor"
    },
    {
      "inputs": [
        {
          "internalType": "string",
          "name": "_firstName",
          "type": "string"
        },
        {
          "internalType": "string",
          "name": "_familyName",
          "type": "string"
        },
        {
          "internalType": "string",
          "name": "_typeUser",
          "type": "string"
        },
        {
          "internalType": "string",
          "name": "_password",
          "type": "string"
        }
      ],
      "name": "signUp",
      "outputs": [
        {
          "internalType": "bool",
          "name": "",
          "type": "bool"
        }
      ],
      "stateMutability": "nonpayable",
      "type": "function"
    },
    {
      "inputs": [],
      "name": "areYouAlreadySignUp",
      "outputs": [
        {
          "internalType": "bool",
          "name": "",
          "type": "bool"
        }
      ],
      "stateMutability": "view",
      "type": "function",
      "constant": true
    },
    {
      "inputs": [
        {
          "internalType": "string",
          "name": "_password",
          "type": "string"
        }
      ],
      "name": "doesPasswordCorrect",
      "outputs": [
        {
          "internalType": "bool",
          "name": "",
          "type": "bool"
        }
      ],
      "stateMutability": "view",
      "type": "function",
      "constant": true
    },
    {
      "inputs": [
        {
          "internalType": "string",
          "name": "_password",
          "type": "string"
        }
      ],
      "name": "logIn",
      "outputs": [
        {
          "internalType": "address",
          "name": "",
          "type": "address"
        },
        {
          "internalType": "string",
          "name": "",
          "type": "string"
        },
        {
          "internalType": "string",
          "name": "",
          "type": "string"
        },
        {
          "internalType": "string",
          "name": "",
          "type": "string"
        }
      ],
      "stateMutability": "view",
      "type": "function",
      "constant": true
    },
    {
      "inputs": [],
      "name": "test",
      "outputs": [
        {
          "internalType": "string",
          "name": "",
          "type": "string"
        }
      ],
      "stateMutability": "view",
      "type": "function",
      "constant": true
    }
  ],
  "bytecode": "0x608060405234801561001057600080fd5b50610d75806100206000396000f3fe608060405234801561001057600080fd5b50600436106100575760003560e01c8063589218f11461005c5780635d61b73b1461008c57806371236ab0146100bf578063e452e722146100dd578063f8a8fd6d1461010d575b600080fd5b6100766004803603810190610071919061098d565b61012b565b6040516100839190610a7f565b60405180910390f35b6100a660048036038101906100a19190610a9a565b610311565b6040516100b69493929190610bac565b60405180910390f35b6100c7610632565b6040516100d49190610a7f565b60405180910390f35b6100f760048036038101906100f29190610a9a565b6106da565b6040516101049190610a7f565b60405180910390f35b610115610753565b6040516101229190610c06565b60405180910390f35b6000336000803373ffffffffffffffffffffffffffffffffffffffff1673ffffffffffffffffffffffffffffffffffffffff16815260200190815260200160002060000160006101000a81548173ffffffffffffffffffffffffffffffffffffffff021916908373ffffffffffffffffffffffffffffffffffffffff160217905550816000803373ffffffffffffffffffffffffffffffffffffffff1673ffffffffffffffffffffffffffffffffffffffff1681526020019081526020016000206001019080519060200190610202929190610790565b50846000803373ffffffffffffffffffffffffffffffffffffffff1673ffffffffffffffffffffffffffffffffffffffff1681526020019081526020016000206002019080519060200190610258929190610790565b50836000803373ffffffffffffffffffffffffffffffffffffffff1673ffffffffffffffffffffffffffffffffffffffff16815260200190815260200160002060030190805190602001906102ae929190610790565b50826000803373ffffffffffffffffffffffffffffffffffffffff1673ffffffffffffffffffffffffffffffffffffffff1681526020019081526020016000206004019080519060200190610304929190610790565b5060019050949350505050565b6000606080606084805190602001206000803373ffffffffffffffffffffffffffffffffffffffff1673ffffffffffffffffffffffffffffffffffffffff16815260200190815260200160002060010160405161036e9190610d28565b604051809103902014156105f157336000803373ffffffffffffffffffffffffffffffffffffffff1673ffffffffffffffffffffffffffffffffffffffff1681526020019081526020016000206002016000803373ffffffffffffffffffffffffffffffffffffffff1673ffffffffffffffffffffffffffffffffffffffff1681526020019081526020016000206003016000803373ffffffffffffffffffffffffffffffffffffffff1673ffffffffffffffffffffffffffffffffffffffff16815260200190815260200160002060040182805461044c90610c57565b80601f016020809104026020016040519081016040528092919081815260200182805461047890610c57565b80156104c55780601f1061049a576101008083540402835291602001916104c5565b820191906000526020600020905b8154815290600101906020018083116104a857829003601f168201915b505050505092508180546104d890610c57565b80601f016020809104026020016040519081016040528092919081815260200182805461050490610c57565b80156105515780601f1061052657610100808354040283529160200191610551565b820191906000526020600020905b81548152906001019060200180831161053457829003601f168201915b5050505050915080805461056490610c57565b80601f016020809104026020016040519081016040528092919081815260200182805461059090610c57565b80156105dd5780601f106105b2576101008083540402835291602001916105dd565b820191906000526020600020905b8154815290600101906020018083116105c057829003601f168201915b50505050509050935093509350935061062b565b3360405180602001604052806000815250604051806020016040528060008152506040518060200160405280600081525093509350935093505b9193509193565b60003373ffffffffffffffffffffffffffffffffffffffff166000803373ffffffffffffffffffffffffffffffffffffffff1673ffffffffffffffffffffffffffffffffffffffff16815260200190815260200160002060000160009054906101000a900473ffffffffffffffffffffffffffffffffffffffff1673ffffffffffffffffffffffffffffffffffffffff1614156106d257600190506106d7565b600090505b90565b600081805190602001206000803373ffffffffffffffffffffffffffffffffffffffff1673ffffffffffffffffffffffffffffffffffffffff1681526020019081526020016000206001016040516107329190610d28565b60405180910390201415610749576001905061074e565b600090505b919050565b60606040518060400160405280600f81526020017f42616768646164206361207661203f0000000000000000000000000000000000815250905090565b82805461079c90610c57565b90600052602060002090601f0160209004810192826107be5760008555610805565b82601f106107d757805160ff1916838001178555610805565b82800160010185558215610805579182015b828111156108045782518255916020019190600101906107e9565b5b5090506108129190610816565b5090565b5b8082111561082f576000816000905550600101610817565b5090565b6000604051905090565b600080fd5b600080fd5b600080fd5b600080fd5b6000601f19601f8301169050919050565b7f4e487b7100000000000000000000000000000000000000000000000000000000600052604160045260246000fd5b61089a82610851565b810181811067ffffffffffffffff821117156108b9576108b8610862565b5b80604052505050565b60006108cc610833565b90506108d88282610891565b919050565b600067ffffffffffffffff8211156108f8576108f7610862565b5b61090182610851565b9050602081019050919050565b82818337600083830152505050565b600061093061092b846108dd565b6108c2565b90508281526020810184848401111561094c5761094b61084c565b5b61095784828561090e565b509392505050565b600082601f83011261097457610973610847565b5b813561098484826020860161091d565b91505092915050565b600080600080608085870312156109a7576109a661083d565b5b600085013567ffffffffffffffff8111156109c5576109c4610842565b5b6109d18782880161095f565b945050602085013567ffffffffffffffff8111156109f2576109f1610842565b5b6109fe8782880161095f565b935050604085013567ffffffffffffffff811115610a1f57610a1e610842565b5b610a2b8782880161095f565b925050606085013567ffffffffffffffff811115610a4c57610a4b610842565b5b610a588782880161095f565b91505092959194509250565b60008115159050919050565b610a7981610a64565b82525050565b6000602082019050610a946000830184610a70565b92915050565b600060208284031215610ab057610aaf61083d565b5b600082013567ffffffffffffffff811115610ace57610acd610842565b5b610ada8482850161095f565b91505092915050565b600073ffffffffffffffffffffffffffffffffffffffff82169050919050565b6000610b0e82610ae3565b9050919050565b610b1e81610b03565b82525050565b600081519050919050565b600082825260208201905092915050565b60005b83811015610b5e578082015181840152602081019050610b43565b83811115610b6d576000848401525b50505050565b6000610b7e82610b24565b610b888185610b2f565b9350610b98818560208601610b40565b610ba181610851565b840191505092915050565b6000608082019050610bc16000830187610b15565b8181036020830152610bd38186610b73565b90508181036040830152610be78185610b73565b90508181036060830152610bfb8184610b73565b905095945050505050565b60006020820190508181036000830152610c208184610b73565b905092915050565b7f4e487b7100000000000000000000000000000000000000000000000000000000600052602260045260246000fd5b60006002820490506001821680610c6f57607f821691505b60208210811415610c8357610c82610c28565b5b50919050565b600081905092915050565b60008190508160005260206000209050919050565b60008154610cb681610c57565b610cc08186610c89565b94506001821660008114610cdb5760018114610cec57610d1f565b60ff19831686528186019350610d1f565b610cf585610c94565b60005b83811015610d1757815481890152600182019150602081019050610cf8565b838801955050505b50505092915050565b6000610d348284610ca9565b91508190509291505056fea26469706673582212202205ec43c972d231512bfe9995496d52a873ed061dab935c7cda76c06dc5972464736f6c63430008090033",
  "immutableReferences": {},
  "source": "pragma solidity 0.8.9;\r\n\r\ncontract Authentication {\r\n\r\n    struct User{\r\n        address addressAccount;\r\n        string password;\r\n        string firstName;\r\n        string familyName;\r\n        string typeUser;\r\n    }\r\n\r\n    mapping(address => User) private users;\r\n\r\n    modifier youCanSignUp() {\r\n        require(users[msg.sender].addressAccount != msg.sender, \"You're already signed up\");\r\n        _;\r\n    }\r\n    modifier youCanLogIn() {\r\n        require(users[msg.sender].addressAccount == msg.sender, \"You have de sign up first\");\r\n        _;\r\n    }\r\n\r\n    constructor () {\r\n\r\n    }\r\n\r\n    function signUp(string memory _firstName, string memory _familyName, string memory _typeUser, string memory _password)\r\n    public returns (bool) {\r\n        users[msg.sender].addressAccount = msg.sender;\r\n        users[msg.sender].password = _password;\r\n        users[msg.sender].firstName = _firstName;\r\n        users[msg.sender].familyName = _familyName;\r\n        users[msg.sender].typeUser = _typeUser;\r\n        return true;\r\n    }\r\n\r\n    function areYouAlreadySignUp() public view returns (bool) {\r\n        if(users[msg.sender].addressAccount == msg.sender) return true;\r\n        return false;\r\n    }\r\n\r\n    function doesPasswordCorrect(string memory _password) public view returns (bool) {\r\n        if(keccak256(bytes(users[msg.sender].password)) == keccak256(bytes(_password))) return true;\r\n        return false;\r\n    }\r\n\r\n    function logIn(string memory _password) public view returns(address, string memory, string memory, string memory) {\r\n        if(keccak256(bytes(users[msg.sender].password)) == keccak256(bytes(_password))) {\r\n            return (msg.sender, users[msg.sender].firstName, users[msg.sender].familyName, users[msg.sender].typeUser);\r\n        }\r\n        return (msg.sender, \"\", \"\", \"\");\r\n    }\r\n\r\n    function test() public view returns(string memory) {\r\n        return (\"Baghdad ca va ?\");\r\n    }\r\n}\r\n",
  "sourcePath": "C:\\Users\\Baghdad\\Desktop\\MyFutur\\walid-project\\contracts\\Authentication.sol",
  "compiler": {
    "name": "solc",
    "version": "0.8.9+commit.e5eed63a.Emscripten.clang"
  },
  "schemaVersion": "3.4.7",
  "updatedAt": "2022-05-13T14:14:08.868Z",
  "networkType": "ethereum",
  "devdoc": {
    "kind": "dev",
    "methods": {},
    "version": 1
  },
  "userdoc": {
    "kind": "user",
    "methods": {},
    "version": 1
  }
}