{
  "contractName": "Authentication",
  "abi": [
    {
      "inputs": [],
      "stateMutability": "nonpayable",
      "type": "constructor"
    },
    {
      "inputs": [
        {
          "internalType": "string",
          "name": "_firstName",
          "type": "string"
        },
        {
          "internalType": "string",
          "name": "_familyName",
          "type": "string"
        },
        {
          "internalType": "string",
          "name": "_typeUser",
          "type": "string"
        },
        {
          "internalType": "string",
          "name": "_password",
          "type": "string"
        }
      ],
      "name": "signUp",
      "outputs": [
        {
          "internalType": "bool",
          "name": "",
          "type": "bool"
        }
      ],
      "stateMutability": "nonpayable",
      "type": "function"
    },
    {
      "inputs": [],
      "name": "areYouAlreadySignUp",
      "outputs": [
        {
          "internalType": "bool",
          "name": "",
          "type": "bool"
        }
      ],
      "stateMutability": "view",
      "type": "function",
      "constant": true
    },
    {
      "inputs": [
        {
          "internalType": "string",
          "name": "_password",
          "type": "string"
        }
      ],
      "name": "doesPasswordCorrect",
      "outputs": [
        {
          "internalType": "bool",
          "name": "",
          "type": "bool"
        }
      ],
      "stateMutability": "view",
      "type": "function",
      "constant": true
    },
    {
      "inputs": [],
      "name": "logIn",
      "outputs": [
        {
          "internalType": "address",
          "name": "",
          "type": "address"
        },
        {
          "internalType": "string",
          "name": "",
          "type": "string"
        },
        {
          "internalType": "string",
          "name": "",
          "type": "string"
        },
        {
          "internalType": "string",
          "name": "",
          "type": "string"
        }
      ],
      "stateMutability": "view",
      "type": "function",
      "constant": true
    },
    {
      "inputs": [],
      "name": "test",
      "outputs": [
        {
          "internalType": "string",
          "name": "",
          "type": "string"
        }
      ],
      "stateMutability": "view",
      "type": "function",
      "constant": true
    }
  ],
  "bytecode": "0x608060405234801561001057600080fd5b50610cbf806100206000396000f3fe608060405234801561001057600080fd5b50600436106100575760003560e01c8063377b47a31461005c578063589218f11461007d57806371236ab0146100ad578063e452e722146100cb578063f8a8fd6d146100fb575b600080fd5b610064610119565b6040516100749493929190610857565b60405180910390f35b610097600480360381019061009291906109fa565b610396565b6040516100a49190610aec565b60405180910390f35b6100b561057c565b6040516100c29190610aec565b60405180910390f35b6100e560048036038101906100e09190610b07565b610624565b6040516100f29190610aec565b60405180910390f35b61010361069d565b6040516101109190610b50565b60405180910390f35b60006060806060336000803373ffffffffffffffffffffffffffffffffffffffff1673ffffffffffffffffffffffffffffffffffffffff1681526020019081526020016000206002016000803373ffffffffffffffffffffffffffffffffffffffff1673ffffffffffffffffffffffffffffffffffffffff1681526020019081526020016000206003016000803373ffffffffffffffffffffffffffffffffffffffff1673ffffffffffffffffffffffffffffffffffffffff1681526020019081526020016000206004018280546101f090610ba1565b80601f016020809104026020016040519081016040528092919081815260200182805461021c90610ba1565b80156102695780601f1061023e57610100808354040283529160200191610269565b820191906000526020600020905b81548152906001019060200180831161024c57829003601f168201915b5050505050925081805461027c90610ba1565b80601f01602080910402602001604051908101604052809291908181526020018280546102a890610ba1565b80156102f55780601f106102ca576101008083540402835291602001916102f5565b820191906000526020600020905b8154815290600101906020018083116102d857829003601f168201915b5050505050915080805461030890610ba1565b80601f016020809104026020016040519081016040528092919081815260200182805461033490610ba1565b80156103815780601f1061035657610100808354040283529160200191610381565b820191906000526020600020905b81548152906001019060200180831161036457829003601f168201915b50505050509050935093509350935090919293565b6000336000803373ffffffffffffffffffffffffffffffffffffffff1673ffffffffffffffffffffffffffffffffffffffff16815260200190815260200160002060000160006101000a81548173ffffffffffffffffffffffffffffffffffffffff021916908373ffffffffffffffffffffffffffffffffffffffff160217905550816000803373ffffffffffffffffffffffffffffffffffffffff1673ffffffffffffffffffffffffffffffffffffffff168152602001908152602001600020600101908051906020019061046d9291906106da565b50846000803373ffffffffffffffffffffffffffffffffffffffff1673ffffffffffffffffffffffffffffffffffffffff16815260200190815260200160002060020190805190602001906104c39291906106da565b50836000803373ffffffffffffffffffffffffffffffffffffffff1673ffffffffffffffffffffffffffffffffffffffff16815260200190815260200160002060030190805190602001906105199291906106da565b50826000803373ffffffffffffffffffffffffffffffffffffffff1673ffffffffffffffffffffffffffffffffffffffff168152602001908152602001600020600401908051906020019061056f9291906106da565b5060019050949350505050565b60003373ffffffffffffffffffffffffffffffffffffffff166000803373ffffffffffffffffffffffffffffffffffffffff1673ffffffffffffffffffffffffffffffffffffffff16815260200190815260200160002060000160009054906101000a900473ffffffffffffffffffffffffffffffffffffffff1673ffffffffffffffffffffffffffffffffffffffff16141561061c5760019050610621565b600090505b90565b600081805190602001206000803373ffffffffffffffffffffffffffffffffffffffff1673ffffffffffffffffffffffffffffffffffffffff16815260200190815260200160002060010160405161067c9190610c72565b604051809103902014156106935760019050610698565b600090505b919050565b60606040518060400160405280600f81526020017f42616768646164206361207661203f0000000000000000000000000000000000815250905090565b8280546106e690610ba1565b90600052602060002090601f016020900481019282610708576000855561074f565b82601f1061072157805160ff191683800117855561074f565b8280016001018555821561074f579182015b8281111561074e578251825591602001919060010190610733565b5b50905061075c9190610760565b5090565b5b80821115610779576000816000905550600101610761565b5090565b600073ffffffffffffffffffffffffffffffffffffffff82169050919050565b60006107a88261077d565b9050919050565b6107b88161079d565b82525050565b600081519050919050565b600082825260208201905092915050565b60005b838110156107f85780820151818401526020810190506107dd565b83811115610807576000848401525b50505050565b6000601f19601f8301169050919050565b6000610829826107be565b61083381856107c9565b93506108438185602086016107da565b61084c8161080d565b840191505092915050565b600060808201905061086c60008301876107af565b818103602083015261087e818661081e565b90508181036040830152610892818561081e565b905081810360608301526108a6818461081e565b905095945050505050565b6000604051905090565b600080fd5b600080fd5b600080fd5b600080fd5b7f4e487b7100000000000000000000000000000000000000000000000000000000600052604160045260246000fd5b6109078261080d565b810181811067ffffffffffffffff82111715610926576109256108cf565b5b80604052505050565b60006109396108b1565b905061094582826108fe565b919050565b600067ffffffffffffffff821115610965576109646108cf565b5b61096e8261080d565b9050602081019050919050565b82818337600083830152505050565b600061099d6109988461094a565b61092f565b9050828152602081018484840111156109b9576109b86108ca565b5b6109c484828561097b565b509392505050565b600082601f8301126109e1576109e06108c5565b5b81356109f184826020860161098a565b91505092915050565b60008060008060808587031215610a1457610a136108bb565b5b600085013567ffffffffffffffff811115610a3257610a316108c0565b5b610a3e878288016109cc565b945050602085013567ffffffffffffffff811115610a5f57610a5e6108c0565b5b610a6b878288016109cc565b935050604085013567ffffffffffffffff811115610a8c57610a8b6108c0565b5b610a98878288016109cc565b925050606085013567ffffffffffffffff811115610ab957610ab86108c0565b5b610ac5878288016109cc565b91505092959194509250565b60008115159050919050565b610ae681610ad1565b82525050565b6000602082019050610b016000830184610add565b92915050565b600060208284031215610b1d57610b1c6108bb565b5b600082013567ffffffffffffffff811115610b3b57610b3a6108c0565b5b610b47848285016109cc565b91505092915050565b60006020820190508181036000830152610b6a818461081e565b905092915050565b7f4e487b7100000000000000000000000000000000000000000000000000000000600052602260045260246000fd5b60006002820490506001821680610bb957607f821691505b60208210811415610bcd57610bcc610b72565b5b50919050565b600081905092915050565b60008190508160005260206000209050919050565b60008154610c0081610ba1565b610c0a8186610bd3565b94506001821660008114610c255760018114610c3657610c69565b60ff19831686528186019350610c69565b610c3f85610bde565b60005b83811015610c6157815481890152600182019150602081019050610c42565b838801955050505b50505092915050565b6000610c7e8284610bf3565b91508190509291505056fea26469706673582212206fe0a427787f244ab6ae7987f6ebbc4353b56b5c987f859425eebdacd688bc0564736f6c63430008090033",
  "immutableReferences": {},
  "source": "pragma solidity 0.8.9;\r\n\r\ncontract Authentication {\r\n\r\n    struct User{\r\n        address addressAccount;\r\n        string password;\r\n        string firstName;\r\n        string familyName;\r\n        string typeUser;\r\n    }\r\n\r\n    mapping(address => User) private users;\r\n\r\n    modifier youCanSignUp() {\r\n        require(users[msg.sender].addressAccount != msg.sender, \"You're already signed up\");\r\n        _;\r\n    }\r\n    modifier youCanLogIn() {\r\n        require(users[msg.sender].addressAccount == msg.sender, \"You have de sign up first\");\r\n        _;\r\n    }\r\n\r\n    constructor () {\r\n\r\n    }\r\n\r\n    function signUp(string memory _firstName, string memory _familyName, string memory _typeUser, string memory _password)\r\n    public returns (bool) {\r\n        users[msg.sender].addressAccount = msg.sender;\r\n        users[msg.sender].password = _password;\r\n        users[msg.sender].firstName = _firstName;\r\n        users[msg.sender].familyName = _familyName;\r\n        users[msg.sender].typeUser = _typeUser;\r\n        return true;\r\n    }\r\n\r\n    function areYouAlreadySignUp() public view returns (bool) {\r\n        if(users[msg.sender].addressAccount == msg.sender) return true;\r\n        return false;\r\n    }\r\n\r\n    function doesPasswordCorrect(string memory _password) public view returns (bool) {\r\n        if(keccak256(bytes(users[msg.sender].password)) == keccak256(bytes(_password))) return true;\r\n        return false;\r\n    }\r\n\r\n    function logIn() public view returns(address, string memory, string memory, string memory) {\r\n        return (msg.sender, users[msg.sender].firstName, users[msg.sender].familyName, users[msg.sender].typeUser);\r\n    }\r\n\r\n    function test() public view returns(string memory) {\r\n        return (\"Baghdad ca va ?\");\r\n    }\r\n}\r\n",
  "sourcePath": "C:\\Users\\Baghdad\\Desktop\\MyFutur\\walid-project\\contracts\\Authentication.sol",
  "compiler": {
    "name": "solc",
    "version": "0.8.9+commit.e5eed63a.Emscripten.clang"
  },
  "schemaVersion": "3.4.7",
  "updatedAt": "2022-05-12T21:57:40.783Z",
  "networkType": "ethereum",
  "devdoc": {
    "kind": "dev",
    "methods": {},
    "version": 1
  },
  "userdoc": {
    "kind": "user",
    "methods": {},
    "version": 1
  }
}