{
  "contractName": "Courses",
  "abi": [
    {
      "inputs": [],
      "stateMutability": "nonpayable",
      "type": "constructor"
    },
    {
      "inputs": [
        {
          "internalType": "string",
          "name": "_title",
          "type": "string"
        },
        {
          "internalType": "string",
          "name": "_resume",
          "type": "string"
        },
        {
          "internalType": "string",
          "name": "_urlPdf",
          "type": "string"
        },
        {
          "internalType": "string",
          "name": "_urlImage",
          "type": "string"
        }
      ],
      "name": "newCourse",
      "outputs": [
        {
          "internalType": "bool",
          "name": "_success",
          "type": "bool"
        }
      ],
      "stateMutability": "nonpayable",
      "type": "function"
    },
    {
      "inputs": [],
      "name": "ifCoursesIsEmpty",
      "outputs": [
        {
          "internalType": "bool",
          "name": "_success",
          "type": "bool"
        }
      ],
      "stateMutability": "view",
      "type": "function",
      "constant": true
    },
    {
      "inputs": [
        {
          "internalType": "uint256",
          "name": "_idCourse",
          "type": "uint256"
        },
        {
          "internalType": "string",
          "name": "_question",
          "type": "string"
        },
        {
          "internalType": "string[]",
          "name": "_answers",
          "type": "string[]"
        },
        {
          "internalType": "bool[]",
          "name": "_flags",
          "type": "bool[]"
        }
      ],
      "name": "addQuestionWithAnswersToCourse",
      "outputs": [
        {
          "internalType": "bool",
          "name": "_success",
          "type": "bool"
        }
      ],
      "stateMutability": "nonpayable",
      "type": "function"
    },
    {
      "inputs": [],
      "name": "getCourses",
      "outputs": [
        {
          "components": [
            {
              "internalType": "uint256",
              "name": "idCourse",
              "type": "uint256"
            },
            {
              "internalType": "string",
              "name": "title",
              "type": "string"
            },
            {
              "internalType": "string",
              "name": "resume",
              "type": "string"
            },
            {
              "internalType": "string",
              "name": "urlPdf",
              "type": "string"
            },
            {
              "internalType": "string",
              "name": "urlImage",
              "type": "string"
            },
            {
              "internalType": "uint256",
              "name": "timestamp",
              "type": "uint256"
            }
          ],
          "internalType": "struct Courses.Course[]",
          "name": "",
          "type": "tuple[]"
        }
      ],
      "stateMutability": "view",
      "type": "function",
      "constant": true
    },
    {
      "inputs": [
        {
          "internalType": "uint256",
          "name": "_idCourse",
          "type": "uint256"
        }
      ],
      "name": "ifThereIsQuestion",
      "outputs": [
        {
          "internalType": "bool",
          "name": "",
          "type": "bool"
        }
      ],
      "stateMutability": "view",
      "type": "function",
      "constant": true
    },
    {
      "inputs": [
        {
          "internalType": "uint256",
          "name": "_idCourse",
          "type": "uint256"
        }
      ],
      "name": "getQuestionsOfCourse",
      "outputs": [
        {
          "internalType": "string[]",
          "name": "",
          "type": "string[]"
        }
      ],
      "stateMutability": "view",
      "type": "function",
      "constant": true
    },
    {
      "inputs": [
        {
          "internalType": "uint256",
          "name": "_idCourse",
          "type": "uint256"
        },
        {
          "internalType": "uint256",
          "name": "_indexQuestion",
          "type": "uint256"
        }
      ],
      "name": "getAnswersOfQuestion",
      "outputs": [
        {
          "components": [
            {
              "internalType": "string",
              "name": "text",
              "type": "string"
            },
            {
              "internalType": "bool",
              "name": "flag",
              "type": "bool"
            }
          ],
          "internalType": "struct Courses.Answer[]",
          "name": "",
          "type": "tuple[]"
        }
      ],
      "stateMutability": "view",
      "type": "function",
      "constant": true
    },
    {
      "inputs": [
        {
          "internalType": "uint256",
          "name": "_idCourse",
          "type": "uint256"
        },
        {
          "internalType": "address",
          "name": "_adrStudent",
          "type": "address"
        }
      ],
      "name": "addAddressCertifiedStudent",
      "outputs": [
        {
          "internalType": "bool",
          "name": "_success",
          "type": "bool"
        }
      ],
      "stateMutability": "nonpayable",
      "type": "function"
    },
    {
      "inputs": [
        {
          "internalType": "uint256",
          "name": "_idCourse",
          "type": "uint256"
        }
      ],
      "name": "getAddressesCertifiedStudentsByCourseID",
      "outputs": [
        {
          "internalType": "address[]",
          "name": "",
          "type": "address[]"
        }
      ],
      "stateMutability": "view",
      "type": "function",
      "constant": true
    }
  ],
  "bytecode": "0x608060405234801561001057600080fd5b506000808190555061192e806100276000396000f3fe608060405234801561001057600080fd5b50600436106100935760003560e01c806394ef0a8c1161006657806394ef0a8c14610146578063a29fd14814610176578063b0ff97c5146101a6578063cc126479146101d6578063cff1c1db146101f457610093565b806343cdb7ce146100985780634a12a9b6146100c85780636048dbdc146100f85780638bea7ff314610128575b600080fd5b6100b260048036038101906100ad9190610c8d565b610224565b6040516100bf9190610daa565b60405180910390f35b6100e260048036038101906100dd9190610df8565b6102c5565b6040516100ef9190610e53565b60405180910390f35b610112600480360381019061010d9190610e6e565b610345565b60405161011f9190611055565b60405180910390f35b610130610476565b60405161013d9190610e53565b60405180910390f35b610160600480360381019061015b9190610c8d565b610493565b60405161016d9190610e53565b60405180910390f35b610190600480360381019061018b9190610c8d565b6104c6565b60405161019d9190611139565b60405180910390f35b6101c060048036038101906101bb9190611465565b6105b2565b6040516101cd9190610e53565b60405180910390f35b6101de610732565b6040516101eb919061168f565b60405180910390f35b61020e600480360381019061020991906116b1565b610a5c565b60405161021b9190610e53565b60405180910390f35b6060600460008381526020019081526020016000208054806020026020016040519081016040528092919081815260200182805480156102b957602002820191906000526020600020905b8160009054906101000a900473ffffffffffffffffffffffffffffffffffffffff1673ffffffffffffffffffffffffffffffffffffffff168152602001906001019080831161026f575b50505050509050919050565b600060046000848152602001908152602001600020829080600181540180825580915050600190039060005260206000200160009091909190916101000a81548173ffffffffffffffffffffffffffffffffffffffff021916908373ffffffffffffffffffffffffffffffffffffffff1602179055506001905092915050565b6060600360008481526020019081526020016000206000838152602001908152602001600020805480602002602001604051908101604052809291908181526020016000905b8282101561046a57838290600052602060002090600202016040518060400160405290816000820180546103be906117b7565b80601f01602080910402602001604051908101604052809291908181526020018280546103ea906117b7565b80156104375780601f1061040c57610100808354040283529160200191610437565b820191906000526020600020905b81548152906001019060200180831161041a57829003601f168201915b505050505081526020016001820160009054906101000a900460ff1615151515815250508152602001906001019061038b565b50505050905092915050565b600080600054111561048b5760009050610490565b600190505b90565b600080600260008481526020019081526020016000208054905011156104bc57600190506104c1565b600090505b919050565b606060026000838152602001908152602001600020805480602002602001604051908101604052809291908181526020016000905b828210156105a757838290600052602060002001805461051a906117b7565b80601f0160208091040260200160405190810160405280929190818152602001828054610546906117b7565b80156105935780601f1061056857610100808354040283529160200191610593565b820191906000526020600020905b81548152906001019060200180831161057657829003601f168201915b5050505050815260200190600101906104fb565b505050509050919050565b60006002600086815260200190815260200160002084908060018154018082558091505060019003906000526020600020016000909190919091509080519060200190610600929190610b6a565b506000600160026000888152602001908152602001600020805490506106269190611817565b905060005b845181101561072457600060405180604001604052808784815181106106545761065361184b565b5b602002602001015181526020018684815181106106745761067361184b565b5b60200260200101511515815250905060036000898152602001908152602001600020600084815260200190815260200160002081908060018154018082558091505060019003906000526020600020906002020160009091909190915060008201518160000190805190602001906106ed929190610b6a565b5060208201518160010160006101000a81548160ff021916908315150217905550505050808061071c9061187a565b91505061062b565b506001915050949350505050565b60606000805467ffffffffffffffff81111561075157610750611165565b5b60405190808252806020026020018201604052801561078a57816020015b610777610bf0565b81526020019060019003908161076f5790505b50905060005b6000548160ff161015610a54576000600160008360ff1681526020019081526020016000209050806040518060c0016040529081600082015481526020016001820180546107dd906117b7565b80601f0160208091040260200160405190810160405280929190818152602001828054610809906117b7565b80156108565780601f1061082b57610100808354040283529160200191610856565b820191906000526020600020905b81548152906001019060200180831161083957829003601f168201915b5050505050815260200160028201805461086f906117b7565b80601f016020809104026020016040519081016040528092919081815260200182805461089b906117b7565b80156108e85780601f106108bd576101008083540402835291602001916108e8565b820191906000526020600020905b8154815290600101906020018083116108cb57829003601f168201915b50505050508152602001600382018054610901906117b7565b80601f016020809104026020016040519081016040528092919081815260200182805461092d906117b7565b801561097a5780601f1061094f5761010080835404028352916020019161097a565b820191906000526020600020905b81548152906001019060200180831161095d57829003601f168201915b50505050508152602001600482018054610993906117b7565b80601f01602080910402602001604051908101604052809291908181526020018280546109bf906117b7565b8015610a0c5780601f106109e157610100808354040283529160200191610a0c565b820191906000526020600020905b8154815290600101906020018083116109ef57829003601f168201915b50505050508152602001600582015481525050838360ff1681518110610a3557610a3461184b565b5b6020026020010181905250508080610a4c906118cf565b915050610790565b508091505090565b600080546001600080548152602001908152602001600020600001819055508460016000805481526020019081526020016000206001019080519060200190610aa6929190610b6a565b508360016000805481526020019081526020016000206002019080519060200190610ad2929190610b6a565b508260016000805481526020019081526020016000206003019080519060200190610afe929190610b6a565b508160016000805481526020019081526020016000206004019080519060200190610b2a929190610b6a565b5042600160008054815260200190815260200160002060050181905550600080815480929190610b599061187a565b919050555060019050949350505050565b828054610b76906117b7565b90600052602060002090601f016020900481019282610b985760008555610bdf565b82601f10610bb157805160ff1916838001178555610bdf565b82800160010185558215610bdf579182015b82811115610bde578251825591602001919060010190610bc3565b5b509050610bec9190610c26565b5090565b6040518060c001604052806000815260200160608152602001606081526020016060815260200160608152602001600081525090565b5b80821115610c3f576000816000905550600101610c27565b5090565b6000604051905090565b600080fd5b600080fd5b6000819050919050565b610c6a81610c57565b8114610c7557600080fd5b50565b600081359050610c8781610c61565b92915050565b600060208284031215610ca357610ca2610c4d565b5b6000610cb184828501610c78565b91505092915050565b600081519050919050565b600082825260208201905092915050565b6000819050602082019050919050565b600073ffffffffffffffffffffffffffffffffffffffff82169050919050565b6000610d1182610ce6565b9050919050565b610d2181610d06565b82525050565b6000610d338383610d18565b60208301905092915050565b6000602082019050919050565b6000610d5782610cba565b610d618185610cc5565b9350610d6c83610cd6565b8060005b83811015610d9d578151610d848882610d27565b9750610d8f83610d3f565b925050600181019050610d70565b5085935050505092915050565b60006020820190508181036000830152610dc48184610d4c565b905092915050565b610dd581610d06565b8114610de057600080fd5b50565b600081359050610df281610dcc565b92915050565b60008060408385031215610e0f57610e0e610c4d565b5b6000610e1d85828601610c78565b9250506020610e2e85828601610de3565b9150509250929050565b60008115159050919050565b610e4d81610e38565b82525050565b6000602082019050610e686000830184610e44565b92915050565b60008060408385031215610e8557610e84610c4d565b5b6000610e9385828601610c78565b9250506020610ea485828601610c78565b9150509250929050565b600081519050919050565b600082825260208201905092915050565b6000819050602082019050919050565b600081519050919050565b600082825260208201905092915050565b60005b83811015610f14578082015181840152602081019050610ef9565b83811115610f23576000848401525b50505050565b6000601f19601f8301169050919050565b6000610f4582610eda565b610f4f8185610ee5565b9350610f5f818560208601610ef6565b610f6881610f29565b840191505092915050565b610f7c81610e38565b82525050565b60006040830160008301518482036000860152610f9f8282610f3a565b9150506020830151610fb46020860182610f73565b508091505092915050565b6000610fcb8383610f82565b905092915050565b6000602082019050919050565b6000610feb82610eae565b610ff58185610eb9565b93508360208202850161100785610eca565b8060005b8581101561104357848403895281516110248582610fbf565b945061102f83610fd3565b925060208a0199505060018101905061100b565b50829750879550505050505092915050565b6000602082019050818103600083015261106f8184610fe0565b905092915050565b600081519050919050565b600082825260208201905092915050565b6000819050602082019050919050565b60006110af8383610f3a565b905092915050565b6000602082019050919050565b60006110cf82611077565b6110d98185611082565b9350836020820285016110eb85611093565b8060005b85811015611127578484038952815161110885826110a3565b9450611113836110b7565b925060208a019950506001810190506110ef565b50829750879550505050505092915050565b6000602082019050818103600083015261115381846110c4565b905092915050565b600080fd5b600080fd5b7f4e487b7100000000000000000000000000000000000000000000000000000000600052604160045260246000fd5b61119d82610f29565b810181811067ffffffffffffffff821117156111bc576111bb611165565b5b80604052505050565b60006111cf610c43565b90506111db8282611194565b919050565b600067ffffffffffffffff8211156111fb576111fa611165565b5b61120482610f29565b9050602081019050919050565b82818337600083830152505050565b600061123361122e846111e0565b6111c5565b90508281526020810184848401111561124f5761124e611160565b5b61125a848285611211565b509392505050565b600082601f8301126112775761127661115b565b5b8135611287848260208601611220565b91505092915050565b600067ffffffffffffffff8211156112ab576112aa611165565b5b602082029050602081019050919050565b600080fd5b60006112d46112cf84611290565b6111c5565b905080838252602082019050602084028301858111156112f7576112f66112bc565b5b835b8181101561133e57803567ffffffffffffffff81111561131c5761131b61115b565b5b8086016113298982611262565b855260208501945050506020810190506112f9565b5050509392505050565b600082601f83011261135d5761135c61115b565b5b813561136d8482602086016112c1565b91505092915050565b600067ffffffffffffffff82111561139157611390611165565b5b602082029050602081019050919050565b6113ab81610e38565b81146113b657600080fd5b50565b6000813590506113c8816113a2565b92915050565b60006113e16113dc84611376565b6111c5565b90508083825260208201905060208402830185811115611404576114036112bc565b5b835b8181101561142d578061141988826113b9565b845260208401935050602081019050611406565b5050509392505050565b600082601f83011261144c5761144b61115b565b5b813561145c8482602086016113ce565b91505092915050565b6000806000806080858703121561147f5761147e610c4d565b5b600061148d87828801610c78565b945050602085013567ffffffffffffffff8111156114ae576114ad610c52565b5b6114ba87828801611262565b935050604085013567ffffffffffffffff8111156114db576114da610c52565b5b6114e787828801611348565b925050606085013567ffffffffffffffff81111561150857611507610c52565b5b61151487828801611437565b91505092959194509250565b600081519050919050565b600082825260208201905092915050565b6000819050602082019050919050565b61155581610c57565b82525050565b600060c083016000830151611573600086018261154c565b506020830151848203602086015261158b8282610f3a565b915050604083015184820360408601526115a58282610f3a565b915050606083015184820360608601526115bf8282610f3a565b915050608083015184820360808601526115d98282610f3a565b91505060a08301516115ee60a086018261154c565b508091505092915050565b6000611605838361155b565b905092915050565b6000602082019050919050565b600061162582611520565b61162f818561152b565b9350836020820285016116418561153c565b8060005b8581101561167d578484038952815161165e85826115f9565b94506116698361160d565b925060208a01995050600181019050611645565b50829750879550505050505092915050565b600060208201905081810360008301526116a9818461161a565b905092915050565b600080600080608085870312156116cb576116ca610c4d565b5b600085013567ffffffffffffffff8111156116e9576116e8610c52565b5b6116f587828801611262565b945050602085013567ffffffffffffffff81111561171657611715610c52565b5b61172287828801611262565b935050604085013567ffffffffffffffff81111561174357611742610c52565b5b61174f87828801611262565b925050606085013567ffffffffffffffff8111156117705761176f610c52565b5b61177c87828801611262565b91505092959194509250565b7f4e487b7100000000000000000000000000000000000000000000000000000000600052602260045260246000fd5b600060028204905060018216806117cf57607f821691505b6020821081036117e2576117e1611788565b5b50919050565b7f4e487b7100000000000000000000000000000000000000000000000000000000600052601160045260246000fd5b600061182282610c57565b915061182d83610c57565b9250828210156118405761183f6117e8565b5b828203905092915050565b7f4e487b7100000000000000000000000000000000000000000000000000000000600052603260045260246000fd5b600061188582610c57565b91507fffffffffffffffffffffffffffffffffffffffffffffffffffffffffffffffff82036118b7576118b66117e8565b5b600182019050919050565b600060ff82169050919050565b60006118da826118c2565b915060ff82036118ed576118ec6117e8565b5b60018201905091905056fea2646970667358221220c861e6563c225958f9fa853af3eda62cd582cee0a6e1213c45a9be11a55b0ecb64736f6c634300080d0033",
  "immutableReferences": {},
  "source": "pragma solidity 0.8.13;\r\n\r\ncontract Courses {\r\n\r\n    struct Course {\r\n        uint idCourse;\r\n        string title;\r\n        string resume;\r\n        string urlPdf;\r\n        string urlImage;\r\n        uint timestamp;\r\n    }\r\n\r\n    constructor () {\r\n        nbrCourses = 0;\r\n    }\r\n\r\n    struct Answer {\r\n        string text;\r\n        bool flag;\r\n    }\r\n\r\n    struct QuestionAnswer {\r\n        string question;\r\n    }\r\n\r\n    uint private nbrCourses;\r\n    mapping (uint => Course) private courses;\r\n    mapping (uint => string[]) private questions;\r\n    mapping (uint => mapping (uint => Answer[])) answers;\r\n    mapping (uint => address[]) private certifiedStudents;\r\n\r\n    function newCourse (string memory _title, string memory _resume, string memory _urlPdf, string memory _urlImage) public returns (bool _success){\r\n        courses[nbrCourses].idCourse = nbrCourses;\r\n        courses[nbrCourses].title = _title;\r\n        courses[nbrCourses].resume = _resume;\r\n        courses[nbrCourses].urlPdf = _urlPdf;\r\n        courses[nbrCourses].urlImage = _urlImage;\r\n        courses[nbrCourses].timestamp = block.timestamp;\r\n        nbrCourses++;\r\n        return true;\r\n    }\r\n\r\n    function ifCoursesIsEmpty() public view returns (bool _success) {\r\n        if(nbrCourses > 0) return false;\r\n        return true;\r\n    }\r\n\r\n    function addQuestionWithAnswersToCourse(uint _idCourse, string memory _question, string[] memory _answers, bool[] memory _flags)\r\n    public\r\n    returns(bool _success){\r\n        questions[_idCourse].push(_question);\r\n        uint indexQuestion = questions[_idCourse].length - 1;\r\n        for(uint i = 0; i < _answers.length; i++){\r\n            Answer memory answer = Answer({text: _answers[i], flag: _flags[i]});\r\n            answers[_idCourse][indexQuestion].push(answer);\r\n        }\r\n        return true;\r\n    }\r\n\r\n    function getCourses() public view returns (Course[] memory){\r\n        Course[] memory arrCourses = new Course[](nbrCourses);\r\n        for(uint8 i = 0; i < nbrCourses; i++){\r\n            Course storage course = courses[i];\r\n            arrCourses[i] = course;\r\n        }\r\n        return arrCourses;\r\n    }\r\n\r\n    function ifThereIsQuestion(uint _idCourse) public view returns(bool){\r\n        if(questions[_idCourse].length > 0) return true;\r\n        return false;\r\n    }\r\n\r\n    function getQuestionsOfCourse(uint _idCourse) public view returns(string[] memory){\r\n        return questions[_idCourse];\r\n    }\r\n\r\n    function getAnswersOfQuestion(uint _idCourse, uint _indexQuestion) public view returns(Answer[] memory){\r\n        return answers[_idCourse][_indexQuestion];\r\n    }\r\n\r\n    function addAddressCertifiedStudent(uint _idCourse, address _adrStudent) public returns(bool _success){\r\n        certifiedStudents[_idCourse].push(_adrStudent);\r\n        return true;\r\n    }\r\n\r\n    function getAddressesCertifiedStudentsByCourseID(uint _idCourse) public view returns(address[] memory){\r\n        return certifiedStudents[_idCourse];\r\n    }\r\n}\r\n",
  "sourcePath": "C:\\Users\\Baghdad\\Desktop\\MyFutur\\walid-project\\contracts\\Courses.sol",
  "compiler": {
    "name": "solc",
    "version": "0.8.13+commit.abaa5c0e.Emscripten.clang"
  },
  "schemaVersion": "3.4.7",
  "updatedAt": "2022-05-25T15:35:09.852Z",
  "networkType": "ethereum",
  "devdoc": {
    "kind": "dev",
    "methods": {},
    "version": 1
  },
  "userdoc": {
    "kind": "user",
    "methods": {},
    "version": 1
  }
}