{
  "contractName": "Courses",
  "abi": [
    {
      "inputs": [
        {
          "internalType": "string",
          "name": "_title",
          "type": "string"
        },
        {
          "internalType": "string",
          "name": "_resume",
          "type": "string"
        },
        {
          "internalType": "string",
          "name": "_urlPdf",
          "type": "string"
        },
        {
          "internalType": "string",
          "name": "_urlImage",
          "type": "string"
        }
      ],
      "name": "newCourse",
      "outputs": [
        {
          "internalType": "bool",
          "name": "",
          "type": "bool"
        }
      ],
      "stateMutability": "nonpayable",
      "type": "function"
    },
    {
      "inputs": [],
      "name": "getCourses",
      "outputs": [
        {
          "components": [
            {
              "internalType": "uint256",
              "name": "idCourse",
              "type": "uint256"
            },
            {
              "internalType": "string",
              "name": "title",
              "type": "string"
            },
            {
              "internalType": "string",
              "name": "resume",
              "type": "string"
            },
            {
              "internalType": "string",
              "name": "urlPdf",
              "type": "string"
            },
            {
              "internalType": "string",
              "name": "urlImage",
              "type": "string"
            },
            {
              "internalType": "uint256",
              "name": "timestamp",
              "type": "uint256"
            }
          ],
          "internalType": "struct Courses.Course[]",
          "name": "",
          "type": "tuple[]"
        }
      ],
      "stateMutability": "view",
      "type": "function",
      "constant": true
    },
    {
      "inputs": [
        {
          "internalType": "uint256",
          "name": "_idCourse",
          "type": "uint256"
        },
        {
          "internalType": "string",
          "name": "_question",
          "type": "string"
        },
        {
          "internalType": "string",
          "name": "_answer",
          "type": "string"
        }
      ],
      "name": "addQuestionAnswerToCourse",
      "outputs": [
        {
          "internalType": "bool",
          "name": "",
          "type": "bool"
        }
      ],
      "stateMutability": "nonpayable",
      "type": "function"
    },
    {
      "inputs": [
        {
          "internalType": "uint256",
          "name": "_idCourse",
          "type": "uint256"
        }
      ],
      "name": "getCourseById",
      "outputs": [
        {
          "components": [
            {
              "internalType": "uint256",
              "name": "idCourse",
              "type": "uint256"
            },
            {
              "internalType": "string",
              "name": "title",
              "type": "string"
            },
            {
              "internalType": "string",
              "name": "resume",
              "type": "string"
            },
            {
              "internalType": "string",
              "name": "urlPdf",
              "type": "string"
            },
            {
              "internalType": "string",
              "name": "urlImage",
              "type": "string"
            },
            {
              "internalType": "uint256",
              "name": "timestamp",
              "type": "uint256"
            }
          ],
          "internalType": "struct Courses.Course",
          "name": "",
          "type": "tuple"
        }
      ],
      "stateMutability": "view",
      "type": "function",
      "constant": true
    },
    {
      "inputs": [
        {
          "internalType": "uint256",
          "name": "_idCourse",
          "type": "uint256"
        },
        {
          "internalType": "address",
          "name": "_adrStudent",
          "type": "address"
        }
      ],
      "name": "addAddressCertifiedStudent",
      "outputs": [
        {
          "internalType": "bool",
          "name": "",
          "type": "bool"
        }
      ],
      "stateMutability": "nonpayable",
      "type": "function"
    },
    {
      "inputs": [
        {
          "internalType": "uint256",
          "name": "_idCourse",
          "type": "uint256"
        }
      ],
      "name": "getAddressesCertifiedStudentsByCourseID",
      "outputs": [
        {
          "internalType": "address[]",
          "name": "",
          "type": "address[]"
        }
      ],
      "stateMutability": "view",
      "type": "function",
      "constant": true
    }
  ],
  "bytecode": "0x60806040526000805534801561001457600080fd5b5061140c806100246000396000f3fe608060405234801561001057600080fd5b50600436106100625760003560e01c806343cdb7ce146100675780634a12a9b614610097578063710f72f8146100c7578063cc126479146100f7578063cff1c1db14610115578063ea5b210f14610145575b600080fd5b610081600480360381019061007c9190610b38565b610175565b60405161008e9190610c55565b60405180910390f35b6100b160048036038101906100ac9190610ca3565b610216565b6040516100be9190610cfe565b60405180910390f35b6100e160048036038101906100dc9190610e5f565b610296565b6040516100ee9190610cfe565b60405180910390f35b6100ff610337565b60405161010c91906110e1565b60405180910390f35b61012f600480360381019061012a9190611103565b610664565b60405161013c9190610cfe565b60405180910390f35b61015f600480360381019061015a9190610b38565b610772565b60405161016c9190611278565b60405180910390f35b60606003600083815260200190815260200160002080548060200260200160405190810160405280929190818152602001828054801561020a57602002820191906000526020600020905b8160009054906101000a900473ffffffffffffffffffffffffffffffffffffffff1673ffffffffffffffffffffffffffffffffffffffff16815260200190600101908083116101c0575b50505050509050919050565b600060036000848152602001908152602001600020829080600181540180825580915050600190039060005260206000200160009091909190916101000a81548173ffffffffffffffffffffffffffffffffffffffff021916908373ffffffffffffffffffffffffffffffffffffffff1602179055506001905092915050565b60006102a06109fb565b83816000018190525082816020018190525060026000868152602001908152602001600020819080600181540180825580915050600190039060005260206000209060020201600090919091909150600082015181600001908051906020019061030b929190610a15565b506020820151816001019080519060200190610328929190610a15565b50505060019150509392505050565b60606000805467ffffffffffffffff81111561035657610355610d34565b5b60405190808252806020026020018201604052801561038f57816020015b61037c610a9b565b8152602001906001900390816103745790505b5090506000600190505b6000548160ff161161065c576000600160008360ff1681526020019081526020016000209050806040518060c0016040529081600082015481526020016001820180546103e5906112c9565b80601f0160208091040260200160405190810160405280929190818152602001828054610411906112c9565b801561045e5780601f106104335761010080835404028352916020019161045e565b820191906000526020600020905b81548152906001019060200180831161044157829003601f168201915b50505050508152602001600282018054610477906112c9565b80601f01602080910402602001604051908101604052809291908181526020018280546104a3906112c9565b80156104f05780601f106104c5576101008083540402835291602001916104f0565b820191906000526020600020905b8154815290600101906020018083116104d357829003601f168201915b50505050508152602001600382018054610509906112c9565b80601f0160208091040260200160405190810160405280929190818152602001828054610535906112c9565b80156105825780601f1061055757610100808354040283529160200191610582565b820191906000526020600020905b81548152906001019060200180831161056557829003601f168201915b5050505050815260200160048201805461059b906112c9565b80601f01602080910402602001604051908101604052809291908181526020018280546105c7906112c9565b80156106145780601f106105e957610100808354040283529160200191610614565b820191906000526020600020905b8154815290600101906020018083116105f757829003601f168201915b50505050508152602001600582015481525050838360ff168151811061063d5761063c6112fa565b5b602002602001018190525050808061065490611365565b915050610399565b508091505090565b6000805460016000805481526020019081526020016000206000018190555084600160008054815260200190815260200160002060010190805190602001906106ae929190610a15565b5083600160008054815260200190815260200160002060020190805190602001906106da929190610a15565b508260016000805481526020019081526020016000206003019080519060200190610706929190610a15565b508160016000805481526020019081526020016000206004019080519060200190610732929190610a15565b50426001600080548152602001908152602001600020600501819055506000808154809291906107619061138e565b919050555060019050949350505050565b61077a610a9b565b600160008381526020019081526020016000206040518060c0016040529081600082015481526020016001820180546107b2906112c9565b80601f01602080910402602001604051908101604052809291908181526020018280546107de906112c9565b801561082b5780601f106108005761010080835404028352916020019161082b565b820191906000526020600020905b81548152906001019060200180831161080e57829003601f168201915b50505050508152602001600282018054610844906112c9565b80601f0160208091040260200160405190810160405280929190818152602001828054610870906112c9565b80156108bd5780601f10610892576101008083540402835291602001916108bd565b820191906000526020600020905b8154815290600101906020018083116108a057829003601f168201915b505050505081526020016003820180546108d6906112c9565b80601f0160208091040260200160405190810160405280929190818152602001828054610902906112c9565b801561094f5780601f106109245761010080835404028352916020019161094f565b820191906000526020600020905b81548152906001019060200180831161093257829003601f168201915b50505050508152602001600482018054610968906112c9565b80601f0160208091040260200160405190810160405280929190818152602001828054610994906112c9565b80156109e15780601f106109b6576101008083540402835291602001916109e1565b820191906000526020600020905b8154815290600101906020018083116109c457829003601f168201915b505050505081526020016005820154815250509050919050565b604051806040016040528060608152602001606081525090565b828054610a21906112c9565b90600052602060002090601f016020900481019282610a435760008555610a8a565b82601f10610a5c57805160ff1916838001178555610a8a565b82800160010185558215610a8a579182015b82811115610a89578251825591602001919060010190610a6e565b5b509050610a979190610ad1565b5090565b6040518060c001604052806000815260200160608152602001606081526020016060815260200160608152602001600081525090565b5b80821115610aea576000816000905550600101610ad2565b5090565b6000604051905090565b600080fd5b600080fd5b6000819050919050565b610b1581610b02565b8114610b2057600080fd5b50565b600081359050610b3281610b0c565b92915050565b600060208284031215610b4e57610b4d610af8565b5b6000610b5c84828501610b23565b91505092915050565b600081519050919050565b600082825260208201905092915050565b6000819050602082019050919050565b600073ffffffffffffffffffffffffffffffffffffffff82169050919050565b6000610bbc82610b91565b9050919050565b610bcc81610bb1565b82525050565b6000610bde8383610bc3565b60208301905092915050565b6000602082019050919050565b6000610c0282610b65565b610c0c8185610b70565b9350610c1783610b81565b8060005b83811015610c48578151610c2f8882610bd2565b9750610c3a83610bea565b925050600181019050610c1b565b5085935050505092915050565b60006020820190508181036000830152610c6f8184610bf7565b905092915050565b610c8081610bb1565b8114610c8b57600080fd5b50565b600081359050610c9d81610c77565b92915050565b60008060408385031215610cba57610cb9610af8565b5b6000610cc885828601610b23565b9250506020610cd985828601610c8e565b9150509250929050565b60008115159050919050565b610cf881610ce3565b82525050565b6000602082019050610d136000830184610cef565b92915050565b600080fd5b600080fd5b6000601f19601f8301169050919050565b7f4e487b7100000000000000000000000000000000000000000000000000000000600052604160045260246000fd5b610d6c82610d23565b810181811067ffffffffffffffff82111715610d8b57610d8a610d34565b5b80604052505050565b6000610d9e610aee565b9050610daa8282610d63565b919050565b600067ffffffffffffffff821115610dca57610dc9610d34565b5b610dd382610d23565b9050602081019050919050565b82818337600083830152505050565b6000610e02610dfd84610daf565b610d94565b905082815260208101848484011115610e1e57610e1d610d1e565b5b610e29848285610de0565b509392505050565b600082601f830112610e4657610e45610d19565b5b8135610e56848260208601610def565b91505092915050565b600080600060608486031215610e7857610e77610af8565b5b6000610e8686828701610b23565b935050602084013567ffffffffffffffff811115610ea757610ea6610afd565b5b610eb386828701610e31565b925050604084013567ffffffffffffffff811115610ed457610ed3610afd565b5b610ee086828701610e31565b9150509250925092565b600081519050919050565b600082825260208201905092915050565b6000819050602082019050919050565b610f1f81610b02565b82525050565b600081519050919050565b600082825260208201905092915050565b60005b83811015610f5f578082015181840152602081019050610f44565b83811115610f6e576000848401525b50505050565b6000610f7f82610f25565b610f898185610f30565b9350610f99818560208601610f41565b610fa281610d23565b840191505092915050565b600060c083016000830151610fc56000860182610f16565b5060208301518482036020860152610fdd8282610f74565b91505060408301518482036040860152610ff78282610f74565b915050606083015184820360608601526110118282610f74565b9150506080830151848203608086015261102b8282610f74565b91505060a083015161104060a0860182610f16565b508091505092915050565b60006110578383610fad565b905092915050565b6000602082019050919050565b600061107782610eea565b6110818185610ef5565b93508360208202850161109385610f06565b8060005b858110156110cf57848403895281516110b0858261104b565b94506110bb8361105f565b925060208a01995050600181019050611097565b50829750879550505050505092915050565b600060208201905081810360008301526110fb818461106c565b905092915050565b6000806000806080858703121561111d5761111c610af8565b5b600085013567ffffffffffffffff81111561113b5761113a610afd565b5b61114787828801610e31565b945050602085013567ffffffffffffffff81111561116857611167610afd565b5b61117487828801610e31565b935050604085013567ffffffffffffffff81111561119557611194610afd565b5b6111a187828801610e31565b925050606085013567ffffffffffffffff8111156111c2576111c1610afd565b5b6111ce87828801610e31565b91505092959194509250565b600060c0830160008301516111f26000860182610f16565b506020830151848203602086015261120a8282610f74565b915050604083015184820360408601526112248282610f74565b9150506060830151848203606086015261123e8282610f74565b915050608083015184820360808601526112588282610f74565b91505060a083015161126d60a0860182610f16565b508091505092915050565b6000602082019050818103600083015261129281846111da565b905092915050565b7f4e487b7100000000000000000000000000000000000000000000000000000000600052602260045260246000fd5b600060028204905060018216806112e157607f821691505b6020821081036112f4576112f361129a565b5b50919050565b7f4e487b7100000000000000000000000000000000000000000000000000000000600052603260045260246000fd5b7f4e487b7100000000000000000000000000000000000000000000000000000000600052601160045260246000fd5b600060ff82169050919050565b600061137082611358565b915060ff820361138357611382611329565b5b600182019050919050565b600061139982610b02565b91507fffffffffffffffffffffffffffffffffffffffffffffffffffffffffffffffff82036113cb576113ca611329565b5b60018201905091905056fea2646970667358221220bfb434220d6f1bf298480facd16acaeed01816b9e93ecb1cb4376af8f81dbee364736f6c634300080d0033",
  "immutableReferences": {},
  "source": "pragma solidity 0.8.13;\r\n\r\ncontract Courses{\r\n\r\n    struct QuestionAnswer {\r\n        string question;\r\n        string answer;\r\n    }\r\n\r\n    struct Course {\r\n        uint idCourse;\r\n        string title;\r\n        string resume;\r\n        string urlPdf;\r\n        string urlImage;\r\n        uint timestamp;\r\n    }\r\n\r\n    uint private nbrCourses = 0;\r\n    mapping (uint => Course) private courses;\r\n    mapping (uint => QuestionAnswer[]) private questionsAnswers;\r\n    mapping (uint => address[]) private certifiedStudents;\r\n\r\n    function newCourse (string memory _title, string memory _resume, string memory _urlPdf, string memory _urlImage) public returns (bool){\r\n        courses[nbrCourses].idCourse = nbrCourses;\r\n        courses[nbrCourses].title = _title;\r\n        courses[nbrCourses].resume = _resume;\r\n        courses[nbrCourses].urlPdf = _urlPdf;\r\n        courses[nbrCourses].urlImage = _urlImage;\r\n        courses[nbrCourses].timestamp = block.timestamp;\r\n        nbrCourses++;\r\n        return true;\r\n    }\r\n\r\n    function getCourses() public view returns (Course[] memory){\r\n        Course[] memory arrCourses = new Course[](nbrCourses);\r\n        for(uint8 i = 1; i <= nbrCourses; i++){\r\n            Course storage course = courses[i];\r\n            arrCourses[i] = course;\r\n        }\r\n        return arrCourses;\r\n    }\r\n\r\n    function addQuestionAnswerToCourse(uint _idCourse, string memory _question, string memory _answer) public returns(bool){\r\n        QuestionAnswer memory questionAnswer;\r\n        questionAnswer.question = _question;\r\n        questionAnswer.answer = _answer;\r\n        questionsAnswers[_idCourse].push(questionAnswer);\r\n        return true;\r\n    }\r\n\r\n    function getCourseById(uint _idCourse) public view returns (Course memory){\r\n        return courses[_idCourse];\r\n    }\r\n\r\n    function addAddressCertifiedStudent(uint _idCourse, address _adrStudent) public returns(bool){\r\n        certifiedStudents[_idCourse].push(_adrStudent);\r\n        return true;\r\n    }\r\n\r\n    function getAddressesCertifiedStudentsByCourseID(uint _idCourse) public view returns(address[] memory){\r\n        return certifiedStudents[_idCourse];\r\n    }\r\n}\r\n",
  "sourcePath": "C:\\Users\\Baghdad\\Desktop\\MyFutur\\walid-project\\contracts\\Courses.sol",
  "compiler": {
    "name": "solc",
    "version": "0.8.13+commit.abaa5c0e.Emscripten.clang"
  },
  "schemaVersion": "3.4.7",
  "updatedAt": "2022-05-15T20:56:23.229Z",
  "networkType": "ethereum",
  "devdoc": {
    "kind": "dev",
    "methods": {},
    "version": 1
  },
  "userdoc": {
    "kind": "user",
    "methods": {},
    "version": 1
  }
}