{
  "contractName": "Courses",
  "abi": [
    {
      "inputs": [
        {
          "internalType": "string",
          "name": "_title",
          "type": "string"
        },
        {
          "internalType": "string",
          "name": "_resume",
          "type": "string"
        },
        {
          "internalType": "string",
          "name": "_urlPdf",
          "type": "string"
        },
        {
          "internalType": "string",
          "name": "_urlImage",
          "type": "string"
        }
      ],
      "name": "newCourse",
      "outputs": [
        {
          "internalType": "bool",
          "name": "",
          "type": "bool"
        }
      ],
      "stateMutability": "nonpayable",
      "type": "function"
    },
    {
      "inputs": [],
      "name": "ifCoursesIsEmpty",
      "outputs": [
        {
          "internalType": "bool",
          "name": "",
          "type": "bool"
        }
      ],
      "stateMutability": "view",
      "type": "function",
      "constant": true
    },
    {
      "inputs": [],
      "name": "getCourses",
      "outputs": [
        {
          "components": [
            {
              "internalType": "uint256",
              "name": "idCourse",
              "type": "uint256"
            },
            {
              "internalType": "string",
              "name": "title",
              "type": "string"
            },
            {
              "internalType": "string",
              "name": "resume",
              "type": "string"
            },
            {
              "internalType": "string",
              "name": "urlPdf",
              "type": "string"
            },
            {
              "internalType": "string",
              "name": "urlImage",
              "type": "string"
            },
            {
              "internalType": "uint256",
              "name": "timestamp",
              "type": "uint256"
            }
          ],
          "internalType": "struct Courses.Course[]",
          "name": "",
          "type": "tuple[]"
        }
      ],
      "stateMutability": "view",
      "type": "function",
      "constant": true
    },
    {
      "inputs": [
        {
          "internalType": "uint256",
          "name": "_idCourse",
          "type": "uint256"
        },
        {
          "internalType": "string",
          "name": "_question",
          "type": "string"
        },
        {
          "internalType": "string",
          "name": "_answer",
          "type": "string"
        }
      ],
      "name": "addQuestionAnswerToCourse",
      "outputs": [
        {
          "internalType": "bool",
          "name": "",
          "type": "bool"
        }
      ],
      "stateMutability": "nonpayable",
      "type": "function"
    },
    {
      "inputs": [
        {
          "internalType": "uint256",
          "name": "_idCourse",
          "type": "uint256"
        }
      ],
      "name": "getCourseById",
      "outputs": [
        {
          "components": [
            {
              "internalType": "uint256",
              "name": "idCourse",
              "type": "uint256"
            },
            {
              "internalType": "string",
              "name": "title",
              "type": "string"
            },
            {
              "internalType": "string",
              "name": "resume",
              "type": "string"
            },
            {
              "internalType": "string",
              "name": "urlPdf",
              "type": "string"
            },
            {
              "internalType": "string",
              "name": "urlImage",
              "type": "string"
            },
            {
              "internalType": "uint256",
              "name": "timestamp",
              "type": "uint256"
            }
          ],
          "internalType": "struct Courses.Course",
          "name": "",
          "type": "tuple"
        },
        {
          "components": [
            {
              "internalType": "string",
              "name": "question",
              "type": "string"
            },
            {
              "internalType": "string",
              "name": "answer",
              "type": "string"
            }
          ],
          "internalType": "struct Courses.QuestionAnswer[]",
          "name": "",
          "type": "tuple[]"
        }
      ],
      "stateMutability": "view",
      "type": "function",
      "constant": true
    },
    {
      "inputs": [
        {
          "internalType": "uint256",
          "name": "_idCourse",
          "type": "uint256"
        },
        {
          "internalType": "address",
          "name": "_adrStudent",
          "type": "address"
        }
      ],
      "name": "addAddressCertifiedStudent",
      "outputs": [
        {
          "internalType": "bool",
          "name": "",
          "type": "bool"
        }
      ],
      "stateMutability": "nonpayable",
      "type": "function"
    },
    {
      "inputs": [
        {
          "internalType": "uint256",
          "name": "_idCourse",
          "type": "uint256"
        }
      ],
      "name": "getAddressesCertifiedStudentsByCourseID",
      "outputs": [
        {
          "internalType": "address[]",
          "name": "",
          "type": "address[]"
        }
      ],
      "stateMutability": "view",
      "type": "function",
      "constant": true
    }
  ],
  "bytecode": "0x60806040526000805534801561001457600080fd5b506117ec806100246000396000f3fe608060405234801561001057600080fd5b506004361061007d5760003560e01c80638bea7ff31161005b5780638bea7ff314610112578063cc12647914610130578063cff1c1db1461014e578063ea5b210f1461017e5761007d565b806343cdb7ce146100825780634a12a9b6146100b2578063710f72f8146100e2575b600080fd5b61009c60048036038101906100979190610dfd565b6101af565b6040516100a99190610f1a565b60405180910390f35b6100cc60048036038101906100c79190610f68565b610250565b6040516100d99190610fc3565b60405180910390f35b6100fc60048036038101906100f79190611124565b6102d0565b6040516101099190610fc3565b60405180910390f35b61011a61039a565b6040516101279190610fc3565b60405180910390f35b6101386103b7565b60405161014591906113a6565b60405180910390f35b610168600480360381019061016391906113c8565b6106e4565b6040516101759190610fc3565b60405180910390f35b61019860048036038101906101939190610dfd565b61080c565b6040516101a6929190611643565b60405180910390f35b60606005600083815260200190815260200160002080548060200260200160405190810160405280929190818152602001828054801561024457602002820191906000526020600020905b8160009054906101000a900473ffffffffffffffffffffffffffffffffffffffff1673ffffffffffffffffffffffffffffffffffffffff16815260200190600101908083116101fa575b50505050509050919050565b600060056000848152602001908152602001600020829080600181540180825580915050600190039060005260206000200160009091909190916101000a81548173ffffffffffffffffffffffffffffffffffffffff021916908373ffffffffffffffffffffffffffffffffffffffff1602179055506001905092915050565b60006102da610cc0565b838160000181905250828160200181905250600360008681526020019081526020016000208190806001815401808255809150506001900390600052602060002090600202016000909190919091506000820151816000019080519060200190610345929190610cda565b506020820151816001019080519060200190610362929190610cda565b505050600260008681526020019081526020016000206000815480929190610389906116a9565b919050555060019150509392505050565b60008060005411156103af57600090506103b4565b600190505b90565b60606000805467ffffffffffffffff8111156103d6576103d5610ff9565b5b60405190808252806020026020018201604052801561040f57816020015b6103fc610d60565b8152602001906001900390816103f45790505b5090506000600190505b6000548160ff16116106dc576000600160008360ff1681526020019081526020016000209050806040518060c00160405290816000820154815260200160018201805461046590611720565b80601f016020809104026020016040519081016040528092919081815260200182805461049190611720565b80156104de5780601f106104b3576101008083540402835291602001916104de565b820191906000526020600020905b8154815290600101906020018083116104c157829003601f168201915b505050505081526020016002820180546104f790611720565b80601f016020809104026020016040519081016040528092919081815260200182805461052390611720565b80156105705780601f1061054557610100808354040283529160200191610570565b820191906000526020600020905b81548152906001019060200180831161055357829003601f168201915b5050505050815260200160038201805461058990611720565b80601f01602080910402602001604051908101604052809291908181526020018280546105b590611720565b80156106025780601f106105d757610100808354040283529160200191610602565b820191906000526020600020905b8154815290600101906020018083116105e557829003601f168201915b5050505050815260200160048201805461061b90611720565b80601f016020809104026020016040519081016040528092919081815260200182805461064790611720565b80156106945780601f1061066957610100808354040283529160200191610694565b820191906000526020600020905b81548152906001019060200180831161067757829003601f168201915b50505050508152602001600582015481525050838360ff16815181106106bd576106bc611751565b5b60200260200101819052505080806106d49061178d565b915050610419565b508091505090565b60008054600160008054815260200190815260200160002060000181905550846001600080548152602001908152602001600020600101908051906020019061072e929190610cda565b50836001600080548152602001908152602001600020600201908051906020019061075a929190610cda565b508260016000805481526020019081526020016000206003019080519060200190610786929190610cda565b5081600160008054815260200190815260200160002060040190805190602001906107b2929190610cda565b50426001600080548152602001908152602001600020600501819055506000808154809291906107e1906116a9565b9190505550600160026000805481526020019081526020016000208190555060019050949350505050565b610814610d60565b606060006002600085815260200190815260200160002054905060008167ffffffffffffffff81111561084a57610849610ff9565b5b60405190808252806020026020018201604052801561088357816020015b610870610cc0565b8152602001906001900390816108685790505b5090506000600190505b828160ff1611610a36576000600360008881526020019081526020016000208260ff16815481106108c1576108c0611751565b5b90600052602060002090600202019050806040518060400160405290816000820180546108ed90611720565b80601f016020809104026020016040519081016040528092919081815260200182805461091990611720565b80156109665780601f1061093b57610100808354040283529160200191610966565b820191906000526020600020905b81548152906001019060200180831161094957829003601f168201915b5050505050815260200160018201805461097f90611720565b80601f01602080910402602001604051908101604052809291908181526020018280546109ab90611720565b80156109f85780601f106109cd576101008083540402835291602001916109f8565b820191906000526020600020905b8154815290600101906020018083116109db57829003601f168201915b505050505081525050838360ff1681518110610a1757610a16611751565b5b6020026020010181905250508080610a2e9061178d565b91505061088d565b506001600086815260200190815260200160002081816040518060c001604052908160008201548152602001600182018054610a7190611720565b80601f0160208091040260200160405190810160405280929190818152602001828054610a9d90611720565b8015610aea5780601f10610abf57610100808354040283529160200191610aea565b820191906000526020600020905b815481529060010190602001808311610acd57829003601f168201915b50505050508152602001600282018054610b0390611720565b80601f0160208091040260200160405190810160405280929190818152602001828054610b2f90611720565b8015610b7c5780601f10610b5157610100808354040283529160200191610b7c565b820191906000526020600020905b815481529060010190602001808311610b5f57829003601f168201915b50505050508152602001600382018054610b9590611720565b80601f0160208091040260200160405190810160405280929190818152602001828054610bc190611720565b8015610c0e5780601f10610be357610100808354040283529160200191610c0e565b820191906000526020600020905b815481529060010190602001808311610bf157829003601f168201915b50505050508152602001600482018054610c2790611720565b80601f0160208091040260200160405190810160405280929190818152602001828054610c5390611720565b8015610ca05780601f10610c7557610100808354040283529160200191610ca0565b820191906000526020600020905b815481529060010190602001808311610c8357829003601f168201915b505050505081526020016005820154815250509150935093505050915091565b604051806040016040528060608152602001606081525090565b828054610ce690611720565b90600052602060002090601f016020900481019282610d085760008555610d4f565b82601f10610d2157805160ff1916838001178555610d4f565b82800160010185558215610d4f579182015b82811115610d4e578251825591602001919060010190610d33565b5b509050610d5c9190610d96565b5090565b6040518060c001604052806000815260200160608152602001606081526020016060815260200160608152602001600081525090565b5b80821115610daf576000816000905550600101610d97565b5090565b6000604051905090565b600080fd5b600080fd5b6000819050919050565b610dda81610dc7565b8114610de557600080fd5b50565b600081359050610df781610dd1565b92915050565b600060208284031215610e1357610e12610dbd565b5b6000610e2184828501610de8565b91505092915050565b600081519050919050565b600082825260208201905092915050565b6000819050602082019050919050565b600073ffffffffffffffffffffffffffffffffffffffff82169050919050565b6000610e8182610e56565b9050919050565b610e9181610e76565b82525050565b6000610ea38383610e88565b60208301905092915050565b6000602082019050919050565b6000610ec782610e2a565b610ed18185610e35565b9350610edc83610e46565b8060005b83811015610f0d578151610ef48882610e97565b9750610eff83610eaf565b925050600181019050610ee0565b5085935050505092915050565b60006020820190508181036000830152610f348184610ebc565b905092915050565b610f4581610e76565b8114610f5057600080fd5b50565b600081359050610f6281610f3c565b92915050565b60008060408385031215610f7f57610f7e610dbd565b5b6000610f8d85828601610de8565b9250506020610f9e85828601610f53565b9150509250929050565b60008115159050919050565b610fbd81610fa8565b82525050565b6000602082019050610fd86000830184610fb4565b92915050565b600080fd5b600080fd5b6000601f19601f8301169050919050565b7f4e487b7100000000000000000000000000000000000000000000000000000000600052604160045260246000fd5b61103182610fe8565b810181811067ffffffffffffffff821117156110505761104f610ff9565b5b80604052505050565b6000611063610db3565b905061106f8282611028565b919050565b600067ffffffffffffffff82111561108f5761108e610ff9565b5b61109882610fe8565b9050602081019050919050565b82818337600083830152505050565b60006110c76110c284611074565b611059565b9050828152602081018484840111156110e3576110e2610fe3565b5b6110ee8482856110a5565b509392505050565b600082601f83011261110b5761110a610fde565b5b813561111b8482602086016110b4565b91505092915050565b60008060006060848603121561113d5761113c610dbd565b5b600061114b86828701610de8565b935050602084013567ffffffffffffffff81111561116c5761116b610dc2565b5b611178868287016110f6565b925050604084013567ffffffffffffffff81111561119957611198610dc2565b5b6111a5868287016110f6565b9150509250925092565b600081519050919050565b600082825260208201905092915050565b6000819050602082019050919050565b6111e481610dc7565b82525050565b600081519050919050565b600082825260208201905092915050565b60005b83811015611224578082015181840152602081019050611209565b83811115611233576000848401525b50505050565b6000611244826111ea565b61124e81856111f5565b935061125e818560208601611206565b61126781610fe8565b840191505092915050565b600060c08301600083015161128a60008601826111db565b50602083015184820360208601526112a28282611239565b915050604083015184820360408601526112bc8282611239565b915050606083015184820360608601526112d68282611239565b915050608083015184820360808601526112f08282611239565b91505060a083015161130560a08601826111db565b508091505092915050565b600061131c8383611272565b905092915050565b6000602082019050919050565b600061133c826111af565b61134681856111ba565b935083602082028501611358856111cb565b8060005b8581101561139457848403895281516113758582611310565b945061138083611324565b925060208a0199505060018101905061135c565b50829750879550505050505092915050565b600060208201905081810360008301526113c08184611331565b905092915050565b600080600080608085870312156113e2576113e1610dbd565b5b600085013567ffffffffffffffff811115611400576113ff610dc2565b5b61140c878288016110f6565b945050602085013567ffffffffffffffff81111561142d5761142c610dc2565b5b611439878288016110f6565b935050604085013567ffffffffffffffff81111561145a57611459610dc2565b5b611466878288016110f6565b925050606085013567ffffffffffffffff81111561148757611486610dc2565b5b611493878288016110f6565b91505092959194509250565b600060c0830160008301516114b760008601826111db565b50602083015184820360208601526114cf8282611239565b915050604083015184820360408601526114e98282611239565b915050606083015184820360608601526115038282611239565b9150506080830151848203608086015261151d8282611239565b91505060a083015161153260a08601826111db565b508091505092915050565b600081519050919050565b600082825260208201905092915050565b6000819050602082019050919050565b600060408301600083015184820360008601526115868282611239565b915050602083015184820360208601526115a08282611239565b9150508091505092915050565b60006115b98383611569565b905092915050565b6000602082019050919050565b60006115d98261153d565b6115e38185611548565b9350836020820285016115f585611559565b8060005b85811015611631578484038952815161161285826115ad565b945061161d836115c1565b925060208a019950506001810190506115f9565b50829750879550505050505092915050565b6000604082019050818103600083015261165d818561149f565b9050818103602083015261167181846115ce565b90509392505050565b7f4e487b7100000000000000000000000000000000000000000000000000000000600052601160045260246000fd5b60006116b482610dc7565b91507fffffffffffffffffffffffffffffffffffffffffffffffffffffffffffffffff82036116e6576116e561167a565b5b600182019050919050565b7f4e487b7100000000000000000000000000000000000000000000000000000000600052602260045260246000fd5b6000600282049050600182168061173857607f821691505b60208210810361174b5761174a6116f1565b5b50919050565b7f4e487b7100000000000000000000000000000000000000000000000000000000600052603260045260246000fd5b600060ff82169050919050565b600061179882611780565b915060ff82036117ab576117aa61167a565b5b60018201905091905056fea2646970667358221220ec3854da23b4fddf9a3cd29719fcc8923ff5196d71e9a62c5fbec5e09605df3964736f6c634300080d0033",
  "immutableReferences": {},
  "source": "pragma solidity 0.8.13;\r\n\r\ncontract Courses{\r\n\r\n    struct QuestionAnswer {\r\n        string question;\r\n        string answer;\r\n    }\r\n\r\n    struct Course {\r\n        uint idCourse;\r\n        string title;\r\n        string resume;\r\n        string urlPdf;\r\n        string urlImage;\r\n        uint timestamp;\r\n    }\r\n\r\n    uint private nbrCourses = 0;\r\n    mapping (uint => Course) private courses;\r\n    mapping (uint => uint) private countQuestionsAnswers;\r\n    mapping (uint => QuestionAnswer[]) private questionsAnswers;\r\n    mapping (uint => uint) private countCertifiedStudents;\r\n    mapping (uint => address[]) private certifiedStudents;\r\n\r\n    function newCourse (string memory _title, string memory _resume, string memory _urlPdf, string memory _urlImage) public returns (bool){\r\n        courses[nbrCourses].idCourse = nbrCourses;\r\n        courses[nbrCourses].title = _title;\r\n        courses[nbrCourses].resume = _resume;\r\n        courses[nbrCourses].urlPdf = _urlPdf;\r\n        courses[nbrCourses].urlImage = _urlImage;\r\n        courses[nbrCourses].timestamp = block.timestamp;\r\n        nbrCourses++;\r\n        countQuestionsAnswers[nbrCourses] = 1;\r\n        return true;\r\n    }\r\n\r\n    function ifCoursesIsEmpty() public view returns (bool) {\r\n        if(nbrCourses > 0) return false;\r\n        return true;\r\n    }\r\n\r\n    function getCourses() public view returns (Course[] memory){\r\n        Course[] memory arrCourses = new Course[](nbrCourses);\r\n        for(uint8 i = 1; i <= nbrCourses; i++){\r\n            Course storage course = courses[i];\r\n            arrCourses[i] = course;\r\n        }\r\n        return arrCourses;\r\n    }\r\n\r\n    function addQuestionAnswerToCourse(uint _idCourse, string memory _question, string memory _answer) public returns(bool){\r\n        QuestionAnswer memory questionAnswer;\r\n        questionAnswer.question = _question;\r\n        questionAnswer.answer = _answer;\r\n        questionsAnswers[_idCourse].push(questionAnswer);\r\n        countQuestionsAnswers[_idCourse]++;\r\n        return true;\r\n    }\r\n\r\n    function getCourseById(uint _idCourse) public view returns (Course memory, QuestionAnswer[] memory){\r\n        uint _countQA = countQuestionsAnswers[_idCourse];\r\n        QuestionAnswer[] memory arrQuestionsAnswers = new QuestionAnswer[](_countQA);\r\n        for(uint8 i = 1; i <= _countQA; i++){\r\n            QuestionAnswer storage questionAnswer = questionsAnswers[_idCourse][i];\r\n            arrQuestionsAnswers[i] = questionAnswer;\r\n        }\r\n        return (courses[_idCourse], arrQuestionsAnswers);\r\n    }\r\n\r\n    function addAddressCertifiedStudent(uint _idCourse, address _adrStudent) public returns(bool){\r\n        certifiedStudents[_idCourse].push(_adrStudent);\r\n        return true;\r\n    }\r\n\r\n    function getAddressesCertifiedStudentsByCourseID(uint _idCourse) public view returns(address[] memory){\r\n        return certifiedStudents[_idCourse];\r\n    }\r\n}\r\n",
  "sourcePath": "C:\\Users\\Baghdad\\Desktop\\MyFutur\\walid-project\\contracts\\Courses.sol",
  "compiler": {
    "name": "solc",
    "version": "0.8.13+commit.abaa5c0e.Emscripten.clang"
  },
  "schemaVersion": "3.4.7",
  "updatedAt": "2022-05-16T22:14:31.323Z",
  "networkType": "ethereum",
  "devdoc": {
    "kind": "dev",
    "methods": {},
    "version": 1
  },
  "userdoc": {
    "kind": "user",
    "methods": {},
    "version": 1
  }
}