{
  "contractName": "Courses",
  "abi": [
    {
      "inputs": [],
      "stateMutability": "nonpayable",
      "type": "constructor"
    },
    {
      "inputs": [
        {
          "internalType": "string",
          "name": "_title",
          "type": "string"
        },
        {
          "internalType": "string",
          "name": "_resume",
          "type": "string"
        },
        {
          "internalType": "string",
          "name": "_urlPdf",
          "type": "string"
        },
        {
          "internalType": "string",
          "name": "_urlImage",
          "type": "string"
        }
      ],
      "name": "newCourse",
      "outputs": [
        {
          "internalType": "bool",
          "name": "_success",
          "type": "bool"
        }
      ],
      "stateMutability": "nonpayable",
      "type": "function"
    },
    {
      "inputs": [],
      "name": "ifCoursesIsEmpty",
      "outputs": [
        {
          "internalType": "bool",
          "name": "_success",
          "type": "bool"
        }
      ],
      "stateMutability": "view",
      "type": "function",
      "constant": true
    },
    {
      "inputs": [
        {
          "internalType": "uint256",
          "name": "_idCourse",
          "type": "uint256"
        },
        {
          "internalType": "string",
          "name": "_question",
          "type": "string"
        },
        {
          "internalType": "string[]",
          "name": "_answers",
          "type": "string[]"
        },
        {
          "internalType": "bool[]",
          "name": "_flags",
          "type": "bool[]"
        }
      ],
      "name": "addQuestionWithAnswersToCourse",
      "outputs": [
        {
          "internalType": "bool",
          "name": "_success",
          "type": "bool"
        }
      ],
      "stateMutability": "nonpayable",
      "type": "function"
    },
    {
      "inputs": [],
      "name": "getCourses",
      "outputs": [
        {
          "components": [
            {
              "internalType": "uint256",
              "name": "idCourse",
              "type": "uint256"
            },
            {
              "internalType": "string",
              "name": "title",
              "type": "string"
            },
            {
              "internalType": "string",
              "name": "resume",
              "type": "string"
            },
            {
              "internalType": "string",
              "name": "urlPdf",
              "type": "string"
            },
            {
              "internalType": "string",
              "name": "urlImage",
              "type": "string"
            },
            {
              "internalType": "uint256",
              "name": "timestamp",
              "type": "uint256"
            }
          ],
          "internalType": "struct Courses.Course[]",
          "name": "",
          "type": "tuple[]"
        }
      ],
      "stateMutability": "view",
      "type": "function",
      "constant": true
    },
    {
      "inputs": [
        {
          "internalType": "uint256",
          "name": "_idCourse",
          "type": "uint256"
        }
      ],
      "name": "getCourseById",
      "outputs": [
        {
          "components": [
            {
              "internalType": "uint256",
              "name": "idCourse",
              "type": "uint256"
            },
            {
              "internalType": "string",
              "name": "title",
              "type": "string"
            },
            {
              "internalType": "string",
              "name": "resume",
              "type": "string"
            },
            {
              "internalType": "string",
              "name": "urlPdf",
              "type": "string"
            },
            {
              "internalType": "string",
              "name": "urlImage",
              "type": "string"
            },
            {
              "internalType": "uint256",
              "name": "timestamp",
              "type": "uint256"
            }
          ],
          "internalType": "struct Courses.Course",
          "name": "",
          "type": "tuple"
        }
      ],
      "stateMutability": "view",
      "type": "function",
      "constant": true
    },
    {
      "inputs": [
        {
          "internalType": "uint256",
          "name": "_idCourse",
          "type": "uint256"
        }
      ],
      "name": "ifThereIsQuestion",
      "outputs": [
        {
          "internalType": "bool",
          "name": "",
          "type": "bool"
        }
      ],
      "stateMutability": "view",
      "type": "function",
      "constant": true
    },
    {
      "inputs": [
        {
          "internalType": "uint256",
          "name": "_idCourse",
          "type": "uint256"
        }
      ],
      "name": "getQuestionsOfCourse",
      "outputs": [
        {
          "internalType": "string[]",
          "name": "",
          "type": "string[]"
        }
      ],
      "stateMutability": "view",
      "type": "function",
      "constant": true
    },
    {
      "inputs": [
        {
          "internalType": "uint256",
          "name": "_idCourse",
          "type": "uint256"
        },
        {
          "internalType": "uint256",
          "name": "_indexQuestion",
          "type": "uint256"
        }
      ],
      "name": "getAnswersOfQuestion",
      "outputs": [
        {
          "components": [
            {
              "internalType": "string",
              "name": "text",
              "type": "string"
            },
            {
              "internalType": "bool",
              "name": "flag",
              "type": "bool"
            }
          ],
          "internalType": "struct Courses.Answer[]",
          "name": "",
          "type": "tuple[]"
        }
      ],
      "stateMutability": "view",
      "type": "function",
      "constant": true
    },
    {
      "inputs": [
        {
          "internalType": "uint256",
          "name": "_idCourse",
          "type": "uint256"
        }
      ],
      "name": "getAddressesCertifiedStudentsByCourseID",
      "outputs": [
        {
          "internalType": "address[]",
          "name": "",
          "type": "address[]"
        }
      ],
      "stateMutability": "view",
      "type": "function",
      "constant": true
    },
    {
      "inputs": [
        {
          "internalType": "uint256",
          "name": "_idCourse",
          "type": "uint256"
        },
        {
          "internalType": "address",
          "name": "_address",
          "type": "address"
        }
      ],
      "name": "ifAlreadyCertified",
      "outputs": [
        {
          "internalType": "bool",
          "name": "",
          "type": "bool"
        }
      ],
      "stateMutability": "view",
      "type": "function",
      "constant": true
    },
    {
      "inputs": [
        {
          "internalType": "uint256",
          "name": "_idCourse",
          "type": "uint256"
        },
        {
          "internalType": "address",
          "name": "_adrStudent",
          "type": "address"
        }
      ],
      "name": "addAddressCertifiedStudent",
      "outputs": [
        {
          "internalType": "bool",
          "name": "_success",
          "type": "bool"
        }
      ],
      "stateMutability": "nonpayable",
      "type": "function"
    }
  ],
  "bytecode": "0x608060405234801561001057600080fd5b5060008081905550611dcd806100276000396000f3fe608060405234801561001057600080fd5b50600436106100a95760003560e01c806394ef0a8c1161007157806394ef0a8c1461018c578063a29fd148146101bc578063b0ff97c5146101ec578063cc1264791461021c578063cff1c1db1461023a578063ea5b210f1461026a576100a9565b806343cdb7ce146100ae57806345e1e6e9146100de5780634a12a9b61461010e5780636048dbdc1461013e5780638bea7ff31461016e575b600080fd5b6100c860048036038101906100c3919061106c565b61029a565b6040516100d59190611189565b60405180910390f35b6100f860048036038101906100f391906111d7565b61033b565b6040516101059190611232565b60405180910390f35b610128600480360381019061012391906111d7565b61040c565b6040516101359190611232565b60405180910390f35b6101586004803603810190610153919061124d565b61049b565b6040516101659190611434565b60405180910390f35b6101766105cc565b6040516101839190611232565b60405180910390f35b6101a660048036038101906101a1919061106c565b6105e9565b6040516101b39190611232565b60405180910390f35b6101d660048036038101906101d1919061106c565b61061c565b6040516101e39190611518565b60405180910390f35b61020660048036038101906102019190611844565b610708565b6040516102139190611232565b60405180910390f35b610224610888565b6040516102319190611a6e565b60405180910390f35b610254600480360381019061024f9190611a90565b610bb2565b6040516102619190611232565b60405180910390f35b610284600480360381019061027f919061106c565b610cc0565b6040516102919190611c05565b60405180910390f35b60606004600083815260200190815260200160002080548060200260200160405190810160405280929190818152602001828054801561032f57602002820191906000526020600020905b8160009054906101000a900473ffffffffffffffffffffffffffffffffffffffff1673ffffffffffffffffffffffffffffffffffffffff16815260200190600101908083116102e5575b50505050509050919050565b600080600090505b6004600085815260200190815260200160002080549050811015610400578273ffffffffffffffffffffffffffffffffffffffff1660046000868152602001908152602001600020828154811061039d5761039c611c27565b5b9060005260206000200160009054906101000a900473ffffffffffffffffffffffffffffffffffffffff1673ffffffffffffffffffffffffffffffffffffffff16036103ed576001915050610406565b80806103f890611c85565b915050610343565b50600090505b92915050565b6000610418838361033b565b6104915760046000848152602001908152602001600020829080600181540180825580915050600190039060005260206000200160009091909190916101000a81548173ffffffffffffffffffffffffffffffffffffffff021916908373ffffffffffffffffffffffffffffffffffffffff1602179055505b6001905092915050565b6060600360008481526020019081526020016000206000838152602001908152602001600020805480602002602001604051908101604052809291908181526020016000905b828210156105c0578382906000526020600020906002020160405180604001604052908160008201805461051490611cfc565b80601f016020809104026020016040519081016040528092919081815260200182805461054090611cfc565b801561058d5780601f106105625761010080835404028352916020019161058d565b820191906000526020600020905b81548152906001019060200180831161057057829003601f168201915b505050505081526020016001820160009054906101000a900460ff161515151581525050815260200190600101906104e1565b50505050905092915050565b60008060005411156105e157600090506105e6565b600190505b90565b600080600260008481526020019081526020016000208054905011156106125760019050610617565b600090505b919050565b606060026000838152602001908152602001600020805480602002602001604051908101604052809291908181526020016000905b828210156106fd57838290600052602060002001805461067090611cfc565b80601f016020809104026020016040519081016040528092919081815260200182805461069c90611cfc565b80156106e95780601f106106be576101008083540402835291602001916106e9565b820191906000526020600020905b8154815290600101906020018083116106cc57829003601f168201915b505050505081526020019060010190610651565b505050509050919050565b60006002600086815260200190815260200160002084908060018154018082558091505060019003906000526020600020016000909190919091509080519060200190610756929190610f49565b5060006001600260008881526020019081526020016000208054905061077c9190611d2d565b905060005b845181101561087a57600060405180604001604052808784815181106107aa576107a9611c27565b5b602002602001015181526020018684815181106107ca576107c9611c27565b5b6020026020010151151581525090506003600089815260200190815260200160002060008481526020019081526020016000208190806001815401808255809150506001900390600052602060002090600202016000909190919091506000820151816000019080519060200190610843929190610f49565b5060208201518160010160006101000a81548160ff021916908315150217905550505050808061087290611c85565b915050610781565b506001915050949350505050565b60606000805467ffffffffffffffff8111156108a7576108a6611544565b5b6040519080825280602002602001820160405280156108e057816020015b6108cd610fcf565b8152602001906001900390816108c55790505b50905060005b6000548160ff161015610baa576000600160008360ff1681526020019081526020016000209050806040518060c00160405290816000820154815260200160018201805461093390611cfc565b80601f016020809104026020016040519081016040528092919081815260200182805461095f90611cfc565b80156109ac5780601f10610981576101008083540402835291602001916109ac565b820191906000526020600020905b81548152906001019060200180831161098f57829003601f168201915b505050505081526020016002820180546109c590611cfc565b80601f01602080910402602001604051908101604052809291908181526020018280546109f190611cfc565b8015610a3e5780601f10610a1357610100808354040283529160200191610a3e565b820191906000526020600020905b815481529060010190602001808311610a2157829003601f168201915b50505050508152602001600382018054610a5790611cfc565b80601f0160208091040260200160405190810160405280929190818152602001828054610a8390611cfc565b8015610ad05780601f10610aa557610100808354040283529160200191610ad0565b820191906000526020600020905b815481529060010190602001808311610ab357829003601f168201915b50505050508152602001600482018054610ae990611cfc565b80601f0160208091040260200160405190810160405280929190818152602001828054610b1590611cfc565b8015610b625780601f10610b3757610100808354040283529160200191610b62565b820191906000526020600020905b815481529060010190602001808311610b4557829003601f168201915b50505050508152602001600582015481525050838360ff1681518110610b8b57610b8a611c27565b5b6020026020010181905250508080610ba290611d6e565b9150506108e6565b508091505090565b600080546001600080548152602001908152602001600020600001819055508460016000805481526020019081526020016000206001019080519060200190610bfc929190610f49565b508360016000805481526020019081526020016000206002019080519060200190610c28929190610f49565b508260016000805481526020019081526020016000206003019080519060200190610c54929190610f49565b508160016000805481526020019081526020016000206004019080519060200190610c80929190610f49565b5042600160008054815260200190815260200160002060050181905550600080815480929190610caf90611c85565b919050555060019050949350505050565b610cc8610fcf565b600160008381526020019081526020016000206040518060c001604052908160008201548152602001600182018054610d0090611cfc565b80601f0160208091040260200160405190810160405280929190818152602001828054610d2c90611cfc565b8015610d795780601f10610d4e57610100808354040283529160200191610d79565b820191906000526020600020905b815481529060010190602001808311610d5c57829003601f168201915b50505050508152602001600282018054610d9290611cfc565b80601f0160208091040260200160405190810160405280929190818152602001828054610dbe90611cfc565b8015610e0b5780601f10610de057610100808354040283529160200191610e0b565b820191906000526020600020905b815481529060010190602001808311610dee57829003601f168201915b50505050508152602001600382018054610e2490611cfc565b80601f0160208091040260200160405190810160405280929190818152602001828054610e5090611cfc565b8015610e9d5780601f10610e7257610100808354040283529160200191610e9d565b820191906000526020600020905b815481529060010190602001808311610e8057829003601f168201915b50505050508152602001600482018054610eb690611cfc565b80601f0160208091040260200160405190810160405280929190818152602001828054610ee290611cfc565b8015610f2f5780601f10610f0457610100808354040283529160200191610f2f565b820191906000526020600020905b815481529060010190602001808311610f1257829003601f168201915b505050505081526020016005820154815250509050919050565b828054610f5590611cfc565b90600052602060002090601f016020900481019282610f775760008555610fbe565b82601f10610f9057805160ff1916838001178555610fbe565b82800160010185558215610fbe579182015b82811115610fbd578251825591602001919060010190610fa2565b5b509050610fcb9190611005565b5090565b6040518060c001604052806000815260200160608152602001606081526020016060815260200160608152602001600081525090565b5b8082111561101e576000816000905550600101611006565b5090565b6000604051905090565b600080fd5b600080fd5b6000819050919050565b61104981611036565b811461105457600080fd5b50565b60008135905061106681611040565b92915050565b6000602082840312156110825761108161102c565b5b600061109084828501611057565b91505092915050565b600081519050919050565b600082825260208201905092915050565b6000819050602082019050919050565b600073ffffffffffffffffffffffffffffffffffffffff82169050919050565b60006110f0826110c5565b9050919050565b611100816110e5565b82525050565b600061111283836110f7565b60208301905092915050565b6000602082019050919050565b600061113682611099565b61114081856110a4565b935061114b836110b5565b8060005b8381101561117c5781516111638882611106565b975061116e8361111e565b92505060018101905061114f565b5085935050505092915050565b600060208201905081810360008301526111a3818461112b565b905092915050565b6111b4816110e5565b81146111bf57600080fd5b50565b6000813590506111d1816111ab565b92915050565b600080604083850312156111ee576111ed61102c565b5b60006111fc85828601611057565b925050602061120d858286016111c2565b9150509250929050565b60008115159050919050565b61122c81611217565b82525050565b60006020820190506112476000830184611223565b92915050565b600080604083850312156112645761126361102c565b5b600061127285828601611057565b925050602061128385828601611057565b9150509250929050565b600081519050919050565b600082825260208201905092915050565b6000819050602082019050919050565b600081519050919050565b600082825260208201905092915050565b60005b838110156112f35780820151818401526020810190506112d8565b83811115611302576000848401525b50505050565b6000601f19601f8301169050919050565b6000611324826112b9565b61132e81856112c4565b935061133e8185602086016112d5565b61134781611308565b840191505092915050565b61135b81611217565b82525050565b6000604083016000830151848203600086015261137e8282611319565b91505060208301516113936020860182611352565b508091505092915050565b60006113aa8383611361565b905092915050565b6000602082019050919050565b60006113ca8261128d565b6113d48185611298565b9350836020820285016113e6856112a9565b8060005b858110156114225784840389528151611403858261139e565b945061140e836113b2565b925060208a019950506001810190506113ea565b50829750879550505050505092915050565b6000602082019050818103600083015261144e81846113bf565b905092915050565b600081519050919050565b600082825260208201905092915050565b6000819050602082019050919050565b600061148e8383611319565b905092915050565b6000602082019050919050565b60006114ae82611456565b6114b88185611461565b9350836020820285016114ca85611472565b8060005b8581101561150657848403895281516114e78582611482565b94506114f283611496565b925060208a019950506001810190506114ce565b50829750879550505050505092915050565b6000602082019050818103600083015261153281846114a3565b905092915050565b600080fd5b600080fd5b7f4e487b7100000000000000000000000000000000000000000000000000000000600052604160045260246000fd5b61157c82611308565b810181811067ffffffffffffffff8211171561159b5761159a611544565b5b80604052505050565b60006115ae611022565b90506115ba8282611573565b919050565b600067ffffffffffffffff8211156115da576115d9611544565b5b6115e382611308565b9050602081019050919050565b82818337600083830152505050565b600061161261160d846115bf565b6115a4565b90508281526020810184848401111561162e5761162d61153f565b5b6116398482856115f0565b509392505050565b600082601f8301126116565761165561153a565b5b81356116668482602086016115ff565b91505092915050565b600067ffffffffffffffff82111561168a57611689611544565b5b602082029050602081019050919050565b600080fd5b60006116b36116ae8461166f565b6115a4565b905080838252602082019050602084028301858111156116d6576116d561169b565b5b835b8181101561171d57803567ffffffffffffffff8111156116fb576116fa61153a565b5b8086016117088982611641565b855260208501945050506020810190506116d8565b5050509392505050565b600082601f83011261173c5761173b61153a565b5b813561174c8482602086016116a0565b91505092915050565b600067ffffffffffffffff8211156117705761176f611544565b5b602082029050602081019050919050565b61178a81611217565b811461179557600080fd5b50565b6000813590506117a781611781565b92915050565b60006117c06117bb84611755565b6115a4565b905080838252602082019050602084028301858111156117e3576117e261169b565b5b835b8181101561180c57806117f88882611798565b8452602084019350506020810190506117e5565b5050509392505050565b600082601f83011261182b5761182a61153a565b5b813561183b8482602086016117ad565b91505092915050565b6000806000806080858703121561185e5761185d61102c565b5b600061186c87828801611057565b945050602085013567ffffffffffffffff81111561188d5761188c611031565b5b61189987828801611641565b935050604085013567ffffffffffffffff8111156118ba576118b9611031565b5b6118c687828801611727565b925050606085013567ffffffffffffffff8111156118e7576118e6611031565b5b6118f387828801611816565b91505092959194509250565b600081519050919050565b600082825260208201905092915050565b6000819050602082019050919050565b61193481611036565b82525050565b600060c083016000830151611952600086018261192b565b506020830151848203602086015261196a8282611319565b915050604083015184820360408601526119848282611319565b9150506060830151848203606086015261199e8282611319565b915050608083015184820360808601526119b88282611319565b91505060a08301516119cd60a086018261192b565b508091505092915050565b60006119e4838361193a565b905092915050565b6000602082019050919050565b6000611a04826118ff565b611a0e818561190a565b935083602082028501611a208561191b565b8060005b85811015611a5c5784840389528151611a3d85826119d8565b9450611a48836119ec565b925060208a01995050600181019050611a24565b50829750879550505050505092915050565b60006020820190508181036000830152611a8881846119f9565b905092915050565b60008060008060808587031215611aaa57611aa961102c565b5b600085013567ffffffffffffffff811115611ac857611ac7611031565b5b611ad487828801611641565b945050602085013567ffffffffffffffff811115611af557611af4611031565b5b611b0187828801611641565b935050604085013567ffffffffffffffff811115611b2257611b21611031565b5b611b2e87828801611641565b925050606085013567ffffffffffffffff811115611b4f57611b4e611031565b5b611b5b87828801611641565b91505092959194509250565b600060c083016000830151611b7f600086018261192b565b5060208301518482036020860152611b978282611319565b91505060408301518482036040860152611bb18282611319565b91505060608301518482036060860152611bcb8282611319565b91505060808301518482036080860152611be58282611319565b91505060a0830151611bfa60a086018261192b565b508091505092915050565b60006020820190508181036000830152611c1f8184611b67565b905092915050565b7f4e487b7100000000000000000000000000000000000000000000000000000000600052603260045260246000fd5b7f4e487b7100000000000000000000000000000000000000000000000000000000600052601160045260246000fd5b6000611c9082611036565b91507fffffffffffffffffffffffffffffffffffffffffffffffffffffffffffffffff8203611cc257611cc1611c56565b5b600182019050919050565b7f4e487b7100000000000000000000000000000000000000000000000000000000600052602260045260246000fd5b60006002820490506001821680611d1457607f821691505b602082108103611d2757611d26611ccd565b5b50919050565b6000611d3882611036565b9150611d4383611036565b925082821015611d5657611d55611c56565b5b828203905092915050565b600060ff82169050919050565b6000611d7982611d61565b915060ff8203611d8c57611d8b611c56565b5b60018201905091905056fea26469706673582212207eeb9cde469b055b4a28d622efbd6caeb56606b2679b1d3cd559c9acf06db1f164736f6c634300080d0033",
  "immutableReferences": {},
  "source": "pragma solidity 0.8.13;\r\n\r\ncontract Courses {\r\n\r\n    struct Course {\r\n        uint idCourse;\r\n        string title;\r\n        string resume;\r\n        string urlPdf;\r\n        string urlImage;\r\n        uint timestamp;\r\n    }\r\n\r\n    constructor () {\r\n        nbrCourses = 0;\r\n//        certifiedStudents[0].push(msg.sender);\r\n    }\r\n\r\n    struct Answer {\r\n        string text;\r\n        bool flag;\r\n    }\r\n\r\n    uint private nbrCourses;\r\n    mapping (uint => Course) private courses;\r\n    mapping (uint => string[]) private questions;\r\n    mapping (uint => mapping (uint => Answer[])) answers;\r\n    mapping (uint => address[]) private certifiedStudents;\r\n\r\n    function newCourse (string memory _title, string memory _resume, string memory _urlPdf, string memory _urlImage) public returns (bool _success){\r\n        courses[nbrCourses].idCourse = nbrCourses;\r\n        courses[nbrCourses].title = _title;\r\n        courses[nbrCourses].resume = _resume;\r\n        courses[nbrCourses].urlPdf = _urlPdf;\r\n        courses[nbrCourses].urlImage = _urlImage;\r\n        courses[nbrCourses].timestamp = block.timestamp;\r\n        nbrCourses++;\r\n        return true;\r\n    }\r\n\r\n    function ifCoursesIsEmpty() public view returns (bool _success) {\r\n        if(nbrCourses > 0) return false;\r\n        return true;\r\n    }\r\n\r\n    function addQuestionWithAnswersToCourse(uint _idCourse, string memory _question, string[] memory _answers, bool[] memory _flags)\r\n    public\r\n    returns(bool _success){\r\n        questions[_idCourse].push(_question);\r\n        uint indexQuestion = questions[_idCourse].length - 1;\r\n        for(uint i = 0; i < _answers.length; i++){\r\n            Answer memory answer = Answer({text: _answers[i], flag: _flags[i]});\r\n            answers[_idCourse][indexQuestion].push(answer);\r\n        }\r\n        return true;\r\n    }\r\n\r\n    function getCourses() public view returns (Course[] memory){\r\n        Course[] memory arrCourses = new Course[](nbrCourses);\r\n        for(uint8 i = 0; i < nbrCourses; i++){\r\n            Course storage course = courses[i];\r\n            arrCourses[i] = course;\r\n        }\r\n        return arrCourses;\r\n    }\r\n\r\n    function getCourseById(uint _idCourse) public view returns (Course memory){\r\n        return courses[_idCourse];\r\n    }\r\n\r\n    function ifThereIsQuestion(uint _idCourse) public view returns(bool){\r\n        if(questions[_idCourse].length > 0) return true;\r\n        return false;\r\n    }\r\n\r\n    function getQuestionsOfCourse(uint _idCourse) public view returns(string[] memory){\r\n        return questions[_idCourse];\r\n    }\r\n\r\n    function getAnswersOfQuestion(uint _idCourse, uint _indexQuestion) public view returns(Answer[] memory){\r\n        return answers[_idCourse][_indexQuestion];\r\n    }\r\n\r\n    function getAddressesCertifiedStudentsByCourseID(uint _idCourse) public view returns(address[] memory){\r\n        return certifiedStudents[_idCourse];\r\n    }\r\n\r\n    function ifAlreadyCertified(uint _idCourse, address _address) view public returns(bool){\r\n        for(uint i = 0; i < certifiedStudents[_idCourse].length; i++){\r\n            if(certifiedStudents[_idCourse][i] == _address) return true;\r\n        }\r\n        return false;\r\n    }\r\n\r\n    function addAddressCertifiedStudent(uint _idCourse, address _adrStudent) public returns(bool _success){\r\n        if(!ifAlreadyCertified(_idCourse, _adrStudent)) certifiedStudents[_idCourse].push(_adrStudent);\r\n        return true;\r\n    }\r\n}\r\n",
  "sourcePath": "C:\\Users\\Baghdad\\Desktop\\MyFutur\\walid-project\\contracts\\Courses.sol",
  "compiler": {
    "name": "solc",
    "version": "0.8.13+commit.abaa5c0e.Emscripten.clang"
  },
  "schemaVersion": "3.4.7",
  "updatedAt": "2022-06-01T20:13:00.970Z",
  "networkType": "ethereum",
  "devdoc": {
    "kind": "dev",
    "methods": {},
    "version": 1
  },
  "userdoc": {
    "kind": "user",
    "methods": {},
    "version": 1
  }
}