{
  "contractName": "Courses",
  "abi": [
    {
      "inputs": [],
      "stateMutability": "nonpayable",
      "type": "constructor"
    },
    {
      "inputs": [
        {
          "internalType": "string",
          "name": "_title",
          "type": "string"
        },
        {
          "internalType": "string",
          "name": "_resume",
          "type": "string"
        },
        {
          "internalType": "string",
          "name": "_urlPdf",
          "type": "string"
        },
        {
          "internalType": "string",
          "name": "_urlImage",
          "type": "string"
        }
      ],
      "name": "newCourse",
      "outputs": [
        {
          "internalType": "bool",
          "name": "_success",
          "type": "bool"
        }
      ],
      "stateMutability": "nonpayable",
      "type": "function"
    },
    {
      "inputs": [],
      "name": "ifCoursesIsEmpty",
      "outputs": [
        {
          "internalType": "bool",
          "name": "_success",
          "type": "bool"
        }
      ],
      "stateMutability": "view",
      "type": "function",
      "constant": true
    },
    {
      "inputs": [],
      "name": "getCourses",
      "outputs": [
        {
          "components": [
            {
              "internalType": "uint256",
              "name": "idCourse",
              "type": "uint256"
            },
            {
              "internalType": "string",
              "name": "title",
              "type": "string"
            },
            {
              "internalType": "string",
              "name": "resume",
              "type": "string"
            },
            {
              "internalType": "string",
              "name": "urlPdf",
              "type": "string"
            },
            {
              "internalType": "string",
              "name": "urlImage",
              "type": "string"
            },
            {
              "internalType": "uint256",
              "name": "timestamp",
              "type": "uint256"
            }
          ],
          "internalType": "struct Courses.Course[]",
          "name": "",
          "type": "tuple[]"
        }
      ],
      "stateMutability": "view",
      "type": "function",
      "constant": true
    },
    {
      "inputs": [
        {
          "internalType": "uint256",
          "name": "_idCourse",
          "type": "uint256"
        },
        {
          "internalType": "string",
          "name": "_question",
          "type": "string"
        },
        {
          "internalType": "string",
          "name": "_answer",
          "type": "string"
        }
      ],
      "name": "addQuestionAnswerToCourse",
      "outputs": [
        {
          "internalType": "bool",
          "name": "_success",
          "type": "bool"
        }
      ],
      "stateMutability": "nonpayable",
      "type": "function"
    },
    {
      "inputs": [
        {
          "internalType": "uint256",
          "name": "_idCourse",
          "type": "uint256"
        }
      ],
      "name": "getCourseById",
      "outputs": [
        {
          "components": [
            {
              "internalType": "uint256",
              "name": "idCourse",
              "type": "uint256"
            },
            {
              "internalType": "string",
              "name": "title",
              "type": "string"
            },
            {
              "internalType": "string",
              "name": "resume",
              "type": "string"
            },
            {
              "internalType": "string",
              "name": "urlPdf",
              "type": "string"
            },
            {
              "internalType": "string",
              "name": "urlImage",
              "type": "string"
            },
            {
              "internalType": "uint256",
              "name": "timestamp",
              "type": "uint256"
            }
          ],
          "internalType": "struct Courses.Course",
          "name": "",
          "type": "tuple"
        },
        {
          "components": [
            {
              "internalType": "string",
              "name": "question",
              "type": "string"
            },
            {
              "internalType": "string",
              "name": "answer",
              "type": "string"
            }
          ],
          "internalType": "struct Courses.QuestionAnswer[]",
          "name": "",
          "type": "tuple[]"
        }
      ],
      "stateMutability": "view",
      "type": "function",
      "constant": true
    },
    {
      "inputs": [
        {
          "internalType": "uint256",
          "name": "_idCourse",
          "type": "uint256"
        },
        {
          "internalType": "address",
          "name": "_adrStudent",
          "type": "address"
        }
      ],
      "name": "addAddressCertifiedStudent",
      "outputs": [
        {
          "internalType": "bool",
          "name": "_success",
          "type": "bool"
        }
      ],
      "stateMutability": "nonpayable",
      "type": "function"
    },
    {
      "inputs": [
        {
          "internalType": "uint256",
          "name": "_idCourse",
          "type": "uint256"
        }
      ],
      "name": "getAddressesCertifiedStudentsByCourseID",
      "outputs": [
        {
          "internalType": "address[]",
          "name": "",
          "type": "address[]"
        }
      ],
      "stateMutability": "view",
      "type": "function",
      "constant": true
    }
  ],
  "bytecode": "0x608060405234801561001057600080fd5b50600080819055506117e6806100276000396000f3fe608060405234801561001057600080fd5b506004361061007d5760003560e01c80638bea7ff31161005b5780638bea7ff314610112578063cc12647914610130578063cff1c1db1461014e578063ea5b210f1461017e5761007d565b806343cdb7ce146100825780634a12a9b6146100b2578063710f72f8146100e2575b600080fd5b61009c60048036038101906100979190610df7565b6101af565b6040516100a99190610f14565b60405180910390f35b6100cc60048036038101906100c79190610f62565b610250565b6040516100d99190610fbd565b60405180910390f35b6100fc60048036038101906100f7919061111e565b6102d0565b6040516101099190610fbd565b60405180910390f35b61011a61039a565b6040516101279190610fbd565b60405180910390f35b6101386103b7565b60405161014591906113a0565b60405180910390f35b610168600480360381019061016391906113c2565b6106e1565b6040516101759190610fbd565b60405180910390f35b61019860048036038101906101939190610df7565b610809565b6040516101a692919061163d565b60405180910390f35b60606005600083815260200190815260200160002080548060200260200160405190810160405280929190818152602001828054801561024457602002820191906000526020600020905b8160009054906101000a900473ffffffffffffffffffffffffffffffffffffffff1673ffffffffffffffffffffffffffffffffffffffff16815260200190600101908083116101fa575b50505050509050919050565b600060056000848152602001908152602001600020829080600181540180825580915050600190039060005260206000200160009091909190916101000a81548173ffffffffffffffffffffffffffffffffffffffff021916908373ffffffffffffffffffffffffffffffffffffffff1602179055506001905092915050565b60006102da610cba565b838160000181905250828160200181905250600360008681526020019081526020016000208190806001815401808255809150506001900390600052602060002090600202016000909190919091506000820151816000019080519060200190610345929190610cd4565b506020820151816001019080519060200190610362929190610cd4565b505050600260008681526020019081526020016000206000815480929190610389906116a3565b919050555060019150509392505050565b60008060005411156103af57600090506103b4565b600190505b90565b60606000805467ffffffffffffffff8111156103d6576103d5610ff3565b5b60405190808252806020026020018201604052801561040f57816020015b6103fc610d5a565b8152602001906001900390816103f45790505b50905060005b6000548160ff1610156106d9576000600160008360ff1681526020019081526020016000209050806040518060c0016040529081600082015481526020016001820180546104629061171a565b80601f016020809104026020016040519081016040528092919081815260200182805461048e9061171a565b80156104db5780601f106104b0576101008083540402835291602001916104db565b820191906000526020600020905b8154815290600101906020018083116104be57829003601f168201915b505050505081526020016002820180546104f49061171a565b80601f01602080910402602001604051908101604052809291908181526020018280546105209061171a565b801561056d5780601f106105425761010080835404028352916020019161056d565b820191906000526020600020905b81548152906001019060200180831161055057829003601f168201915b505050505081526020016003820180546105869061171a565b80601f01602080910402602001604051908101604052809291908181526020018280546105b29061171a565b80156105ff5780601f106105d4576101008083540402835291602001916105ff565b820191906000526020600020905b8154815290600101906020018083116105e257829003601f168201915b505050505081526020016004820180546106189061171a565b80601f01602080910402602001604051908101604052809291908181526020018280546106449061171a565b80156106915780601f1061066657610100808354040283529160200191610691565b820191906000526020600020905b81548152906001019060200180831161067457829003601f168201915b50505050508152602001600582015481525050838360ff16815181106106ba576106b961174b565b5b60200260200101819052505080806106d190611787565b915050610415565b508091505090565b60008054600160008054815260200190815260200160002060000181905550846001600080548152602001908152602001600020600101908051906020019061072b929190610cd4565b508360016000805481526020019081526020016000206002019080519060200190610757929190610cd4565b508260016000805481526020019081526020016000206003019080519060200190610783929190610cd4565b5081600160008054815260200190815260200160002060040190805190602001906107af929190610cd4565b50426001600080548152602001908152602001600020600501819055506000808154809291906107de906116a3565b9190505550600160026000805481526020019081526020016000208190555060019050949350505050565b610811610d5a565b606060006002600085815260200190815260200160002054905060008167ffffffffffffffff81111561084757610846610ff3565b5b60405190808252806020026020018201604052801561088057816020015b61086d610cba565b8152602001906001900390816108655790505b50905060005b828160ff161015610a30576000600360008881526020019081526020016000208260ff16815481106108bb576108ba61174b565b5b90600052602060002090600202019050806040518060400160405290816000820180546108e79061171a565b80601f01602080910402602001604051908101604052809291908181526020018280546109139061171a565b80156109605780601f1061093557610100808354040283529160200191610960565b820191906000526020600020905b81548152906001019060200180831161094357829003601f168201915b505050505081526020016001820180546109799061171a565b80601f01602080910402602001604051908101604052809291908181526020018280546109a59061171a565b80156109f25780601f106109c7576101008083540402835291602001916109f2565b820191906000526020600020905b8154815290600101906020018083116109d557829003601f168201915b505050505081525050838360ff1681518110610a1157610a1061174b565b5b6020026020010181905250508080610a2890611787565b915050610886565b506001600086815260200190815260200160002081816040518060c001604052908160008201548152602001600182018054610a6b9061171a565b80601f0160208091040260200160405190810160405280929190818152602001828054610a979061171a565b8015610ae45780601f10610ab957610100808354040283529160200191610ae4565b820191906000526020600020905b815481529060010190602001808311610ac757829003601f168201915b50505050508152602001600282018054610afd9061171a565b80601f0160208091040260200160405190810160405280929190818152602001828054610b299061171a565b8015610b765780601f10610b4b57610100808354040283529160200191610b76565b820191906000526020600020905b815481529060010190602001808311610b5957829003601f168201915b50505050508152602001600382018054610b8f9061171a565b80601f0160208091040260200160405190810160405280929190818152602001828054610bbb9061171a565b8015610c085780601f10610bdd57610100808354040283529160200191610c08565b820191906000526020600020905b815481529060010190602001808311610beb57829003601f168201915b50505050508152602001600482018054610c219061171a565b80601f0160208091040260200160405190810160405280929190818152602001828054610c4d9061171a565b8015610c9a5780601f10610c6f57610100808354040283529160200191610c9a565b820191906000526020600020905b815481529060010190602001808311610c7d57829003601f168201915b505050505081526020016005820154815250509150935093505050915091565b604051806040016040528060608152602001606081525090565b828054610ce09061171a565b90600052602060002090601f016020900481019282610d025760008555610d49565b82601f10610d1b57805160ff1916838001178555610d49565b82800160010185558215610d49579182015b82811115610d48578251825591602001919060010190610d2d565b5b509050610d569190610d90565b5090565b6040518060c001604052806000815260200160608152602001606081526020016060815260200160608152602001600081525090565b5b80821115610da9576000816000905550600101610d91565b5090565b6000604051905090565b600080fd5b600080fd5b6000819050919050565b610dd481610dc1565b8114610ddf57600080fd5b50565b600081359050610df181610dcb565b92915050565b600060208284031215610e0d57610e0c610db7565b5b6000610e1b84828501610de2565b91505092915050565b600081519050919050565b600082825260208201905092915050565b6000819050602082019050919050565b600073ffffffffffffffffffffffffffffffffffffffff82169050919050565b6000610e7b82610e50565b9050919050565b610e8b81610e70565b82525050565b6000610e9d8383610e82565b60208301905092915050565b6000602082019050919050565b6000610ec182610e24565b610ecb8185610e2f565b9350610ed683610e40565b8060005b83811015610f07578151610eee8882610e91565b9750610ef983610ea9565b925050600181019050610eda565b5085935050505092915050565b60006020820190508181036000830152610f2e8184610eb6565b905092915050565b610f3f81610e70565b8114610f4a57600080fd5b50565b600081359050610f5c81610f36565b92915050565b60008060408385031215610f7957610f78610db7565b5b6000610f8785828601610de2565b9250506020610f9885828601610f4d565b9150509250929050565b60008115159050919050565b610fb781610fa2565b82525050565b6000602082019050610fd26000830184610fae565b92915050565b600080fd5b600080fd5b6000601f19601f8301169050919050565b7f4e487b7100000000000000000000000000000000000000000000000000000000600052604160045260246000fd5b61102b82610fe2565b810181811067ffffffffffffffff8211171561104a57611049610ff3565b5b80604052505050565b600061105d610dad565b90506110698282611022565b919050565b600067ffffffffffffffff82111561108957611088610ff3565b5b61109282610fe2565b9050602081019050919050565b82818337600083830152505050565b60006110c16110bc8461106e565b611053565b9050828152602081018484840111156110dd576110dc610fdd565b5b6110e884828561109f565b509392505050565b600082601f83011261110557611104610fd8565b5b81356111158482602086016110ae565b91505092915050565b60008060006060848603121561113757611136610db7565b5b600061114586828701610de2565b935050602084013567ffffffffffffffff81111561116657611165610dbc565b5b611172868287016110f0565b925050604084013567ffffffffffffffff81111561119357611192610dbc565b5b61119f868287016110f0565b9150509250925092565b600081519050919050565b600082825260208201905092915050565b6000819050602082019050919050565b6111de81610dc1565b82525050565b600081519050919050565b600082825260208201905092915050565b60005b8381101561121e578082015181840152602081019050611203565b8381111561122d576000848401525b50505050565b600061123e826111e4565b61124881856111ef565b9350611258818560208601611200565b61126181610fe2565b840191505092915050565b600060c08301600083015161128460008601826111d5565b506020830151848203602086015261129c8282611233565b915050604083015184820360408601526112b68282611233565b915050606083015184820360608601526112d08282611233565b915050608083015184820360808601526112ea8282611233565b91505060a08301516112ff60a08601826111d5565b508091505092915050565b6000611316838361126c565b905092915050565b6000602082019050919050565b6000611336826111a9565b61134081856111b4565b935083602082028501611352856111c5565b8060005b8581101561138e578484038952815161136f858261130a565b945061137a8361131e565b925060208a01995050600181019050611356565b50829750879550505050505092915050565b600060208201905081810360008301526113ba818461132b565b905092915050565b600080600080608085870312156113dc576113db610db7565b5b600085013567ffffffffffffffff8111156113fa576113f9610dbc565b5b611406878288016110f0565b945050602085013567ffffffffffffffff81111561142757611426610dbc565b5b611433878288016110f0565b935050604085013567ffffffffffffffff81111561145457611453610dbc565b5b611460878288016110f0565b925050606085013567ffffffffffffffff81111561148157611480610dbc565b5b61148d878288016110f0565b91505092959194509250565b600060c0830160008301516114b160008601826111d5565b50602083015184820360208601526114c98282611233565b915050604083015184820360408601526114e38282611233565b915050606083015184820360608601526114fd8282611233565b915050608083015184820360808601526115178282611233565b91505060a083015161152c60a08601826111d5565b508091505092915050565b600081519050919050565b600082825260208201905092915050565b6000819050602082019050919050565b600060408301600083015184820360008601526115808282611233565b9150506020830151848203602086015261159a8282611233565b9150508091505092915050565b60006115b38383611563565b905092915050565b6000602082019050919050565b60006115d382611537565b6115dd8185611542565b9350836020820285016115ef85611553565b8060005b8581101561162b578484038952815161160c85826115a7565b9450611617836115bb565b925060208a019950506001810190506115f3565b50829750879550505050505092915050565b600060408201905081810360008301526116578185611499565b9050818103602083015261166b81846115c8565b90509392505050565b7f4e487b7100000000000000000000000000000000000000000000000000000000600052601160045260246000fd5b60006116ae82610dc1565b91507fffffffffffffffffffffffffffffffffffffffffffffffffffffffffffffffff82036116e0576116df611674565b5b600182019050919050565b7f4e487b7100000000000000000000000000000000000000000000000000000000600052602260045260246000fd5b6000600282049050600182168061173257607f821691505b602082108103611745576117446116eb565b5b50919050565b7f4e487b7100000000000000000000000000000000000000000000000000000000600052603260045260246000fd5b600060ff82169050919050565b60006117928261177a565b915060ff82036117a5576117a4611674565b5b60018201905091905056fea2646970667358221220b1a7995c5874bc8b9b7b3631aabebc1357bc8925132ba6bd77dafff4d8e4bb0564736f6c634300080d0033",
  "immutableReferences": {},
  "source": "pragma solidity 0.8.13;\r\n\r\ncontract Courses {\r\n\r\n    struct QuestionAnswer {\r\n        string question;\r\n        string answer;\r\n    }\r\n\r\n    struct Course {\r\n        uint idCourse;\r\n        string title;\r\n        string resume;\r\n        string urlPdf;\r\n        string urlImage;\r\n        uint timestamp;\r\n    }\r\n\r\n    constructor () {\r\n        nbrCourses = 0;\r\n    }\r\n\r\n    uint private nbrCourses;\r\n    mapping (uint => Course) private courses;\r\n    mapping (uint => uint) private countQuestionsAnswers;\r\n    mapping (uint => QuestionAnswer[]) private questionsAnswers;\r\n    mapping (uint => uint) private countCertifiedStudents;\r\n    mapping (uint => address[]) private certifiedStudents;\r\n\r\n    function newCourse (string memory _title, string memory _resume, string memory _urlPdf, string memory _urlImage) public returns (bool _success){\r\n\r\n        courses[nbrCourses].idCourse = nbrCourses;\r\n        courses[nbrCourses].title = _title;\r\n        courses[nbrCourses].resume = _resume;\r\n        courses[nbrCourses].urlPdf = _urlPdf;\r\n        courses[nbrCourses].urlImage = _urlImage;\r\n        courses[nbrCourses].timestamp = block.timestamp;\r\n        nbrCourses++;\r\n        countQuestionsAnswers[nbrCourses] = 1;\r\n        return true;\r\n    }\r\n\r\n    function ifCoursesIsEmpty() public view returns (bool _success) {\r\n        if(nbrCourses > 0) return false;\r\n        return true;\r\n    }\r\n\r\n    function getCourses() public view returns (Course[] memory){\r\n        Course[] memory arrCourses = new Course[](nbrCourses);\r\n        for(uint8 i = 0; i < nbrCourses; i++){\r\n            Course storage course = courses[i];\r\n            arrCourses[i] = course;\r\n        }\r\n        return arrCourses;\r\n    }\r\n\r\n    function addQuestionAnswerToCourse(uint _idCourse, string memory _question, string memory _answer) public returns(bool _success){\r\n        QuestionAnswer memory questionAnswer;\r\n        questionAnswer.question = _question;\r\n        questionAnswer.answer = _answer;\r\n        questionsAnswers[_idCourse].push(questionAnswer);\r\n        countQuestionsAnswers[_idCourse]++;\r\n        return true;\r\n    }\r\n\r\n    function getCourseById(uint _idCourse) public view returns (Course memory, QuestionAnswer[] memory){\r\n        uint _countQA = countQuestionsAnswers[_idCourse];\r\n        QuestionAnswer[] memory arrQuestionsAnswers = new QuestionAnswer[](_countQA);\r\n        for(uint8 i = 0; i < _countQA; i++){\r\n            QuestionAnswer storage questionAnswer = questionsAnswers[_idCourse][i];\r\n            arrQuestionsAnswers[i] = questionAnswer;\r\n        }\r\n        return (courses[_idCourse], arrQuestionsAnswers);\r\n    }\r\n\r\n    function addAddressCertifiedStudent(uint _idCourse, address _adrStudent) public returns(bool _success){\r\n        certifiedStudents[_idCourse].push(_adrStudent);\r\n        return true;\r\n    }\r\n\r\n    function getAddressesCertifiedStudentsByCourseID(uint _idCourse) public view returns(address[] memory){\r\n        return certifiedStudents[_idCourse];\r\n    }\r\n}\r\n",
  "sourcePath": "C:\\Users\\Baghdad\\Desktop\\MyFutur\\walid-project\\contracts\\Courses.sol",
  "compiler": {
    "name": "solc",
    "version": "0.8.13+commit.abaa5c0e.Emscripten.clang"
  },
  "schemaVersion": "3.4.7",
  "updatedAt": "2022-05-23T16:09:51.471Z",
  "networkType": "ethereum",
  "devdoc": {
    "kind": "dev",
    "methods": {},
    "version": 1
  },
  "userdoc": {
    "kind": "user",
    "methods": {},
    "version": 1
  }
}